:020000040800F2
:10C00000E852002029C20008F70401085BF3000889
:10C010001D010108F5C900083D15010800000000D8
:10C02000000000000000000000000000A10A01085C
:10C0300099D1000800000000F9040108D50A0108A0
:10C0400043C2000843C2000843C2000843C20008BC
:10C0500043C2000843C2000843C2000843C20008AC
:10C0600043C2000859D300085FD3000843C2000848
:10C0700043C2000843C2000843C2000843C200088C
:10C0800001D1000843C2000843C2000843C20008AF
:10C0900043C2000843C2000843C2000843C200086C
:10C0A00043C2000843C2000843C2000843C200085C
:10C0B00043C20008910B010843C2000843C20008B4
:10C0C00043C2000843C2000843C2000843C200083C
:10C0D00043C200082513010843C2000831130108B8
:10C0E00043C2000843C2000843C2000843C200081C
:10C0F00043C2000843C2000843C2000843C200080C
:10C1000043C2000843C2000843C2000843C20008FB
:10C1100043C2000843C2000843C2000843C20008EB
:10C1200043C2000843C2000843C2000843C20008DB
:10C1300043C2000843C2000843C2000843C20008CB
:10C1400043C2000843C2000843C2000843C20008BB
:10C1500043C2000843C2000843C2000843C20008AB
:10C1600043C2000843C2000843C2000843C200089B
:10C1700043C2000843C2000843C200080000000098
:10C1800043C2000843C2000800F002F800F03CF887
:10C190000AA090E8000C82448344AAF10107DA4522
:10C1A00001D100F031F8AFF2090EBAE80F0013F038
:10C1B000010F18BFFB1A43F001031847F8530000A2
:10C1C00018540000103A24BF78C878C1FAD8520732
:10C1D00024BF30C830C144BF04680C607047000001
:10C1E0000023002400250026103A28BF78C1FBD880
:10C1F000520728BF30C148BF0B6070471FB505F01C
:10C20000C4F91FBD10B510BD00F072F91146FFF75B
:10C21000F5FF05F0A5F900F090F903B4FFF7F2FF80
:10C2200003BC00F095F90000094880470948004721
:10C23000FEE7FEE7FEE7FEE7FEE7FEE7FEE7FEE7D6
:10C24000FEE7FEE704480549054A064B7047000033
:10C25000750B010889C10008E8280020E852002079
:10C26000E83D0020E83D002053EA020C00F0698020
:10C270002DE9F04B4FF00006002B1FBFB3FA83F5FA
:10C2800003FA05F424FA05F65E4012BF1643B2FA2B
:10C2900082F502FA05F4C5F120051EBF22FA05FC5D
:10C2A00044EA0C04203556EA044C4FEA144418BF03
:10C2B000641C4FF000084FF00009904271EB030C32
:10C2C00039D3002919BFB1FA81F701FA07F6B0FA9C
:10C2D00080F700FA07F6C7F120071EBF20FA07FC17
:10C2E00046EA0C062037B6FBF4FCA7EB0507103F27
:10C2F00007F01F0BCBF120060CFA0BFB2CFA06F60D
:10C3000044BFB3460026202FA4BF5E464FF0000B6B
:10C310005BEA060C08BF4FF0010B19EB0B09ABFBF6
:10C32000027C48EB0608C01B06FB02CC0BFB03CCCF
:10C3300071EB0C01C1E70B46024641464846BDE899
:10C34000F08B13B54FF000004FF00001AFF3008009
:10C35000BDE81C40704740EA010310B59B070FD1B0
:10C36000042A0DD310C808C9121F9C42F8D020BA65
:10C3700019BA884201D9012010BD4FF0FF3010BD1D
:10C380001AB1D30703D0521C07E0002010BD10F8EB
:10C39000013B11F8014B1B1B07D110F8013B11F8B1
:10C3A000014B1B1B01D1921EF1D1184610BD032A6F
:10C3B00040F2308010F0030C00F0158011F8013BC2
:10C3C000BCF1020F624498BF11F801CB00F8013BA9
:10C3D00038BF11F8013BA2F1040298BF00F801CB6D
:10C3E00038BF00F8013B11F0030300F02580083A44
:10C3F000C0F0088051F8043B083A51F804CBA0E89B
:10C400000810F5E7121D5CBF51F8043B40F8043BEF
:10C41000AFF30080D20724BF11F8013B11F801CB24
:10C4200048BF11F8012B24BF00F8013B00F801CBF5
:10C4300048BF00F8012B704710B5203AC0F00B80C0
:10C44000B1E81850203AA0E81850B1E81850A0E818
:10C450001850BFF4F5AF5FEA027C24BFB1E8185072
:10C46000A0E8185044BF18C918C0BDE810405FEAE2
:10C47000827C24BF51F8043B40F8043B08BF70475E
:10C48000D20728BF31F8023B48BF11F8012B28BF63
:10C4900020F8023B48BF00F8012B70474FF0000224
:10C4A00000B5134694469646203922BFA0E80C50AA
:10C4B000A0E80C50B1F12001BFF4F7AF090728BF85
:10C4C000A0E80C5048BF0CC05DF804EB890028BF01
:10C4D00040F8042B08BF704748BF20F8022B11F02A
:10C4E000804F18BF00F8012B7047704770477047A6
:10C4F000754600F029F8AE4605006946534620F01F
:10C500000700854618B020B5FFF79CFEBDE8204027
:10C510004FF000064FF000074FF000084FF0000BFF
:10C5200021F00701AC46ACE8C009ACE8C009ACE8B2
:10C53000C009ACE8C0098D4670470446AFF30080DF
:10C540002046FFF76AFE0000004870478828002058
:10C5500001491820ABBEFEE726000200704710B567
:10C56000040010D0A16A201D88470020A0702088F8
:10C5700020B1401E0004000C208004D1E07E002881
:10C5800001D00320E07610BD10B504000BD00029C7
:10C5900009D0E07E002806D12180A070A16A201D6C
:10C5A00088470120E07610BD70B50A46A0F1400131
:10C5B000062915D2DFE801F00305080B0E116424EB
:10C5C0000FE04FF4FA740CE04FF47A7409E04FF482
:10C5D000FA6406E041F2883403E042F2107400E0AD
:10C5E00000240A4D2872104600F0C8F8002C0CD028
:10C5F000E878002809D002F0C7FE002805D02146BF
:10C60000BDE87040012000F01DBB70BD4800002057
:10C6100070B5404D04460026A879012804D00228B0
:10C6200019D0032834D040E08F2C02D0802C25D0A4
:10C6300038E0022000F00EF9002000F01FF901F0B0
:10C640006DFCA861287908B13E2000E05E20BDE8BD
:10C65000704000F01DB98F2C10D0204600F084F8F7
:10C6600000B3AC70E87868B100F0DAFA50B102F0CB
:10C670008BFE38B1022000F0EDF807E001F04EFC2F
:10C68000686170BD0F2000F0E5F809E000203DE092
:10C69000204600F069F828B183212046FFF784FF87
:10C6A000AE70F3E7002000F0E9F8802C1AD004DC2B
:10C6B000102C1CD0112C04D123E0812C14D0832CFD
:10C6C00022D0A4F120000F2807D93E2C05D05E2CE3
:10C6D00003D0712C01D0A12CD3D12046BDE87040ED
:10C6E00000F04CB8012011E0AE7002200EE0A878F6
:10C6F00000F03AF818B11021A878FFF755FFAE7096
:10C7000070BDAE701120E9E7AE700320BDE8704047
:10C7100000F0B4B84800002070B5114C0025257019
:10C720006570A570E570257165716572E561A5722A
:10C730002562E572A571FF20E071257201F0EEFB24
:10C74000A0612573012204F11001064802F086FD64
:10C750005E2000F09DF8BDE87040002000F0DCBADB
:10C7600048000020300300203F2802D040380F2826
:10C7700001D8012070470020704700002DE9F041EA
:10C780001C4C05463E28E779667AE07103D05E2DA1
:10C7900022D1002000E00120E07000F0BDF9217BF3
:10C7A000002029B1A17B8D4202D12073E178217153
:10C7B000A27A4FF400714AB1627AE37A9A4205D1C3
:10C7C000226AE261A0722062E07202E0607AB04206
:10C7D00002D0094800F0DBFDBD4202D1607AB042D0
:10C7E00006D0BDE8F0414FF48061034800F0CFBDB2
:10C7F000BDE8F0814800002080000020064810B508
:10C800000021817001720173084600F037F8BDE81D
:10C810001040302000F01EB8480000200A4830B414
:10C8200001784278491C01F01F01914204D0027C3A
:10C83000064B04781A5501700349012230BC1031AF
:10C84000034802F00BBD000048000020B41F002088
:10C850003003002001B5142301226946014802F08B
:10C860002BFD08BD300300200349087108B13E20AC
:10C8700000E05E2000F00CB84800002010B5034C2A
:10C88000A07101F04BFB606110BD0000480000206A
:10C8900070B5084C05466073A0730020E07301F08A
:10C8A0003DFB6062012020732846BDE87040FFF721
:10C8B000D1BF0000480000202DE9F04101F02EFB1F
:10C8C0002A4D2B4C06462078617888420ED1A079FB
:10C8D0000025A8B16069301A642819D32746A570CD
:10C8E0000020FFF7CBFFB87950B111E06078617894
:10C8F000285C491C01F01F016170FFF789FEE2E727
:10C90000A069301A962803D30C20FFF7A3FFA66175
:10C91000207B002828D0606A301AB0F57A7F23D3B4
:10C92000E07B032807D2401CE0736662607BBDE8B1
:10C93000F041FFF78FBF2573A07A70B1A572256211
:10C94000E572002000F0E8F925715E20FFF782FF14
:10C950004FF40071074800F01AFDBDE8F0414FF4B4
:10C960008061044800F013BDBDE8F081B41F0020D1
:10C97000480000208000002038B5194904460868A6
:10C9800040F080500860086800F08050BFF34F8F7F
:10C990000090086801F098FB1249134800E0491E16
:10C9A0000268D20502D40029F9D117E0B1B10F49CC
:10C9B00001200860BFF34F8F0948303000680C48F1
:10C9C00000210460BFF34F8FBFF36F8F0268A24254
:10C9D00001D1012038BD491C0329F2D3002038BD04
:10C9E00040380240A0860100007000403C0E4742E3
:10C9F00050280040FEE730B503464FF6FF7091B176
:10CA00004AF20104491E89B20ED313F8012B50409B
:10CA10000022C5074FEA500000D06040521CD2B23D
:10CA2000082AF6D3EEE7002030BD0022AFF30080E5
:10CA300070B50D0004464FF4007605D0B5F1807F47
:10CA400002D234F0030006D000F028F831460F4837
:10CA500000F09DFC18E02CB1002AF5D002F094FC07
:10CA60000028F1D0C4F3400000F056F950B1084856
:10CA700001210562C472817204F00100FFF7F4FE27
:10CA8000012070BD00F00AF8002070BD8000002079
:10CA9000480000200122FFF7CBBF0000094810B575
:10CAA000002181720162C172084600F035F9002050
:10CAB000FFF7DAFEBDE810404FF48061024800F055
:10CAC00066BC000048000020800000200148C069CA
:10CAD00070470000480000200148407A704700007D
:10CAE0004800002010B54FF400710A4800F04FFCD8
:10CAF0004FF48061074800F04AFC00F09BF80028E2
:10CB000006D0BDE810404FF48071024800F03FBCF1
:10CB100010BD0000800000200348417901B10221CE
:10CB2000C278114341727047480000200B484FF013
:10CB30000042017F007C01F07F0102EA807040EA40
:10CB4000016007490A7A40EA0240CA7940EA0220B5
:10CB5000CA78497940EA420008437047481E0020DD
:10CB60004800002010B5024600F064F84042104230
:10CB700022D000F047F890421ED11048002281696F
:10CB800000EB8103491C1A6201F00F011A668161F2
:10CB9000C169491EC16100F0E1FD00F04BF820B110
:10CBA0004FF48071064800F0F2FBBDE810404FF4EE
:10CBB0008061034800F0EBBB10BD0000481E002060
:10CBC0008000002000B500F035F8002806D00448A9
:10CBD000816900EB8100B0F8600080B200BD000008
:10CBE000481E002000B500F025F8002806D00448B3
:10CBF000816900EB8100006EC0F3074000BD0000BA
:10CC0000481E002000B500F015F8002805D00348A4
:10CC1000816900EB8100008C80B200BD481E0020BD
:10CC20000348C069102801D20120704700207047D6
:10CC3000481E00200248C069002800D0012070472B
:10CC4000481E002070B5044611B11CB1012C01D062
:10CC5000002070BDFFF7E4FF1A4A4FF4806528B149
:10CC6000908A401C03041B0C0BD00BE0106940F0B1
:10CC70000200106100F072FD2946134800F087FBA6
:10CC8000E6E701235361107F167E41EA04413044F8
:10CC900000F00F0002EB800003620166D069401CC7
:10CCA000D061106920F00200106100F057FD4FF4D0
:10CCB0008071054800F06BFB2946034800F067FBD4
:10CCC000012070BD481E00208000002010B5FFF735
:10CCD000B1FF002806D0BDE810404FF48071024833
:10CCE00000F055BB10BD00008000002070B5094E5B
:10CCF000044602464FF400552946304601F009F932
:10CD00002946304601F0F8F8A04201D1012070BD5B
:10CD1000002070BD0004024010B50446FFF7E6FF96
:10CD20000100064804D04471FFF7F6FE012010BD53
:10CD300000214171FFF7F0FE002010BD48000020E7
:10CD400030B4134B002200BFC2EBC20413F82450CE
:10CD5000BDB103EB8404657E032D12D1257A412DEC
:10CD60000FD1E5788D420CD1B4F8094064BA844201
:10CD700007D1C2EBC20030BC03EB8000012103F0FD
:10CD800059BC521C92B2642ADED330BC70470000FA
:10CD900034080020F8B515460E46074603F01EFC81
:10CDA000040046EA074308D00146074804F00CFB9C
:10CDB00001F0B4F86061E078F8BD4122002102483A
:10CDC000009500F034F8F8BD2C1D002008B541EAAC
:10CDD0000043009241220021014800F003F808BD01
:10CDE0002C1D00207FB500240094AA268DF8006039
:10CDF00001948DF803108DF80420190E8DF805109C
:10CE0000190C8DF80610089D190A02948DF8071068
:10CE100003948DF8083055218DF809408DF80D10D8
:10CE20008DF80A50694604F0F9FA04B070BD7FB578
:10CE30000025044608980195009502950395AA25BA
:10CE40008DF800508DF803108DF80420190E8DF820
:10CE50000510190C8DF80610190A8DF80710D9B2B3
:10CE60008DF8081001238DF8093055238DF80A003C
:10CE70008DF80D30102A07D140EA012003F08AFB1B
:10CE800010B1C07804B070BD6946204604F0C6FAFF
:10CE9000F8E700002DE9FF411E496422A1F10C00D2
:10CEA00002F0C1FE4FF42F611B48FFF7F7FA4FF471
:10CEB000FF611A48FFF7F2FA194800262346067068
:10CEC0004FF4007060F30F03AA2060F3174355205E
:10CED00060F31F630E2060F3070714480DF1040888
:10CEE000DFF84CC0DFF84CE0009788E801500D4DAA
:10CEF0000D4A294602F5097000F020F866F30F0488
:10CF0000334629461A460C48009400F04DF8BDE817
:10CF1000FF81000084030020340800202413002037
:10CF200030000020E80200201C1B0020E709010857
:10CF3000FD130108491101082C1D00202DE9F047BF
:10CF4000044609A8089F90E84003A16098B21146E2
:10CF500002461D4604F10C0003F062FC0020207123
:10CF60002070202084F86000280C6070280EA070CB
:10CF7000E7705EB1C4F86460C4E91A8904F13C0149
:10CF8000A068BDE8F047012202F068B90148606678
:10CF9000F2E70000E709010802480E22A0F124018F
:10CFA000436E1847401D002010B5029C80E80E001B
:10CFB00084810149016110BDBDCF000800680028CF
:10CFC00006D0002904D0002A02D0642302F074B9EC
:10CFD00070470000FEB501204FF49674CDE9004083
:10CFE00040F6B837024602903B465521154800F0FE
:10CFF0002BF803261348CDE9004600253B460122C5
:10D0000055213030029500F01FF80E4C4FF4487750
:10D010006034207B01280AD003280ED0022805D1D5
:10D02000E16920468847B84200D92673FEBD2169D0
:10D030002046884702202073F2E76169204688472E
:10D040002573FEBDB01D00202DE9F05F04460AA83F
:10D05000002590E80007E07E1E4617468B46012813
:10D0600004D0032807D004280CD019E0E369201D60
:10D070009847022012E0216A201D8847E576258026
:10D08000BDE8F09FE16A201D8847404508D9A07897
:10D09000401CA070A16A201D88470120E07604E0B2
:10D0A000E07E0028ECD00428EAD0E16A201D884701
:10D0B000B042E5D9A178494511D20420E076616AF1
:10D0C000201D8847012000F03FFD37B1002259465E
:10D0D000201DE369BDE8F05F18470122F7E7216AE8
:10D0E000201D8847E5762580BAF1000F03D0BDE802
:10D0F000F05F02F091BABDE8F05F02F043BA0000C1
:10D1000010B5044800F0E6FBBDE8104001490248B4
:10D1100003F022BB88020020842700200168182326
:10D12000CAB2103AB2FBF3F2054B6FF30901032ABE
:10D130009B5CC36500D9091D8165084670470000E6
:10D14000AC15010810B5014600208B698A6A4FF0C2
:10D15000C07453B1B3F5005F15D072B1012A0CD081
:10D16000022A0AD0032A09D104E01AB1012A06D002
:10D17000022A03D1C96AC90100D5012010BDC96ABC
:10D18000A142FAD010BD002AF7D0012AF2D0022A1B
:10D19000F3D0032AF3D010BD7047000038B5042047
:10D1A0000F4B104C009000221946201D00F026F86D
:10D1B0000C200B4B04F13005009008221946281D65
:10D1C00000F01CF80123DA03074904F1600000F0C5
:10D1D00087F800202080A0702880A87038BD00004B
:10D1E00090000020B01D00200008024010B5044649
:10D1F00000F094FE2169401A10BD000070B50D4684
:10D20000044604992846C4E90221C4E900530021D8
:10D21000E1750123A375A18221610B49A1610B492D
:10D22000E1610B4921620B4961620B49A162114620
:10D2300001F06CFDE168606801F068FD2046BDE822
:10D24000704000F00BB8000075D2000893D20008BF
:10D250005DD2000869D20008EDD10008D0E90121B3
:10D26000C368006803F0C0B810B5044600F056FE6D
:10D27000206110BD1CB58275CDE900120446D4E9C9
:10D280000002D4E9021303F0CEF800F047FE20615B
:10D290001CBDD0E90121C368006803F00AB9000091
:10D2A00070B50A4D281D696A88470024EC762C80E9
:10D2B000AC703035281D696A8847EC762C80AC70DC
:10D2C00030352846696988472C7370BDB01D002031
:10D2D00010B5044600F022FEA168401A10BD0000FF
:10D2E00030B401600C468280114643730022027301
:10D2F0008260084A0261084A4261084A8261084A1B
:10D30000C26123B10022204630BC00F002BE0122DF
:10D31000F9E7000037D3000825D300084DD30008F3
:10D32000D1D20008417B21B100228188006803F03E
:10D33000CFBB0122F9E710B50446427B8188006823
:10D3400003F0C6FB00F0EAFDA06010BD10B5044676
:10D3500000F0E4FDA06010BD082000F0C9BC102062
:10D3600000F0C6BC022801D102F082B9704772B643
:10D37000FEE70068814301D000207047012070471C
:10D3800002688A43026070470021016070470268AA
:10D390000A43026070470000002229B101291AD017
:10D3A00002291BD04FF440720E490B6823F44073DE
:10D3B0000B600B6813430B600A6822F078020A6066
:10D3C0000A68022303EBC00002430A60086840F4C5
:10D3D0008030086070474FF48072E5E74FF40072C8
:10D3E000E2E70000103C02401348016889050FD5B0
:10D3F000016821F400710160016841F4006101607D
:10D40000016821F400610160016841F4007101606C
:10D41000016849050FD5016821F480610160016848
:10D4200041F480510160016821F48051016001687C
:10D4300041F4806101607047003C024008490A687D
:10D4400022F440720A600A6842F004020A600A6824
:10D450004FF4803343EA002002430A607047000023
:10D46000103C0240064A136823F4407313601368AB
:10D470001360136843F001031360017070470000EC
:10D48000103C0240094910B50C6824F440740C604B
:10D490000C6844F440740C600C6844F001040C60A7
:10D4A0000260BFF36F8F436010BD0000103C02406C
:10D4B000074A136823F440731360136843F48073BE
:10D4C0001360136843F0010313600180704700008C
:10D4D000103C0240074A136823F44073136013683A
:10D4E00043F400731360136843F001031360016099
:10D4F00070470000103C024017490868C2061748F0
:10D5000005D5C26942F01002C26110220A600A68A1
:10D51000920605D5C26942F00802C26120220A6063
:10D520000A68520605D5C26942F00402C26140226F
:10D530000A600A68120605D5C26942F00202C26199
:10D5400080220A600A68920705D5C26942F020026B
:10D55000C2610220086070470C3C024010000020AD
:10D5600070B5114904460020C86100F0D7FC06469A
:10D570000E4D09E0601C07D024B100F0CFFC801BE9
:10D58000A04201D9032070BD2868C003F2D42868E6
:10D59000C00701D001202860286810F0F200F2D006
:10D5A000FFF7AAFF012070BD100000200C3C0240D4
:10D5B00010B501210748FFF7DCFE002809D000F074
:10D5C000D3F8002805D1BDE8104001210148FFF73C
:10D5D000D7BE10BD74000020024606485FF000016F
:10D5E0004FEAF06352F82100491C58402A29F7D32A
:10D5F00070470000A55A5AA500B587B014216846A7
:10D60000FEF74CFF00200590009002200121CDE99B
:10D61000020104900C4800F0B6FC00F03BFB10B196
:10D62000012007B000BD05A9684600F09FFA18B1B7
:10D6300000F0E8FA0220F4E700F0E4FA024800F013
:10D64000A2FC0020EDE70000840000202DE9F04F4F
:10D650000026ABB035463746DFF88880AC216846F7
:10D66000FEF71CFFDFF880B0C146584614E00168A1
:10D670008246491C20D0012700F03CF858B126B161
:10D68000DAF804000199884205D3AC225146684675
:10D69000FEF7D2FE0126204600F1AC044C45E6D947
:10D6A000124C9EB1A022124802A9FEF7C5FE0198B5
:10D6B000606035B1404605E0002DECD1D046012533
:10D6C000E9E7484620602BB0BDE8F08F03F07EF814
:10D6D0000020C4E900B00FB1FFF78EFF00F044F85E
:10D6E000F1E7000000C00008008000083C000020B6
:10D6F000481E00202DE9F041044600681649884282
:10D7000027D12046FFF768FFD4F8A810884220D11F
:10D71000256A0834102D1CD2E369102B19D800207B
:10D720004FF4803710E0291801F00F0104EB81015C
:10D730000A6E096AC2F3074692B251B1B94208D2E1
:10D74000012E06D82AB1401C8342ECD80120BDE846
:10D75000F0810020FBE7000000045A470121014846
:10D76000FFF715BE740000202DE9F041264D274932
:10D77000ACB02868AC30884205D9FFF73DFF0028DF
:10D780001BD1234828606C46AC212046FEF786FE5C
:10D79000204800906868A022401C01901E4904F1B6
:10D7A0000800FEF749FE2046FFF716FF2A906E4656
:10D7B0002F6800F06FFA18B101202CB0BDE8F0819D
:10D7C0000024A04656F8242007EB84010023022001
:10D7D00000F022FA18B100F015FA0220EDE7641CFF
:10D7E0002B2CEFD300F00EFAAC2231463846FEF770
:10D7F000B2FD08B10320E0E701996960296840465D
:10D80000AC312960D9E700003C00002000C00008CE
:10D810000080000800045A47481E00202DE9F0410E
:10D820000446876D00F07AFB064694F83500002523
:10D83000022806D08020606584F834500120BDE8BD
:10D84000F0812068016821F01601016020684169BB
:10D8500021F080014161206C08B9A06C20B12068E2
:10D86000016821F0080101602068016821F00101D0
:10D8700001600CE000F052FB801B052807D9202036
:10D880006065032084F8350084F83450D7E72068B9
:10D890000068C007EED194F85C103F208840B86063
:10D8A000012084F8350084F834500020C7E790F850
:10D8B0003510022903D080214165012070470521E0
:10D8C00080F835100068016821F001010160002036
:10D8D000704700002DE9F84304464FF00009CDF8E9
:10D8E000009063484FF41651A56D0068B0FBF1F746
:10D8F0002E6894F85C10082000FA01F131420FD034
:10D9000021680A6852070BD50A6822F004020A60EF
:10D9100094F85C108840A860606D40F0010060657C
:10D9200094F85C104FF0010808FA01F0304208D07A
:10D9300021684969090604D5A860606D40F00200BD
:10D94000606594F85C1004208840304208D021685B
:10D950000968890704D5A860606D40F0040060651F
:10D9600094F85C1010208840304218D02168096873
:10D97000090714D5A86020680168490304D5006828
:10D98000000308D5A16C07E00168C90503D401684C
:10D9900021F008010160216C09B12046884794F804
:10D9A0005C1020208840304231D021680968C906C7
:10D9B0002DD5A86094F8350005282068016806D0A8
:10D9C000490347D5006800031DD4616C1CE021F0B9
:10D9D000160101602068416921F080014161206CDD
:10D9E00008B9A06C20B12068016821F0080101602D
:10D9F00094F85C103F208840A86084F8358084F853
:10DA00003490216D1FE0E16B09B120468847606DBD
:10DA100000282BD0606DC00714D0052084F8350095
:10DA20002068016821F0010101600098401C00900D
:10DA3000B84203D820680068C007F6D184F8358062
:10DA400084F83490E16C002910D001B02046BDE884
:10DA5000F04308470168C905D5D4016821F01001D9
:10DA6000016084F8358084F83490CCE7BDE8F88311
:10DA7000000000202DE9F041044600F04FFA064670
:10DA80005CB1022084F83500002584F83450206809
:10DA9000016821F0010101600DE00120BDE8F08185
:10DAA00000F03CFA801B052805D920206065032082
:10DAB00084F83500F2E720680068C007F0D12268DA
:10DAC000116820480140D4E901031843D4E9033622
:10DAD0003343184363691843A3691843E369184340
:10DAE000236A18430843616A042903D1D4E90B135C
:10DAF00019430843106020684069666A20F00701F6
:10DB000030460E43012704280CD1A06A0643E06A80
:10DB100040B12046FFF716FB20B14020606584F835
:10DB20003570BAE7206846612046FFF7F7FA94F8A7
:10DB30005C203F2191408160656584F8357000204C
:10DB4000ACE700003F8010F070B5044600F0E6F945
:10DB50000546601C02D004480078044400F0DEF959
:10DB6000401BA042FAD370BD040000202DE9F0470D
:10DB7000044622480F46017E01290AD00121804631
:10DB800001764CF250394846FFF7EAFC020003D018
:10DB90002FE00220BDE8F0874FF0FF3038602068AA
:10DBA000174D012801D0A6681CE0207C6168FFF7B2
:10DBB00045FC4846FFF7D4FC0246286820F00400E4
:10DBC000286014E0217C3046FFF7E6FB4846FFF76B
:10DBD000C7FC0200286820F07A00286001D03E606F
:10DBE00005E0761CD4E902100844B042EAD8FFF7F9
:10DBF000FBFB002188F818101046CBE7100000202E
:10DC0000103C02400348016841F0004101600020DF
:10DC100070470000103C02402DE9F0471B4E0546BE
:10DC20001446307E1F468946012808D001203076F0
:10DC30004CF250384046FFF793FC18B114E0022034
:10DC4000BDE8F0879DB1012D16D0022D19D02246D6
:10DC50003B464846FFF716FC4046FFF781FC0C495F
:10DC60000A6822F001020A6000213176E8E7E1B299
:10DC70004846FFF7F7FBEFE7A1B24846FFF718FC6D
:10DC8000EAE721464846FFF725FCE5E710000020BB
:10DC9000103C0240074900200A68002A09DA054AB8
:10DCA000054B0C3A1360054B13600968002900DA34
:10DCB00001207047103C024023016745AB89EFCD3E
:10DCC0000A494FF6FF72082808D0102805D10888A5
:10DCD000904202D20888401C0880704748889042D1
:10DCE000FBD24888401C4880704700004400002058
:10DCF000044910B50A68024202D00860FFF7E0FF4D
:10DD000010BD0000143C01402DE9F84FDFF8BCA124
:10DD10000022012503264FF00F090AF1040BAAF196
:10DD2000040E00BF0B6805FA02F42340A34270D131
:10DD30000F7907F00307012F01D0022F16D1876852
:10DD40004FEA420806FA08FC27EA0C07D1F80CC093
:10DD50000CFA08FC4CEA070CC0F808C04768A74357
:10DD60000C79C4F3001494403C4344600C79E443C0
:10DD7000A4070AD0C4684FEA420C06FA0CF7BC4369
:10DD80008F6807FA0CF72743C7600C7904F0030487
:10DD9000022C12D1D40800EB840CDCF82040570789
:10DDA000FF0E09FA07F824EA0804D1F8108008FAEF
:10DDB00007F848EA0408CCF8208004684FEA420CCF
:10DDC00006FA0CF7BC430F7907F0030707FA0CF7C4
:10DDD000274307604C6814F4403F70D03C4C2768E0
:10DDE00047F480472760246822F0030704F4804446
:10DDF0000094384C07EB040CDCF8084897074FEA0E
:10DE0000177809FA08F7BC43334FB84202D100270C
:10DE100024E054E0314FB84201D101271EE0304FD9
:10DE2000B84201D1022719E02E4FB84201D1032791
:10DE300014E02D4FB84201D104270FE02B4FB84218
:10DE400001D105270AE02A4FB84201D1062705E093
:10DE5000284FB84201D1072700E0082707FA08F742
:10DE60002743CCF80878DAF800405746D1F804C0C8
:10DE70009C435FEACC2C00D51C433C60DBF800409F
:10DE80005F46D1F804C09C435FEA8C2C00D51C434C
:10DE90003C60DEF800407746D1F804C09C435FEA5E
:10DEA0008C3C00D51C433C60084F083F3C68D1F8CF
:10DEB00004C09C435FEACC3C00D51C433C60521C30
:10DEC000102AFFF42FAFBDE8F88F0000083C014096
:10DED000443802400030014000000240000402408B
:10DEE00000080240000C02400010024000140240F2
:10DEF00000180240001C02400069084000D00120C8
:10DF00007047426921EA02030A4043EA0241816103
:10DF100070470AB1816170470904FBE701488068D6
:10DF2000704700000400002070B5040013D0216881
:10DF30004CF6CC400860216845F255500860D4E9A1
:10DF4000000141602168A0688860FFF7E7FF05468F
:10DF500041F601060DE0012070BD00BFFFF7DEFFB6
:10DF6000401BB04205D92068C068800701D003205B
:10DF700070BD2068C0688007F0D121684AF6AA20E9
:10DF80000860002070BD00684AF6AA2101600020E8
:10DF90007047000002488168027811448160704730
:10DFA000040000200B4810B5016841F400710160C5
:10DFB000016841F480610160016841F48071016091
:10DFC000032000F06FF80F2000F006F800F024F8AE
:10DFD000002010BD003C024070B50D4D04464FF4CA
:10DFE0007A712878B1FBF0F00A490968B1FBF0F0CA
:10DFF00000F01AFB48B9102C07D200222146501E0F
:10E0000000F030F800206C6070BD012070BD000091
:10E0100004000020000000200A4808B5016841F40F
:10E0200080410160006800F4804000900548001FB6
:10E03000016841F080510160006800F0805000905C
:10E0400008BD000044380240002809DB00F01F0230
:10E05000012191404009800000F1E020C0F800114A
:10E0600070470000F0B40E4B1B680C46C3F302234C
:10E07000C3F10705042D00D90425191D072901D274
:10E08000002300E0DB1E012606FA05F1491E2140AF
:10E0900099409E40761E16403143F0BC03F04FBAC3
:10E0A0000CED00E0064900F0070208684FF6FF0398
:10E0B000184040EA0220034A1043086070470000FD
:10E0C0000CED00E00000FA05034908B501200862E4
:10E0D00002480068009008BD00000E420070004039
:10E0E0002DE9F0470E46050065D0DFF81481D8F819
:10E0F0000000F7B200F00700B04207D288F80070C5
:10E10000D8F8000000F00700B04254D128683D4C18
:10E11000810712D5400703D5206840F4E050206005
:10E120002878000703D5206840F46040206020680C
:10E13000A96820F0F000084320602878C0072DD09F
:10E14000304968680839012812D0022813D0032802
:10E1500011D00968890700292DDA216821F003010F
:10E1600001432160FFF7DAFE814641F2883A0EE072
:10E1700009688903EFE709688901ECE7FFF7CEFE3C
:10E18000A0EB0901514502D90320BDE8F0872068C2
:10E19000696800F00C00B0EB810FEFD1D8F80010E7
:10E1A000404601F00701B14207D90770006800F04E
:10E1B0000700B04201D00120E7E72878400705D5E5
:10E1C0002068E96820F4E0500843206028780007C0
:10E1D00006D52068296920F4604040EAC10020602B
:10E1E00000F038F82168084AC1F30311515CC840B7
:10E1F0000649086006480068FFF7EEFE0020C4E705
:10E20000003C02400838024094150108000000203C
:10E21000080000200448054900680968044AC1F361
:10E220008221515CC840704700000020083802403D
:10E23000A41501080448054900680968044AC1F3A7
:10E240004231515CC840704700000020083802404D
:10E25000A4150108154810B5006810F00C02144808
:10E2600013D01449042A0FD0082A0ED10F4C241FB2
:10E270002268236802F03F025B0207D52068C0F3E2
:10E280008810A0FB010106E0084610BD2168C1F31B
:10E290008811A1FB00010023FDF7E6FF2168C1F30F
:10E2A0000141491C4900B0FBF1F010BD08380240A3
:10E2B0000024F40040787D012DE9F84F040070D06F
:10E2C0002078DFF85093C007A9F104054CD009F17C
:10E2D00004000168C1F38101012908D00068C0F37E
:10E2E000810002280AD1D9F80000400206D528682A
:10E2F000800339D560680028E1D035E06068B0F56A
:10E30000803F12D0B0F5A02F286812D020F48030C2
:10E310002860286820F48020286060684FF4FA673D
:10E32000A8B1FFF7FBFD06460DE0286840F48030F9
:10E33000F2E740F480202860F7E700BFFFF7EEFD2A
:10E34000801BB84273D828688003F7D50CE0FFF72C
:10E35000E5FD064605E000BFFFF7E0FD801BB84283
:10E36000F0D828688003F7D42078DFF8AC828007E3
:10E370004FF0000A3ED5A748001D016811F00C0FB0
:10E3800008D00068C0F3810002280BD1D9F8000042
:10E39000400207D42868800716D5E068012800D11C
:10E3A00012E033E1E068B8B10120C8F80000FFF7DF
:10E3B000B5FD064605E000BFFFF7B0FD801B022853
:10E3C000C0D828688007F7D52868216920F0F800B0
:10E3D00040EAC10028600DE0C8F800A0FFF79EFDEC
:10E3E000064604E0FFF79AFD801B02281FD8286824
:10E3F0008007F7D42078000722D5864E87486169C8
:10E40000703671B101210160FFF788FD074604E015
:10E41000FFF784FDC01B022809D830688007F7D5B4
:10E420000EE0C0F800A0FFF779FD074605E082E0A6
:10E43000FFF774FDC01B02287DD830688007F7D431
:10E440002078400768D5DFF8CCB100270BF13C0BF2
:10E45000DBF80000C0000BD4DBF8001041F0805165
:10E46000CBF80010DBF80000012700F0805000908E
:10E470006B4E3068C00510D4306840F48070306056
:10E48000FFF74CFD009005E0FFF748FD0099401AAA
:10E49000022850D83068C005F6D55E4EA0686C36AC
:10E4A00001280FD00528306810D020F0010030601E
:10E4B000306820F004003060A068B8B1FFF72EFD8E
:10E4C00000900FE0306840F00100F4E740F00400F5
:10E4D0003060F7E7FFF722FD0099411A41F28830DA
:10E4E000814266D830688007F4D50EE0FFF716FD4C
:10E4F000009007E0FFF712FD0099411A41F28830C1
:10E50000814256D830688007F4D42FB1DBF8001070
:10E5100021F08051CBF80010A069C8B33D49091D16
:10E520000968C1F3810102294AD00228504607D068
:10E53000C8F8600000E03CE0FFF7F0FC04463BE078
:10E540004746C8F86000FFF7E9FC064605E000BF53
:10E55000FFF7E4FC801B02282BD828688001F7D441
:10E56000D4E907010843A16A2E4A490802EB014198
:10E57000626A41EA8211084394F82C1040EA016172
:10E58000C9F8001001203866FFF7C8FC044606E011
:10E590003EE000BFFFF7C2FC001B022809D8286834
:10E5A0008001F7D534E000BFFFF7B8FC001B02285C
:10E5B00002D90320BDE8F88F28688001F4D427E051
:10E5C0000128F7D0D9F80000E26900F480019142F7
:10E5D0001CD1226A00F03F01914217D147F6C07169
:10E5E000626A0140B1EB821F10D1A26A4FF0FF3383
:10E5F00000F4403103EB5202B1EB024F06D194F824
:10E600002C1000F07060B0EB016F01D00120D1E759
:10E610000020CFE70438024000004742800E474206
:10E62000007000400000FFFF10B5401EB0F1807F79
:10E6300001D3012010BD4FF0E02460610F2160176D
:10E6400002F07DFF0020A06107202061002010BDA6
:10E650007047704710B590F83C20012A22D0012263
:10E6600080F83C20CA688C6822F4407222434C68CF
:10E6700022F4806222430C6822F4006222430C6977
:10E6800022F4805222434C6922F400522243C96989
:10E69000002322F480420A4301684A6480F83C3037
:10E6A000002010BD022010BD70B590F83C20012A5A
:10E6B00032D0012480F83C40022280F83D200368DB
:10E6C0005A689D6822F070060A6832435A60134BFC
:10E6D00002689A4214D0B2F1804F11D0104B9A4286
:10E6E0000ED0104B9A420BD00F4B9A4208D00F4BD2
:10E6F0009A4205D00E4B9A4202D00E4B9A4204D158
:10E70000496825F080031943916080F83D4000215D
:10E7100080F83C10084670BD022070BD000001402A
:10E720000004004000080040000C004000040140CC
:10E73000004001400018004010B5040003D094F8D8
:10E740003D0010B107E0012010BD002084F83C001E
:10E75000204600F01FF8022084F83D00211D2068AB
:10E7600002F01CFA012084F8460084F83E0084F888
:10E770003F0084F8400084F8410084F8420084F8A7
:10E78000430084F8440084F8450084F83D000020EC
:10E7900010BD000038B505463A49036800203A4AE2
:10E7A0008B4205D1106840F001001060106838E01D
:10E7B0003549091FB3F1804F2ED0344CA34234D1D8
:10E7C0000A6842F002020A600968324C01F0020154
:10E7D00000912F4921604FF0206161604021C4E920
:10E7E000021009012161490061618900C4E9061034
:10E7F000206260622046FFF73DF908B1FEF7B7FDE1
:10E80000AC62002211461D20A563FFF72BFCBDE87A
:10E8100038401D20FFF718BC086840F00100086070
:10E82000086800F00100009038BD1B48834207D102
:10E83000086840F008000860086800F00800F2E787
:10E840001648834207D1086840F020000860086835
:10E8500000F02000E7E71248834207D1106840F437
:10E8600080301060106800F48030DCE70D4883428F
:10E87000DAD1106840F400301060106800F4003005
:10E88000D1E700000000014044380240000400408D
:10E890008860024088020020000C00400014004004
:10E8A000004001400044014070B5044690F83C002F
:10E8B0000025012817D0012684F83C60022084F846
:10E8C0003D002068826822F0770222F47F42826055
:10E8D0000868502838D00DDC20284FD005DC90B3D4
:10E8E000102811D14AE0022070BD302846D04028BF
:10E8F0000AD13BE060282FD070280DD0B0F5805FA2
:10E9000003D0B0F5005F12D0012584F83D600020EF
:10E9100084F83C00284670BDCB68D1E9012120680D
:10E9200002F0B1F92068816841F0770109E0CB6815
:10E93000D1E90121206802F0A6F92068816841F43C
:10E9400080418160E1E719E0CA684968206802F007
:10E950006FFA5021206806E0CA684968206802F012
:10E9600078FA6021206802F098F9CEE7CA68496811
:10E97000206802F05DFA40212068F4E72268014631
:10E980001046F0E770472DE9F04104460068C6687C
:10E9900005694FF00007A90713D5B10711D5F91E76
:10E9A000016101202077206880698007204602D01D
:10E9B000FFF7E8FF04E000F013F9204600F0A5F9A6
:10E9C0002777680716D5700714D521686FF0040003
:10E9D0000861022020772068806910F4407F20467B
:10E9E00002D0FFF7CFFF04E000F0FAF8204600F075
:10E9F0008CF92777280715D5300713D521686FF0D4
:10EA000008000861042020772068C069800720463C
:10EA100002D0FFF7B7FF04E000F0E2F8204600F074
:10EA200074F92777E80616D5F00614D521686FF03B
:10EA300010000861082020772068C06910F4407F2A
:10EA4000204602D0FFF79EFF04E000F0C9F8204600
:10EA500000F05BF92777E80708D0F00706D02168B7
:10EA60006FF001000861204600F01AFA280608D568
:10EA7000300606D521686FF0800008612046FFF758
:10EA8000E7FD680608D5700606D521686FF04000DE
:10EA90000861204600F005FAA8060AD5B00608D598
:10EAA00021686FF0200008612046BDE8F041FFF7C3
:10EAB000D0BDBDE8F0810000F0B587B00446142158
:10EAC0006846FDF7EBFC24683B4800233B490222E3
:10EAD00001253B4E844210D1086840F010000860C8
:10EAE0000868694600F0100005904FF4D4408DE8A6
:10EAF0000D00CDE90335304624E03248B4F1804FB3
:10EB000012D0314F0325BC4220D1086840F00400E8
:10EB100008600868694600F00400059080208DE8D0
:10EB20002D002A4804920DE00C6844F001040C60AA
:10EB300009680095CDE9012301F00101CDE90451F7
:10EB4000039313E0FFF7E0F807B0F0BD204FBC429D
:10EB50000ED10C6844F001040C60096801F0010159
:10EB600005910E218DE80E00039204926946E9E7B3
:10EB7000184884420DD1086840F010000860086809
:10EB8000694600F01000059060208DE80D003046C9
:10EB90000FE011488442D7D1086840F002000860B5
:10EBA0000868694600F002000590A0158DE80D0088
:10EBB0000A48CDE90325C5E700000140303802408E
:10EBC0000010024000000240000400400008024023
:10EBD000000C00400040014000440140000402409D
:10EBE000704770B5044690F83C0000260D46012899
:10EBF0000FD0012084F83C006AB1042A1DD0082AF5
:10EC00002FD00C2A3FD00126002084F83C0030464B
:10EC100070BD022070BD206802F048F8206881694C
:10EC200041F0080181612068816921F0040181615E
:10EC3000206881692A69114311E0206802F066F8B2
:10EC40002068816941F4006181612068816921F453
:10EC500080618161206881692A6941EA02218161BC
:10EC6000D2E7206802F088F82068C16941F0080105
:10EC7000C1612068C16921F00401C1612068C169D6
:10EC80002A69114311E0206802F0AAF82068C169DE
:10EC900041F40061C1612068C16921F48061C161F2
:10ECA0002068C1692A6941EA0221C161ACE710B557
:10ECB000040003D094F83D0010B107E0012010BD1E
:10ECC000002084F83C00204600F01EF8022084F862
:10ECD0003D00211D206801F061FF012084F84600FD
:10ECE00084F83E0084F83F0084F8400084F8410036
:10ECF00084F8420084F8430084F8440084F8450016
:10ED000084F83D00002010BD7047704710B50446E0
:10ED1000022249B104290ED0082913D094F84100E9
:10ED2000012816D0012010BD94F83E000128F9D129
:10ED300084F83E200FE094F83F000128F2D184F8D7
:10ED40003F2008E094F840000128EBD184F84020EF
:10ED500001E084F841200122206801F087FF164974
:10ED60002068164A884201D0904203D1436C43F494
:10ED7000004343642068884213D0B0F1804F10D024
:10ED80000F4988420DD00F4988420AD00E49884267
:10ED900007D0904205D00D49884202D00C498842E4
:10EDA00004D1816801F00701062903D0016841F010
:10EDB00001010160002010BD00000140000401407D
:10EDC0000004004000080040000C004000400140EA
:10EDD0000018004070B50D0004464FF0000607D043
:10EDE000042D0CD0082D11D00C2D16D0012648E092
:10EDF0002068C16821F40071C160606A13E0206876
:10EE0000C16821F48061C160A06A0CE02068C1681B
:10EE100021F40061C160E06A05E02068C16821F466
:10EE20008051C160206BFEF742FD00222946206818
:10EE300001F01CFF184B41F2111120688A10984212
:10EE400002D0164B984209D1036A0B4206D1036ADD
:10EE5000134203D1436C23F4004343642068036AE4
:10EE60000B4206D1016A114203D1016821F0010170
:10EE7000016001203DB1042D08D0082D09D084F88F
:10EE80004100304670BD84F83E00FAE784F83F0048
:10EE9000F7E784F84000F4E7000001400004014077
:10EEA0007047704770477047F8B5016804460868B6
:10EEB000CA684B6910F00F0F4FF000055AD003F0ED
:10EEC000010602F49077374365D0C10705D0D1051C
:10EED00003D5616C41F001016164410705D5D90793
:10EEE00003D0616C41F002016164810705D5D90747
:10EEF00003D0616C41F004016164010707D502F0A1
:10EF00002001314303D0616C41F008016164616C00
:10EF100000293BD0800604D5900602D5204601F09A
:10EF2000D8FF20684069616CC0F3801001F00801CF
:10EF3000014320462BD001F0A5FF20684069400620
:10EF400021D52068143050E8001F21F0400140E82E
:10EF50000012002AF5D1E06BA8B172490165E06B9F
:10EF6000FEF7A5FC002811D0E06B016D01B0BDE8F3
:10EF7000F040084783060ED593060CD52046BDE821
:10EF8000F84001F0A6BF2046FFF78DFFF8BDFFF760
:10EF90008AFF6564F8BD266B2023012E7ED1C6064C
:10EFA0007CD5D6067AD508684868009048694FF045
:10EFB000020640064DD5E26B106840684FF480773A
:10EFC0000004000C3AD0A18D814237D9E085D06988
:10EFD000B8422DD020680C3050E8001F21F4807119
:10EFE00040E80012002AF5D12068143050E8001FD4
:10EFF00021F0010140E80012002AF5D12068143008
:10F0000050E8001F21F0400140E80012002AF5D12D
:10F0100084F84230256320680C3050E8001F21F04E
:10F02000100140E80012002AF5D1E06BFEF7F6FB74
:10F030006663A08DE18D401A81B206E0A18D814208
:10F04000A8D1D069B842A5D166632046FFF72AFF50
:10F05000F8BDA08DE18D401A81B2E08D0028F7D077
:10F060000029F5D020680C3050E8002F22F490726F
:10F0700040E80027002FF5D12068143050E8002F19
:10F0800022F0010240E80027002FF5D184F8423039
:10F09000256320680C3050E8002F00E006E022F0E5
:10F0A000100240E80023002BF3D1CDE705062BD555
:10F0B000150629D594F841002128C9D1A068B0F5DA
:10F0C000805F01D12069B0B1206A411C21622168B2
:10F0D00000784860E08C401E0004000CE084B7D14A
:10F0E0002068C16821F08001C1602068C16841F0DA
:10F0F0004001C160F8BD206A0088C0F30800486084
:10F10000206A801C2062E5E74006F3D55006F1D561
:10F11000CA68204622F04002CA6084F8413000F0FC
:10F120001BF9F8BD770E010870B5040004D094F8FF
:10F130004100002510B106E0012070BD84F8405068
:10F14000204600F023F8242084F841002068C1689C
:10F1500021F40051C160204601F01CFF20680169C4
:10F1600021F4904101612068416921F02A01416147
:10F170002068C16841F40051C1606564202084F8B2
:10F18000410084F842006563002070BD70B586B010
:10F19000044614216846FDF781F92B4E22680021B0
:10F1A0002A48022303240725B24222D1274A1432D7
:10F1B000166846F010061660126802F010020592FA
:10F1C000026842F001020260006802AA00F0010039
:10F1D000059082E832006002CDE9000369461C48D0
:10F1E000FEF792FD002211462520FEF73BFF252069
:10F1F00025E0184EB24224D1144A1032166846F463
:10F2000080261660126802F480220592026842F09D
:10F2100002020260006802AA00F00200059082E883
:10F2200032004FF44060CDE9000369460A48FEF71A
:10F230006BFD002211462720FEF714FF2720FEF762
:10F2400003FF06B070BD00000010014030380240DE
:10F2500000000240004800400004024090F84230A4
:10F26000202B01D00220704721B11AB10023036383
:10F2700001F016BF0120704710B50D4A0446906892
:10F28000A0420DD192F83C100948126A0C30904708
:10F29000074920460122BDE810403C31FFF7DEBFA0
:10F2A0000448844203D1BDE81040FDF7B7BA10BD51
:10F2B000401D0020300300202DE9F843044690F85B
:10F2C0004100984616460D46202802D00220BDE88F
:10F2D000F88385B17EB100206064212084F841006C
:10F2E000FEF71CFEA6848146E684A0682027B0F5C0
:10F2F000805F02D003E00120E9E7206910B12E46CB
:10F3000000250EE000260CE08021204601F0E3FEFF
:10F31000A8B9C6B116F8010B21684860E08C401E00
:10F32000E084E08C4B464FF00002CDF800800028CE
:10F33000EAD14FF04001204601F0CDFE40B184F803
:10F3400041700320C3E735F8020BC0F30800E3E780
:10F3500084F841700020BAE77047FEE7084810B50E
:10F360000078012805D0FDF79BFF064900200870B2
:10F3700010BDFDF795FF052000F0CCF9F5E7000082
:10F38000301E0020340000200A4810B5007868B90B
:10F390000948007850B907488038C07E30B9054820
:10F3A0005038C07E10B900F05BF808B1002010BDE5
:10F3B000012010BD301E0020340000202DE9F04750
:10F3C000214A13782BB15388834202D1537A8B425E
:10F3D00037D01D4B0C3B1C78022C32D19C7A002C70
:10F3E0002FD0B3F8028080452BD15F7A002F28D030
:10F3F00099468F4225D193F808C09E88DB88BCF1DE
:10F40000000F04D1B34202D10BB1012500E0002569
:10F4100001241470A2F802809680D38082F808C07C
:10F420004C465772FDF78CFC0020A0721DB1BDE860
:10F43000F04700F063B903202070BDE8F047FDF706
:10F440002DBBBDE8F08700003C1E00200148C068CD
:10F4500070470000481E002000487047301E002002
:10F460000348C16811B1007CC00700D0012070477B
:10F47000481E002010B500F041F90B49002040F66D
:10F48000B832C860086188820849C1F80200C880A3
:10F490000748C068904201D8012000E000200870B1
:10F4A000BDE81040FDF7FABA301E002032000020FF
:10F4B000481E0020014800787047000034000020FA
:10F4C0000248007C00F0010070470000481E002048
:10F4D000064A13783BB15388834204D1908888420E
:10F4E00001D1012070470020704700003C1E002021
:10F4F00005490A78022A05D18A7A002A02D0002812
:10F5000000D0487270470000301E002010B5194C22
:10F51000207800282DD01848FDF721F8A0886188B0
:10F5200088421ED21549401CA080C8684FF6FF7261
:10F53000904216D2401CC8600A6922F001020A619A
:10F5400040F6B831884201D8012000E00020094986
:10F55000891E0870FEF702F94FF400610848FDF7B4
:10F5600016FFA0886188884203D3BDE8104000F0F0
:10F57000A5B910BD34000020E01D0020481E002069
:10F580008000002003480078002801D000F096B9E0
:10F59000704700003400002070B51B4C2078012813
:10F5A00030D1A4F18000FCF7DAFFE088A18888421E
:10F5B00001D2401CE080154DE86808B1401EE860AB
:10F5C000FEF7CCF801211248FDF7E1FE4FF400618F
:10F5D0000F48FDF7DCFE0F48017851B9E96840F6A5
:10F5E000B832914205D80121017009030848FDF79E
:10F5F000CEFEE088A188884204D3BDE87040002098
:10F6000000F088B870BD0000301E0020481E0020A9
:10F610008000002032000020114810B50078012839
:10F620001CD110480021C160016941F00101016154
:10F630000D4901200870FDF731FAFEF78FF804201C
:10F6400000F068F84FF400510848FDF7A0FEBDE84F
:10F6500010404FF400610548FDF799BE10BD000051
:10F66000301E0020481E00203200002080000020B4
:10F670000F4810B542F21071C160016921F001011B
:10F6800001610C4900200870FEF768F80A4800780C
:10F69000032801D100F032F84FF480410748FDF70C
:10F6A00076FEBDE810404FF400610448FDF76FBEE0
:10F6B000481E002032000020301E00208000002064
:10F6C00010B54FF400610B48FDF761FEFDF70AFA33
:10F6D000094C2078012803D101210648FDF757FE87
:10F6E0002078022805D1BDE8104002210148FDF72D
:10F6F0004EBE10BD80000020301E002003490020B7
:10F70000086048608860087008727047301E0020EA
:10F71000FDF75CBB70B50D4D06462878012814D165
:10F72000A5F18004201D216A88470020E076208012
:10F73000A0702E7268720120A87202202870BDE8A5
:10F74000704001460248FDF722BE70BD301E002009
:10F750008000002010B580B1B0F5803F0DD20F4978
:10F76000097851B90E4A117839B90C498039C97EE6
:10F7700019B90A495039C97E09B1002010BD0121CB
:10F7800084B21170548000209080FDF787F90348FF
:10F7900021465038FCF7F8FE012010BD301E002035
:10F7A000340000202DE9F041404F044638460D4614
:10F7B00039788288408801290DD0022912D0032986
:10F7C00007F10C062946204617D0FFF781FE28B323
:10F7D000327AF1881EE0A04201D1AA4264D0A04250
:10F7E00014D008E0A042FAD1AA42F8D10221304850
:10F7F000FDF7CDFD58E001224FE0FFF769FE00283C
:10F80000E6D1307820B17088A04201D1082244E0CE
:10F81000072242E02046FFF77BFF39E0307810B145
:10F820007088A042F2D0B4B3ADB32248007800286B
:10F83000E1D11E488038C07E0028DCD11B485038FA
:10F84000C07E0028D7D100263E607E603846BE606C
:10F8500001270770448085800672FDF71FF9FFF7C6
:10F86000FFFDE0B11448C660016941F0010101618A
:10F870001048801E0770FDF771FF79030C48FDF7F3
:10F8800086FDF9020A48FDF782FD0220FFF742FFDC
:10F890000020BDE8F081FFE703220021BAE703481A
:10F8A00029468038FCF770FE0120F2E7301E002068
:10F8B0008000002034000020481E002070B50A4D52
:10F8C000287800280FD0094C201D216A8847002085
:10F8D000E0762080A0702870BDE870404FF4006191
:10F8E0000348FDF754BD70BD34000020E01D00202A
:10F8F0008000002010B500210C46EFF3108272B694
:10F900000C4803881BB10188491E018001214388EE
:10F910001BB143885B1E4380012402B962B609B162
:10F92000FFF73AFE002C03D0BDE81040FFF7EEBD14
:10F9300010BD0000440000202DE9F04F87B00024E6
:10F94000264DCDE90354059401264FF00F084FF4DE
:10F950004877CDF800800694DFF884A0CDE90176E1
:10F96000B303524621461F4800F040F81D49730377
:10F9700001F1B409A9F17800C9F80010CDE90354E8
:10F980000594CDF800800694CDE901765246012118
:10F99000834600F02BF8C9F804B0CDE90354059470
:10F9A000CDF800800694CDE90176A9F13C0033033F
:10F9B00052460221054600F019F8C9F8085009F12D
:10F9C0000C050949F0032960A880AC71FEF7A6FA7E
:10F9D000A86007B0BDE8F04FFCF79EBE65D30008F5
:10F9E000000C0240E81E0020001002402DE9F04704
:10F9F0000400DDE90DA5DDE90B96DDE909C7DDF8B9
:10FA000020801BD0218062602381CDB10020A072B4
:10FA1000E072C4E9038CFEF781FA6061FEF77EFABA
:10FA2000A0610020E06184F82000FEF777FA24341A
:10FA3000A4E8810264E80C6A84F83850BDE8F087D5
:10FA40000120E4E72DE9F0410F46050078D00024BD
:10FA5000A04694E055F82400002872D0018940683F
:10FA6000FEF74AFA55F82410C872FEF757FA064610
:10FA700055F82400C27A90F838108A4204D1837A6B
:10FA80008B4201D0466174E08A423CD0837A8B423B
:10FA900039D1866155F824104869864201D3301A5D
:10FAA00002E0C043401C3044C86155F82400C268DD
:10FAB000C169914224D390F8201011B102290ED0CF
:10FAC00057E0012180F8201055F82400C16A09B1DF
:10FAD0000088884755F8241081F8208007E080F8D6
:10FAE000208055F82400416B09B10088884755F8FB
:10FAF00024008169416155F824008169416238E040
:10FB00008169416135E08A4231D14169711AC1612F
:10FB100055F82400026991422BD390F8201011B1BE
:10FB200002290FD025E0022180F8201055F824008A
:10FB3000016B09B10088884755F82400466218E037
:10FB400020E01AE0816A79B14FF47A72B2FBF1F1E8
:10FB5000426AB21A91420CD8466255F82400016BF1
:10FB600039B10088884704E04FF0FF31F0E780F8B2
:10FB7000208055F82400C17A8172641CA4B2BC4272
:10FB8000FFF468AFBDE8F08110B503210548FFF729
:10FB900059FF04480C3000F09DFDBDE81040FCF713
:10FBA0008BBE00009C1F0020F0B503460D46408927
:10FBB00019891446884201D30220F0BD294618460F
:10FBC00000F062F808B10120F0BD002002460521D6
:10FBD0001E8908E000EB400C1F6801EB8C0C17F845
:10FBE0000C7027B1401C8642F4DC0320F0BD00EB12
:10FBF00040001F6801EB800101267E54196811EB5B
:10FC00008000F2D0057104608260596811B95860B3
:10FC100004E011468A68002AFBD188605889401C9C
:10FC200058810020F0BD01600021416002814181C6
:10FC3000704710B54489426800230CBB022010BDF8
:10FC400014798C421AD19168B3B199600368D11AC2
:10FC50000C2291FBF2F1002909DB02898A4206DDC0
:10FC6000002201EB4101052404EB81015A54418932
:10FC7000491E4181002010BD4160E7E713469268AC
:10FC8000002ADDD1012010BD406805E002798A42DA
:10FC900001D10120704780680028F7D1704700002B
:10FCA0002DE9F04F87B014216846FCF7F7FB734845
:10FCB0000024016841F010010160016801F01001A9
:10FCC0000591016841F004010160016801F004013F
:10FCD0000591016841F080010160016801F0800137
:10FCE0000591016841F001010160016801F0010125
:10FCF0000591016841F002010160016801F0020113
:10FD00000591016841F0080101600068012200F0DE
:10FD10000800DFF86C815503059029464046FEF740
:10FD2000F8F800224FF448414046FEF7F2F8DFF8B9
:10FD300054B1002210215846FEF7EBF80122D603F9
:10FD400031465846FEF7E5F8DFF83C9140F20247AD
:10FD5000002239464846FEF7DCF8DFF830A10022E1
:10FD600069105046FEF7D5F8012291035046FEF780
:10FD7000D0F8002229465046FEF7CBF84FF46840F1
:10FD800000900125CDE90154694640460394FDF7F2
:10FD9000BBFF40F20130CDE90004694640460294C1
:10FDA000FDF7B2FFCDE90064694648460294FDF7CD
:10FDB000ABFF10204FF40416CDE90006DFF8D08029
:10FDC000694602944046FDF79FFF0820CDE90006F2
:10FDD000694602944046FDF797FF48F210000090F4
:10FDE000CDE90154694658460394FDF78DFF7E2006
:10FDF000CDE90004694650460294FDF785FF4FF4B3
:10FE0000C070CDE90004694648460294FDF77CFFC6
:10FE10000097CDE90154694648460394FDF774FF05
:10FE20004FF4E0400090CDE90154694650460394F8
:10FE3000FDF76AFF47F6E770CDE9000469464046E2
:10FE40000294FDF761FF2802CDE900046946584697
:10FE50000294FDF759FF002202210920FEF702F962
:10FE60000920FEF7F1F8002202210A20FEF7FAF835
:10FE70000A20FEF7E9F807B0BDE8F08F30380240FD
:10FE8000000802400000024000100240000402404E
:10FE9000000C0240094810B5074901600521416086
:10FEA00040F6B8318160FEF73FF8002803D0BDE886
:10FEB0001040FDF75CBA10BD003000408400002007
:10FEC00010B596B000240F941094119412941394CA
:10FED0001C2168461494FCF7E1FA202107A8FCF7DE
:10FEE000DDFA34483249C0E900144FF6FF71C0E929
:10FEF000024180210461C0E90541FEF71DFC08B103
:10FF0000FDF735FA4FF480500F900FA92948FEF7FE
:10FF1000CBFC08B1FDF72BFA2648FEF7C8FE08B166
:10FF2000FDF725FA139413A922481494FEF7BCFB9D
:10FF300008B1FDF71CFA6020CDE900040294039497
:10FF400004940594002269461A480694FEF749FE77
:10FF500008B1FDF70CFA042269461648FEF741FE87
:10FF600008B1FDF704FA082269461248FEF739FE87
:10FF700008B1FDF7FCF90C2269460E48FEF731FE88
:10FF800008B1FDF7F4F90794089409944FF4005070
:10FF90000A94CDE90B4007A906480E94FEF75AFBD8
:10FFA00008B1FDF7E4F90348FEF786FD16B010BD71
:10FFB00000000140900000200C4810B50A49016083
:10FFC0004FF4E1314160002181600C22C160C0E941
:10FFD00004128161C161FFF7A7F8002803D0BDE8D2
:10FFE0001040FDF7C4B910BD00100140E802002028
:10FFF0000E4810B50C4901604FF4165141604FF4A2
:020000040801F1
:100000008051816000214FF48062C0E903120C220C
:10001000C0E90521C161FFF787F8002803D0BDE8DA
:100020001040FDF7A4B910BD004800403003002087
:1000300010B5FCF7B1FF1B48FDF7A5FFFFF7A4FDC6
:100040001848FDF7A0FFFFF755FC1648FDF79BFF8A
:10005000FDF7AEFA1348FDF796FFFCF7BBFF11481A
:10006000FDF791FFFDF7A4FA0E48FDF78CFF00F0B5
:1000700071F80C48FDF787FFFDF750FF0A4C216827
:10008000401AB0F5FA7F07D94FF400510748FDF741
:1000900038FFFDF743FF2060BDE810400148FDF741
:1000A00072BF0000840000207000002000080240A1
:1000B00010B51848FDF768F91748FDF765F9FDF721
:1000C000C5FAFDF76BF8FCF7E5FEFFF735FCFFF727
:1000D000D1F9FCF7FBFDFFF7F3FA4FF400310D48BF
:1000E000FDF755F9FFF7B2F910B1FFF7E9F910B1D3
:1000F0004FF4005107E0FFF7A9F940F6B831884204
:1001000006D84FF48051BDE810400248FDF73FB9D2
:1001100010BD00008000002074000020FEE70000F9
:100120002DE9F0410A484468FDF7F8FE064641F221
:10013000883709E02068A568301AB84203D92179C8
:100140000348FFF776FD2C46002CF3D1BDE8F08183
:10015000780300202DE9F84F4FF4005529469E48BA
:10016000FDF7CAFE0446FDF7D9FE01469B48AE00E6
:100170000278944202D0047041600DE042789442CB
:100180000AD04268891A0F2906D3447024B99348CB
:1001900031460830FDF7FBF8904801210830FDF7A3
:1001A000E8F8002498B1FFF757F90178012909D13F
:1001B0004188C088402240EA0143002188480094D9
:1001C000FCF710FE854801210830FDF7D9F8834877
:1001D00002210830FDF7CDF898B1FFF73DF901781D
:1001E000022909D1817A39B1027AC1884088FCF7A5
:1001F000D1FD30B1FFF77CF9784802210830FDF7D6
:10020000BFF876484FF4807A51460830FDF7B1F8D0
:10021000F0B1FCF70FFDB0B1FCF740FCFCF7F2FCCD
:10022000C7B2FCF7CFFC8146FCF7ECFC8046FCF73C
:10023000D9FC010641EA092141EA18213A46102079
:1002400000F038FC20B1654851460830FDF798F8B9
:1002500062484FF4007841460830FDF78AF888B1CB
:10026000FCF73AFC0746FCF731FC67F31F600146D8
:100270000022112000F01EFC20B1584841460830F1
:10028000FDF77EF855484FF4806739460830FDF792
:1002900070F868B1FCF74AFC03461222002150486E
:1002A0000094FCF79FFD4D4839460830FDF768F88B
:1002B0004A484FF4006841460830FDF75AF880B1CB
:1002C000FFF7F8F80746FFF7C1F8034620220021A0
:1002D00043480097FCF786FD404841460830FDF74B
:1002E0004FF83E484FF4805739460830FDF741F843
:1002F00060B1FFF7ABF801460022212000F0DAFBE5
:1003000020B1364839460830FDF73AF833482946D7
:100310000830FDF72EF860B1FFF798F8014600228B
:10032000222000F0C7FB20B12C4829460830FDF7F9
:1003300027F82A484FF4804529460830FDF719F878
:1003400060B1FFF783F801460022232000F0B2FBE2
:1003500020B1224829460830FDF712F81F483146DF
:100360000830FDF706F850B100220121272000F0E7
:10037000A1FB20B1194831460830FDF701F81748B4
:100380004FF4803529460830FCF7F3FF58B10023BD
:100390000D22194612480094FCF724FD0F48294607
:1003A0000830FCF7EDFF0D484FF4003421460830CB
:1003B000FCF7DFFF50B100220A49104600F07AFB3B
:1003C00020B1064821460830FCF7DAFF00F0D4F9E6
:1003D000BDE8F84FFFF7A4BE000C024078000020F3
:1003E0002C1D00200200020210B50468002061B13B
:1003F00004290CD008290CD0206463B1042B0DD043
:100400001168082B0DD0086410BD6063F5E7A06388
:10041000F3E7E063F1E71168486310BD1168886392
:1004200010BDC86310BDF0B5C568DDE9057C642664
:100430007D43B5FBF6F500240068BCF1000FADB2BA
:100440000DD041B3042928D0082928D0046443B32F
:10045000042B29D01068082B29D00564F0BD61B1A8
:1004600004290CD008290CD0056463B1042B0DD0ED
:100470001068082B0DD00464F0BD4563F5E7856373
:10048000F3E7C563F1E710684463F0BD1068846367
:10049000F0BDC463F0BD4463D9E78463D7E7C463A8
:1004A000D5E710684563F0BD10688563F0BDC5638E
:1004B000F0BD10B5C468006869B104290DD00829E1
:1004C0000DD004646BB1042B0FD01168D068082BD9
:1004D0000FD0086410BD4463F4E78463F2E7C4639B
:1004E000F0E71168D068486310BD1168D068886370
:1004F00010BDC86310BDFEE7704700002DE9F05F36
:100500008146FDF70BFD224E204A0546002306F5E5
:100510002F644FF0010A1078401C10F0FF0010709B
:1005200002D1504682F800A0C0B20021C1EBC10741
:1005300016F827C0BCF1000F04D006EB8707FF7840
:1005400087421DD0491C89B26429EFD3B9F1000F4D
:1005500014D0002141F2883B14F8317057B104EBFC
:10056000C10797F801C0844504D17F68A5EB070C4B
:10057000DC4505D3491C89B2FF29EDD3BDE8F09FC6
:100580005B1C9BB2FF2BC6D30020F7E73000002096
:100590003408002010B5104B002100BFC1EBC10290
:1005A00013F8224094B103EB8202547E022C0DD149
:1005B000147A102C0AD1947B127B44EA02228242E4
:1005C00004D1C1EBC10003EB800010BD491C89B20E
:1005D0006429E3D3002010BD3408002070B5144D09
:1005E000002300BFC3EBC30415F82460CEB105EBB4
:1005F0008404667E032E14D1267A412E11D1B4F8DC
:10060000096076BA86420CD1B4F80B6076BA8E4295
:1006100007D1A47B944204D1C3EBC30005EB800057
:1006200070BD5B1C9BB2642BDCD3002070BD00004E
:100630003408002070B50C4600280DD00178002940
:100640000AD0C5781C21FBF729FF002C04D02846CE
:10065000BDE8704000F002B870BD00002DE9F04127
:1006600005460024FDF75AFC00260346002D2DD038
:10067000174A002112F8310038B102EBC10040786E
:10068000A84202D102EBC1001FE0491C89B2FF2938
:10069000F0D3002041F2883712F8301029B102EB74
:1006A000C0014968591AB94201D3044607E0B14272
:1006B00001D30E460446401C80B2FF28ECD3012033
:1006C00002F8340002EBC40045704360BDE8F081DD
:1006D000241300202DE9F041044681880068FDF7CD
:1006E0000BFC0646FDF71AFC05461A480027407920
:1006F00060B1FEF749FE48B1A17959B10220012944
:100700000DD0022915D0032911D117E0A771A560DA
:10071000BDE8F081002EFBD10120A56005E0012E8F
:1007200005D0A168691A0A29F2D3A071F0E7A77170
:10073000EEE7012EECD10320A560F6E7002EF4D001
:10074000A068281A0A28E3D364210020FCF77AFA6B
:10075000EDE700004800002010B504460868006876
:10076000C00608D4D4E90001FEF734FBE069BDE817
:10077000104000F096B910BD2DE9F041FDF7CEFB19
:10078000104F064600244FF47A7800BFC4EBC40033
:1007900017F8201081B107EB80056869301A4045D1
:1007A0000AD92946084800F00FFE20B12846012149
:1007B000FFF740FF00E06E61641CA4B2642CE5D337
:1007C000BDE8F081340800202C1D002010B5A021C8
:1007D0000548FBF763FE0448052101604160816024
:1007E00042F21071C16010BD481E0020002803D0E5
:1007F0000021C18001814181704700280AD0018910
:10080000C2889142018901D282881144C288891A22
:1008100041814089704781884089081A80B27047B9
:10082000002817D0016082800021C18001810A4A1E
:10083000C2600A4A02610A4A42610A4A82610A4A5D
:10084000C2610A4A02620A4A42620A4A82620A4A49
:10085000C2624181704700007D0801088B080108D1
:10086000B509010809090108490901089D0801089D
:1008700017080108FB070108ED07010818B14089B6
:1008800008B1002070470120704718B14189808865
:10089000814201D101207047002070472DE9F041CD
:1008A000154688460446FFF7A8FF854200D905464D
:1008B000A088E188401A86B2E1882068AE420144EF
:1008C0000BD32A464046FBF772FDE088A1882844F6
:1008D000B0FBF1F201FB12000FE032464046FBF79D
:1008E00066FDAA1B174608EB06002168FBF75FFDB3
:1008F000A08897FBF0F100FB1170E0806089401B3D
:1009000060812846BDE8F08110B5C0B1B9B1EFF300
:10091000108272B64389A3B1C48803681B5D0B7053
:10092000C1888388491CB1FBF3F403FB1411C18017
:100930004189491E418182F31088012010BD0020A9
:1009400010BD82F31088FAE72DE9F041154688467C
:100950000446FFF760FF854200D90546A08821893B
:10096000401A86B221892068AE4208440BD32A4639
:100970004146FBF71CFD2089A1882844B0FBF1F219
:1009800001FB12000FE032464146FBF710FDAA1BA7
:10099000174608EB06012068FBF709FDA08897FBC6
:1009A000F0F100FB117020816089284460812846A5
:1009B000BDE8F08170B50D46040002D0FFF765FF79
:1009C00008B1002070BD2189206845542089A18884
:1009D000401CB0FBF1F201FB120020816089401C39
:1009E0006081012070BD2DE9F04116460F460400DC
:1009F00054D0002F52D0002E50D094F86000002523
:100A0000B0424BD304F10C08A16940468847002846
:100A100044D1626A211D404690470028F4D02078D6
:100A200068B10128F0D194F86100B04203D294F883
:100A3000601088420DD3257084F86150E4E7207976
:100A400061788842E0D104F14001685401202070AF
:100A500021E004F140012279425494F86100721EB1
:100A6000904217D1257084F861502079A278904285
:100A7000CAD132463846FBF79AFCA26E22B13946FB
:100A8000204690470028BFD0E16E0029BCD03846F0
:100A90008847B9E7401C84F86100B5E7BDE8F081FC
:100AA00070470188012903D0012101800846704761
:100AB0000020704708B50B4600920246002103480B
:100AC000FCF7B5F9002800D0012008BD2C1D00203E
:100AD000FDF71FBAFDF75EBA30B593B03021684616
:100AE000FBF7DCFC14210CA8FBF7D8FC1F48002501
:100AF000016841F080510160006800F08050119061
:100B00001B48016841F4804101600068022400F440
:100B100080401190092000904FF480300190012016
:100B2000CDE9050480050790192008904FF4A870BE
:100B3000CDE9090404200B906846FDF7BDFB08B120
:100B400072B6FEE70CA90F2081E831004FF4A050E7
:100B50000F904FF48050109005210CA8FDF7C0FABB
:100B6000002801D072B6FEE713B030BD4038024015
:100B7000007000400448016841F4700101600249BE
:100B8000024880390860704788ED00E000C0000826
:100B90000148FDF7F8BE000020010020F0B5026812
:100BA000274B284D284E294F294C4FF0804C984216
:100BB00009D0604507D0A84205D0B04203D0B84262
:100BC00001D0A04204D122F0700E4A6842EA0E021F
:100BD00098421BD0604519D0A84217D0B04215D01A
:100BE000B84213D0A04211D01A4DA8420ED01A4DCF
:100BF000A8420BD0194DA84208D0194DA84205D0E3
:100C0000184DA84202D0184DA84203D122F44075D5
:100C1000CA682A434D6922F080022A438D68C56262
:100C20000D688562984201D0A04201D10969016333
:100C3000016841F004010160012141610260F0BDE1
:100C4000000001400004004000080040000C00408B
:100C500000040140004001400044014000480140C0
:100C600000180040001C00400020004010B501F0BA
:100C70001F030121046A99408C430462016A9A406F
:100C80001143016210BD10B5846842EA032224F4C6
:100C90007F440A432243826010BD826822F07002C2
:100CA0000A4342F00701816070470000F0B5036A13
:100CB000026A22F00102026242688469124E24F044
:100CC00073050C682C4323F002058B682B430D4DF4
:100CD000A84201D0B04205D123F00807CB683B43BE
:100CE00023F00403A84201D0B04205D14D6922F49B
:100CF000407215438A692A434260846149684163AE
:100D00000362F0BD0000014000040140F0B5026A3A
:100D1000036A23F010030362436884690D6824F4B6
:100D2000E64444EA05248D6822F0200242EA0512D6
:100D30000F4D104EA84201D0B04206D1CF6822F02C
:100D4000800242EA071222F04002A84201D0B042DB
:100D500007D14D6923F4406343EA85038D6943EA73
:100D6000850343608461496881630262F0BD0000CD
:100D70000000014000040140F0B5026A036A23F458
:100D8000807303624368C46922F4007224F073051F
:100D90000C68124E2C438D6842EA05220E4DA84283
:100DA00001D0B04206D1CF6822F4006242EA0722A5
:100DB00022F48062A84201D0B04207D14D6923F4E9
:100DC000405343EA05138D6943EA05134360C46148
:100DD0004968C1630262F0BD0000014000040140A7
:100DE00030B5046A026A22F4805202624268C36922
:100DF0000D6823F4E64343EA05238D6824F4005488
:100E000044EA0534084DA84202D0084DA84204D156
:100E10004D6922F4804242EA85124260C36149680A
:100E20000164046230BD0000000001400004014084
:100E300010B5036A046A24F001040462846924F092
:100E4000F00444EA021423F00A020A4384610262B5
:100E500010BD10B5036A046A24F0100404628469AA
:100E600023F0A00324F4704444EA023243EA01115F
:100E70008261016210BD10B5806B0021C185FEF753
:100E800012F810BD01680C3151E8002F22F4907265
:100E900041E80023002BF5D10168143151E8002FFF
:100EA00022F0010241E80023002BF5D1016B01295A
:100EB00009D101680C3151E8002F22F0100241E8FD
:100EC0000023002BF5D1202180F84210002101637E
:100ED000704708B590F84210222901D0022008BDC1
:100EE00082684FF480539A4201D1016921B1816A2D
:100EF0009A421BD04AB10AE00268816A5268C2F382
:100F000008020A80816A891C08E0026972B10268DD
:100F1000526802F07F020A70816A491C8162C18DA9
:100F2000491E0904090CC18503D01BE00268526800
:100F3000F1E70168CA6822F02002CA600168CA6845
:100F400022F48072CA6001684A6922F001024A6193
:100F5000202180F8421000214163026B012A03D056
:100F6000FEF78AF9002008BD016301680C3151E8E1
:100F7000002F22F0100241E80023002BF5D1016878
:100F80000A68D20602D50A6849680091818DFDF78A
:100F900089FFE7E770B5044600680169E26821F45B
:100FA0004051114301612169A068E2690843616908
:100FB000114308432168CA6849F20C639A4302430B
:100FC000CA6020684169A26921F4407111434161FE
:100FD00031492068884202D03049884202D1FDF769
:100FE00029F901E0FDF716F9E269002319216425CA
:100FF0003226B2F5004F626828D0A0FB0101930FA2
:101000009200FBF731F90146B0FBF5F06FF01802E2
:10101000504301EB800006EB0010B0FBF5F000F050
:10102000F002B1FBF5F002EB0012B1FBF5F06FF04E
:101030001803584301EB800006EB0010B0FBF5F0FD
:1010400000F00F0021681044886070BDA0FB010112
:1010500092185B41FBF708F90146B0FBF5F002017D
:10106000B1FBF5F06FF01803584301EB800006EB7D
:10107000C000B0FBF5F000F0F80002EB4002B1FB5D
:10108000F5F0584301EB800006EBC000B0FBF5F033
:1010900000F00700D6E700000010014000140140F6
:1010A00081628285C28500214164222180F842103C
:1010B000016921B10168CA6842F48072CA6001689E
:1010C0004A6942F001024A610068C16841F02001AA
:1010D000C160002070472DE9F843984617460D4639
:1010E0000446089E24E0701C22D0FCF717FFA0EBFA
:1010F0000800B0421AD8CEB12068C168490717D598
:10110000802D15D0402D13D00168C94309070FD495
:1011100001680025406800902046FFF7B3FE0820D4
:10112000606484F840500120BDE8F8830320FBE7A9
:101130002068006835EA000004D00020B842D2D010
:101140000020F1E70120F9E77FB50446C0780128C7
:1011500007D000286FD104B02046BDE8704000F0F1
:10116000EDB820788DF8000060788DF80100A07847
:101170008DF80200E0788DF8030020798DF80400E6
:1011800060798DF80500A0798DF80600E0798DF87A
:101190000700207A8DF80800607A8DF80900A07A9F
:1011A0008DF80A00584D0B216846FBF724FC010A14
:1011B0008DF80B108DF80C00607B8DF80D002B69FD
:1011C0000E22694628469847A1785048FEF75CFDF4
:1011D000002830D1B4F80500E67942BAB4F8070027
:1011E000257A43BAA0792179000440EA06202843F1
:1011F0001A2943D00DDC102929D005DCC1B1022900
:101200001FD0032974D11FE0182928D019296FD1C4
:1012100031E0332929D006DC202940D030290BD0F9
:10122000312965D136E0F0293CD0FF2960D15BE05F
:101230004FF400310FE065E019461046FEF7B2FAB0
:1012400056E0FEF787FA53E0FEF738FB50E03049EE
:101250000120087301042F48FCF799F848E06279EF
:1012600001461046FBF7E1FB42E062790146104679
:10127000FBF710FC3CE0FBF7C1FA39E085B22846E9
:10128000FBF770FC2846FFF785F988B30121FFF7CB
:10129000D1F92DE031461046FEF790F828E0FEF730
:1012A0000FFA25E0D4F805001B4900BA20F0FF0032
:1012B0002843884200D000210846FBF75DFBB8B107
:1012C000FBF7EEFFFBF7EAFB6420FCF73DFCBFF306
:1012D0004F8F12480168124A01F4E0611143016026
:1012E000BFF34F8F00BFFDE7FEF738F8FBF7D6FBE3
:1012F000FCF714FEA17804B00246BDE87040034834
:10130000FEF752BC7FBD00002C1D0020780300209A
:10131000101E00208000002041544F420CED00E0E0
:101320000400FA050148FDF7BFBD0000E8020020F7
:101330000148FDF7B9BD00003003002030B4214B57
:10134000002200BFC2EBC20113EB810134D00C7844
:1013500094B388B38D798478A5422DD1CD79C478A2
:10136000A54229D10D7A0479A54225D14D7A447937
:10137000A54221D18D7A8479A5421DD1CD7AC47937
:10138000A54219D10D7B047AA54215D14D7B447A33
:10139000A54211D18C7B817A8C420DD1C2EBC20067
:1013A00003EB80000121427812B1817030BC70479C
:1013B00030BC0121FFF73EB9521C92B2642AC1D35E
:1013C000F4E700003408002010B549B10A783AB1BA
:1013D0000A7E521CD2B20A76032A03D94A782AB965
:1013E000012010BD4B781BB1032A01D901220A76D6
:1013F0004A71091D00F064F8002010BD10B50C46BC
:101400000B214030FBF7F7FAB4F80B1049BA8842C9
:1014100001D1012010BD002010BD00002DE9F041D8
:101420000D460024497A80462646012913D1234AD5
:10143000002000BFC0EBC00312F8233033B1401CC2
:1014400080B26428F6D30020BDE8F081C0EBC00074
:1014500012EB8004F7D0012928D00020FFF74EF8C6
:101460000700F1D06E70AF70D4B1012020702879E0
:1014700010281DD041281BD000206070A670E77096
:101480000E222946201DFAF792FFFCF747FD606106
:101490002676287910280DD041280DD001206076BD
:1014A0002946404600F00CF83846CDE70120D5E744
:1014B0000120E2E70220F2E70320F0E734080020F1
:1014C0007FB5AA260C468DF8006049788DF801108A
:1014D000A1788DF80210E1788DF8031021798DF84C
:1014E000041061798DF80510A1798DF80610E17965
:1014F0008DF80710217A8DF80810617A8DF809109F
:10150000A17A05468DF80A1068460B21FBF773FA9D
:10151000010A8DF80C0055208DF80B108DF80D0088
:1015200026709DF80B10E1729DF80C10217360730A
:101530002B690E226946284698477FBDFEE70907BA
:10154000090E002804DB00F1E02080F80014704749
:1015500000F00F0000F1E02080F8141D704700003B
:1015600062B6FCF71FFDFFF7B7FAFEF799FBFEF72F
:10157000A7FCFEF721FDFEF73BFDFEF78BFCFEF717
:1015800097FD00BFFEF754FDFCE74FF04070E1EE21
:10159000100A704700000000000000000102030470
:1015A00006070809000000000102030400061016E7
:1015B00000061016D4150108000000208400000069
:1015C000C4C10008581601088400002064520000BD
:1015D000E0C100080024F400010000001000000039
:1015E00000000000000000000000000000000000FB
:1015F00000000000010000000000000000000000EA
:1016000000000000000000000000000000000000DA
:101610000080000800000000000000000000000042
:10162000000000FF000000000000000000000000BB
:1016300000000000000000000000000000000000AA
:101640000000000000000000000000000101000098
:08165000000000000000000092
:040000050800C189A5
:00000001FF
