S3150800C0001852002029C20008F3FB00082FEF000889
S3150800C010CDF7000819C90008150D01080000000031
S3150800C020000000000000000000000000A103010855
S3150800C030EDCC000800000000F5FB0008B903010874
S3150800C04043C2000843C2000843C2000843C20008AE
S3150800C05043C2000843C2000843C2000843C200089E
S3150800C06043C20008ADCE0008B3CE000843C200089C
S3150800C07043C2000843C2000843C2000843C200087E
S3150800C08055CC000843C2000843C2000843C2000852
S3150800C09043C2000843C2000843C2000843C200085E
S3150800C0A043C2000843C2000843C2000843C200084E
S3150800C0B043C200087504010843C2000843C20008C9
S3150800C0C043C2000843C2000843C2000843C200082E
S3150800C0D043C20008F50B010843C20008010C010819
S3150800C0E043C2000843C2000843C2000843C200080E
S3150800C0F043C2000843C2000843C2000843C20008FE
S3150800C10043C2000843C2000843C2000843C20008ED
S3150800C11043C2000843C2000843C2000843C20008DD
S3150800C12043C2000843C2000843C2000843C20008CD
S3150800C13043C2000843C2000843C2000843C20008BD
S3150800C14043C2000843C2000843C2000843C20008AD
S3150800C15043C2000843C2000843C2000843C200089D
S3150800C16043C2000843C2000843C2000843C200088D
S3150800C17043C2000843C2000843C20008000000008A
S3150800C18043C2000843C2000800F002F800F03CF879
S3150800C1900AA090E8000C82448344AAF10107DA4514
S3150800C1A001D100F031F8AFF2090EBAE80F0013F02A
S3150800C1B0010F18BFFB1A43F001031847D04B0000C4
S3150800C1C0F04B0000103A24BF78C878C1FAD8520755
S3150800C1D024BF30C830C144BF04680C6070470000F3
S3150800C1E00023002400250026103A28BF78C1FBD872
S3150800C1F0520728BF30C148BF0B6070471FB504F00F
S3150800C200B0FD1FBD10B510BD00F072F91146FFF75D
S3150800C210F5FF04F091FD00F090F903B4FFF7F2FF83
S3150800C22003BC00F095F90000094880470948004713
S3150800C230FEE7FEE7FEE7FEE7FEE7FEE7FEE7FEE7C8
S3150800C240FEE7FEE704480549054A064B7047000025
S3150800C2505904010889C1000818280020185200202E
S3150800C260183D0020183D002053EA020C00F06980B2
S3150800C2702DE9F04B4FF00006002B1FBFB3FA83F5EC
S3150800C28003FA05F424FA05F65E4012BF1643B2FA1D
S3150800C29082F502FA05F4C5F120051EBF22FA05FC4F
S3150800C2A044EA0C04203556EA044C4FEA144418BFF5
S3150800C2B0641C4FF000084FF00009904271EB030C24
S3150800C2C039D3002919BFB1FA81F701FA07F6B0FA8E
S3150800C2D080F700FA07F6C7F120071EBF20FA07FC09
S3150800C2E046EA0C062037B6FBF4FCA7EB0507103F19
S3150800C2F007F01F0BCBF120060CFA0BFB2CFA06F6FF
S3150800C30044BFB3460026202FA4BF5E464FF0000B5D
S3150800C3105BEA060C08BF4FF0010B19EB0B09ABFBE8
S3150800C320027C48EB0608C01B06FB02CC0BFB03CCC1
S3150800C33071EB0C01C1E70B46024641464846BDE88B
S3150800C340F08B13B54FF000004FF00001AFF30080FB
S3150800C350BDE81C40704740EA010310B59B070FD1A2
S3150800C360042A0DD310C808C9121F9C42F8D020BA57
S3150800C37019BA884201D9012010BD4FF0FF3010BD0F
S3150800C3801AB1D30703D0521C07E0002010BD10F8DD
S3150800C390013B11F8014B1B1B07D110F8013B11F8A3
S3150800C3A0014B1B1B01D1921EF1D1184610BD032A61
S3150800C3B040F2308010F0030C00F0158011F8013BB4
S3150800C3C0BCF1020F624498BF11F801CB00F8013B9B
S3150800C3D038BF11F8013BA2F1040298BF00F801CB5F
S3150800C3E038BF00F8013B11F0030300F02580083A36
S3150800C3F0C0F0088051F8043B083A51F804CBA0E88D
S3150800C4000810F5E7121D5CBF51F8043B40F8043BE1
S3150800C410AFF30080D20724BF11F8013B11F801CB16
S3150800C42048BF11F8012B24BF00F8013B00F801CBE7
S3150800C43048BF00F8012B704710B5203AC0F00B80B2
S3150800C440B1E81850203AA0E81850B1E81850A0E80A
S3150800C4501850BFF4F5AF5FEA027C24BFB1E8185064
S3150800C460A0E8185044BF18C918C0BDE810405FEAD4
S3150800C470827C24BF51F8043B40F8043B08BF704750
S3150800C480D20728BF31F8023B48BF11F8012B28BF55
S3150800C49020F8023B48BF00F8012B70474FF0000216
S3150800C4A000B5134694469646203922BFA0E80C509C
S3150800C4B0A0E80C50B1F12001BFF4F7AF090728BF77
S3150800C4C0A0E80C5048BF0CC05DF804EB890028BFF3
S3150800C4D040F8042B08BF704748BF20F8022B11F01C
S3150800C4E0804F18BF00F8012B704770477047704798
S3150800C4F0754600F029F8AE4605006946534620F011
S3150800C5000700854618B020B5FFF79CFEBDE8204019
S3150800C5104FF000064FF000074FF000084FF0000BF1
S3150800C52021F00701AC46ACE8C009ACE8C009ACE8A4
S3150800C530C009ACE8C0098D4670470446AFF30080D1
S3150800C5402046FFF76AFE000000487047B42700201F
S3150800C55001491820ABBEFEE726000200704710B559
S3150800C560040010D0A16A201D88470020A0702088EA
S3150800C57020B1401E0004000C208004D1E07E002873
S3150800C58001D00320E07610BD10B5040014D00029B0
S3150800C59012D020884FF6FF72121A8A420CD308442A
S3150800C5A02080E07E08B1032806D10020A070A16A89
S3150800C5B0201D88470120E07610BD10B504000DD077
S3150800C5C0208800280AD0E07E08B1032806D100207A
S3150800C5D0A070A16A201D88470120E07610BD0000E2
S3150800C5E070B5084C0546A072E1720821064800F0AD
S3150800C5F085FC207B002804D12846BDE8704003F05E
S3150800C60037BB70BD480000206C00002070B5384C60
S3150800C610054600262079012804D0022815D00328CB
S3150800C62022D02FE08F2D02D0802D19D027E00220AE
S3150800C63000F0AEF8002000F0CDF8E078002812D11E
S3150800C640BDE870405E2000F0CFB88F2D08D0284690
S3150800C65000F050F898B1A570022000F099F80CE0A7
S3150800C66001F046FA206170BD284600F043F830B163
S3150800C67083212846FFF7B4FFA670002033E0002088
S3150800C68000F0A8F8802D1AD004DC102D1CD0112D2E
S3150800C69004D123E0812D14D0832D22D0A5F12000CA
S3150800C6A00F2807D93E2D05D05E2D03D0712D01D058
S3150800C6B0A12DD8D12846BDE8704000F025B8012044
S3150800C6C011E0A67002200EE0A07800F013F818B169
S3150800C6D01021A078FFF784FFA67070BDA670112000
S3150800C6E0E9E7A6700320BDE8704000F073B80000C3
S3150800C6F0480000203F2802D040380F2801D80120E2
S3150800C70070470020704700000949C8728A7922B12B
S3150800C7100A7A904201D100228A714A79904205D05C
S3150800C72048714FF40071034800F0E8BB70470000F9
S3150800C730480000206C000020064810B500218170D2
S3150800C74081728171084600F045F8BDE81040302036
S3150800C75000F01EB8480000200A4830B40178427834
S3150800C760491C01F01F01914204D0427B064B047814
S3150800C7701A5501700349012230BC0D31034802F0F5
S3150800C78057BB000048000020E01E00201C030020C4
S3150800C79001B5142301226946014802F077FB08BD5A
S3150800C7A01C0300200449012800D0002008734FF418
S3150800C7B08061024800F0A2BB480000206C000020FF
S3150800C7C00349C87008B13E2000E05E2000F00CB8AE
S3150800C7D04800002010B5034C207101F089F920614A
S3150800C7E010BD00004800002070B5084C0546E071F1
S3150800C7F020720020607201F07BF9A0610120A0710F
S3150800C8002846BDE87040FFF7C3BF00004800002077
S3150800C8102DE9F04101F06CF91E4E1F4C05462078B3
S3150800C820617888420ED120790026A8B12069281A95
S3150800C830642819D32746A6700020FFF7CBFF38795E
S3150800C84050B111E060786178305C491C01F01F0135
S3150800C8506170FFF7DBFEE2E76069281A962803D3C2
S3150800C8600C20FFF795FF6561A079002810D0A06914
S3150800C870281AB0F57A7F0BD3607A032807D2401CB2
S3150800C8806072A561E079BDE8F041FFF781BFA67146
S3150800C890BDE8F081E01E00204800002038B519499F
S3150800C8A00446086840F080500860086800F0805028
S3150800C8B0BFF34F8F0090086801F0F0F9124913484A
S3150800C8C000E0491E0268D20502D40029F9D117E012
S3150800C8D0B1B10F4901200860BFF34F8F09483030C6
S3150800C8E000680C4800210460BFF34F8FBFF36F8FB9
S3150800C8F00268A24201D1012038BD491C0329F2D39E
S3150800C900002038BD40380240A08601000070004073
S3150800C9103C0E474250280040FEE730B503464FF626
S3150800C920FF7091B14AF20104491E89B20ED313F879
S3150800C930012B50400022C5074FEA500000D0604046
S3150800C940521CD2B2082AF6D3EEE7002030BD7FB5D6
S3150800C95000240094AA268DF8006001948DF803102F
S3150800C9608DF80420190E8DF80510190C8DF806108F
S3150800C970089D190A02948DF8071003948DF808305B
S3150800C98055218DF809408DF80D108DF80A50694625
S3150800C99004F092F904B070BD7FB50026DDE90845BC
S3150800C9A00196029600960396AA268DF800608DF8E1
S3150800C9B003108DF80420190E8DF80510190C8DF842
S3150800C9C00610190A8DF807108DF8083001218DF820
S3150800C9D0091055218DF80D108DF80A40694604F0A6
S3150800C9E06BF9044601F084F802462146284602F00F
S3150800C9F02DFC04B0204670BD2DE9FF411A4964227A
S3150800CA00A1F1180002F061FC18496422A1F2BC40A9
S3150800CA1002F05BFC4FF4007060F30F073B46AA2058
S3150800CA2060F31743552060F31F630E2060F3070574
S3150800CA3011480DF10408114FDFF844C0009588E845
S3150800CA4081100B4C0B4A214602F5097000F01CF8C0
S3150800CA50002262F30F06214613460A48009600F0A4
S3150800CA6049F8BDE8FF8100007C0300202C0800205F
S3150800CA70D4020020DC1A0020E70201089B0C0108FA
S3150800CA802D0A0108EC1C00202DE9F047044609A8E8
S3150800CA90089F90E84003A16098B2114602461D46D9
S3150800CAA004F10C0003F03CFB0020207120702020CC
S3150800CAB084F86000280C6070280EA070E7705EB1DC
S3150800CAC0C4F86460C4E91A8904F13C01A068BDE8A9
S3150800CAD0F047012202F0ACB901486066F2E70000AF
S3150800CAE0E702010802480E22A0F12401436E184706
S3150800CAF0001D002010B5029C80E80E0084810149C3
S3150800CB00016110BD09CB00080068002806D000297D
S3150800CB1004D0002A02D0642302F0B8B97047000096
S3150800CB20FEB501214FF4967410200094CDE901104A
S3150800CB3040F6B8360A4633465521164800F02CF812
S3150800CB40202003250094CDE90150124833460122DE
S3150800CB505521303000F020F80E4C4FF448766034FA
S3150800CB60207B01280AD003280ED0022805D1E169C6
S3150800CB7020468847B04200D92573FEBD2169204664
S3150800CB80884702202073F2E761692046884700201B
S3150800CB902073FEBD701D00202DE9F05F0446DDE917
S3150800CBA00BA6C07E0025DDF828901F4690468B46CA
S3150800CBB0012804D0032807D004280CD019E0E3691B
S3150800CBC0201D9847022012E0216A201D8847E57635
S3150800CBD02580BDE8F09FE16A201D8847484508D9A9
S3150800CBE0A078401CA070A16A201D88470120E07625
S3150800CBF004E0E07E0028ECD00428EAD0E16A201D93
S3150800CC008847B842E5D9A178514513D20420E07681
S3150800CC10616A201D8847012000F080FDB8F1000FE9
S3150800CC2006D000225946201DE369BDE8F05F184783
S3150800CC300122F7E7216A201D8847E5763146044830
S3150800CC4000F05CF9102EC4D1BDE8F05F03F0FCB823
S3150800CC506C00002010B5044800F026FCBDE8104022
S3150800CC600149024803F0F0B974020020B0260020FA
S3150800CC7001681823CAB2103AB2FBF3F2054B6FF3F8
S3150800CC800901032A9B5CC36500D9091D816508460D
S3150800CC9070470000840D010810B5014600208B6915
S3150800CCA08A6A4FF0C07453B1B3F5005F15D072B1FC
S3150800CCB0012A0CD0022A0AD0032A09D104E01AB1A3
S3150800CCC0012A06D0022A03D1C96AC90100D5012062
S3150800CCD010BDC96AA142FAD010BD002AF7D0012AB0
S3150800CCE0F2D0022AF3D0032AF3D010BD7047000011
S3150800CCF038B504200F4B104C009000221946201D11
S3150800CD0000F026F80C200B4B04F1300500900822A1
S3150800CD101946281D00F01CF80123DA03074904F117
S3150800CD20600000F087F800202080A0702880A87096
S3150800CD3038BD00007C000020701D0020000802405D
S3150800CD4010B5044600F0D4FE2169401A10BD000053
S3150800CD5070B50D46044604992846C4E90221C4E97B
S3150800CD6000530021E1750123A375A18221610B49B6
S3150800CD70A1610B49E1610B4921620B4961620B49CB
S3150800CD80A162114601F0ACFDE168606801F0A8FDFA
S3150800CD902046BDE8704000F00BB80000C9CD000879
S3150800CDA0E7CD0008B1CD0008BDCD000841CD00088B
S3150800CDB0D0E90121C368006802F094BE10B50446A4
S3150800CDC000F096FE206110BD1CB58275CDE90012F3
S3150800CDD00446D4E90002D4E9021302F0A2FE00F0E8
S3150800CDE087FE20611CBDD0E90121C368006802F0F6
S3150800CDF0DEBE000070B50A4D281D696A8847002402
S3150800CE00EC762C80AC703035281D696A8847EC763C
S3150800CE102C80AC7030352846696988472C7370BDFC
S3150800CE20701D002010B5044600F062FEA168401A85
S3150800CE3010BD000030B401600C4682801146437371
S3150800CE40002202738260084A0261084A4261084A5F
S3150800CE508261084AC26123B10022204630BC00F034
S3150800CE6042BE0122F9E700008BCE000879CE000801
S3150800CE70A1CE000825CE0008417B21B10022818879
S3150800CE80006803F097BA0122F9E710B50446427B19
S3150800CE908188006803F08EFA00F02AFEA06010BDB3
S3150800CEA010B5044600F024FEA06010BD082000F06E
S3150800CEB009BD102000F006BD38B50446022801D188
S3150800CEC003F004F8002001460090631C0F22024874
S3150800CED0FFF73DFD38BD0000EC1C002072B6FEE7EA
S3150800CEE00068814301D0002070470120704702681E
S3150800CEF08A430260704700210160704702680A434E
S3150800CF0002607047002229B101291AD002291BD0D4
S3150800CF104FF440720E490B6823F440730B600B689C
S3150800CF2013430B600A6822F078020A600A68022333
S3150800CF3003EBC00002430A60086840F480300860CA
S3150800CF4070474FF48072E5E74FF40072E2E700009D
S3150800CF50103C02401348016889050FD5016821F481
S3150800CF6000710160016841F400610160016821F403
S3150800CF7000610160016841F40071016001684905BA
S3150800CF800FD5016821F480610160016841F4805180
S3150800CF900160016821F480510160016841F48061F3
S3150800CFA001607047003C024008490A6822F4407252
S3150800CFB00A600A6842F004020A600A684FF480337D
S3150800CFC043EA002002430A6070470000103C024012
S3150800CFD0064A136823F440731360136813601368D2
S3150800CFE043F001031360017070470000103C0240D3
S3150800CFF0094910B50C6824F440740C600C6844F4B4
S3150800D00040740C600C6844F001040C600260BFF3C5
S3150800D0106F8F436010BD0000103C0240074A13683A
S3150800D02023F440731360136843F480731360136822
S3150800D03043F001031360018070470000103C024072
S3150800D040074A136823F440731360136843F40073A4
S3150800D0501360136843F00103136001607047000012
S3150800D060103C024017490868C206174805D5C26928
S3150800D07042F01002C26110220A600A68920605D5BB
S3150800D080C26942F00802C26120220A600A68520692
S3150800D09005D5C26942F00402C26140220A600A68E4
S3150800D0A0120605D5C26942F00202C26180220A60F0
S3150800D0B00A68920705D5C26942F02002C2610220B9
S3150800D0C0086070470C3C02401000002070B51149FA
S3150800D0D004460020C86100F00BFD06460E4D09E027
S3150800D0E0601C07D024B100F003FD801BA04201D9C3
S3150800D0F0032070BD2868C003F2D42868C00701D091
S3150800D10001202860286810F0F200F2D0FFF7AAFF85
S3150800D110012070BD100000200C3C024010B5012112
S3150800D1200748FFF7DDFE002809D000F00FF90028B0
S3150800D13005D1BDE8104001210148FFF7D8BE10BD52
S3150800D14068000020024606485FF000014FEAF063D7
S3150800D15052F82100491C58400729F7D370470000A8
S3150800D160A55A5AA500B587B014216846FFF796F95F
S3150800D17000200590009002200121CDE902010490CB
S3150800D1800C4800F0EAFC00F06FFB10B1012007B074
S3150800D19000BD05A9684600F0D3FA18B100F01CFBDB
S3150800D1A00220F4E700F018FB024800F0D6FC002045
S3150800D1B0EDE70000700000202DE9F04F0026DFF8AB
S3150800D1C0CC9089B035463746C84620216846FFF7D1
S3150800D1D065F9DFF8BCA0DFF8BCB054462068411CEE
S3150800D1E028D001270894584503D02A49491C884263
S3150800D1F011D12046FFF7A6FF0899C96988420AD1C6
S3150800D2001EB160680199884205D3202221466846E6
S3150800D210FFF712F9012604F1400120344945DDD90A
S3150800D2201D4C3EB3684600F03BF80198606035B186
S3150800D230404605E0002DEED1A0460125EBE748461D
S3150800D24020600099594501D1012100E000211348C9
S3150800D250C2682AB142F210739A4204D9C36004E044
S3150800D2606421C16001E0002901D000F03FF809B04F
S3150800D270BDE8F08F02F028FF0020C4E900A00FB136
S3150800D280FFF770FF00F062F8F1E7000000C0000841
S3150800D2900080000801015A473C000020F01D0020CC
S3150800D2A070B504460F4A01680F4D8068914206D151
S3150800D2B000F092F8E860606900F08EF801E0E86036
S3150800D2C06069A861E068286120696861A069C1B2DF
S3150800D2D02960C0F307216960C0F30741000EA96001
S3150800D2E0E86170BD01015A47F01D0020012101487F
S3150800D2F0FFF704BE6800002010B504462021FFF79A
S3150800D300CDF80F4820600F484068401C60600E4802
S3150800D310C168A1600169E160416921618169616152
S3150800D320017F027A090641EA02410279007841EA58
S3150800D330022101432046A161FFF704FFE06110BD09
S3150800D34002015A473C000020F01D00202DE9F0415B
S3150800D3501E4D1F4988B028682030884205D9FFF736
S3150800D36001FF00280AD11B4828606846FFF7C4FF5A
S3150800D3706E462F6800F078FA18B1012008B0BDE8AB
S3150800D380F08100244FEA040856F8242007EB8401AC
S3150800D3900023022000F02AFA18B100F01DFA022034
S3150800D3A0ECE7641C082CEFD300F016FA202231466D
S3150800D3B03846FEF7D0FF08B10320DFE70199696018
S3150800D3C02968404620312960D8E700003C00002043
S3150800D3D000C00008008000080449884202D94FF0BE
S3150800D3E0FF3070476421484370470000285C8F026D
S3150800D3F02DE9F0410446876D00F07AFB064694F85D
S3150800D40035000025022806D08020606584F834504F
S3150800D4100120BDE8F0812068016821F0160101604D
S3150800D4202068416921F080014161206C08B9A06C2F
S3150800D43020B12068016821F00801016020680168B0
S3150800D44021F0010101600CE000F052FB801B052869
S3150800D45007D920206065032084F8350084F8345005
S3150800D460D7E720680068C007EED194F85C103F2023
S3150800D4708840B860012084F8350084F834500020CC
S3150800D480C7E790F83510022903D0802141650120AD
S3150800D4907047052180F835100068016821F0010100
S3150800D4A001600020704700002DE9F84304464FF05C
S3150800D4B00009CDF8009063484FF41651A56D006831
S3150800D4C0B0FBF1F72E6894F85C10082000FA01F119
S3150800D4D031420FD021680A6852070BD50A6822F034
S3150800D4E004020A6094F85C108840A860606D40F0F9
S3150800D4F00100606594F85C104FF0010808FA01F025
S3150800D500304208D021684969090604D5A860606DCB
S3150800D51040F00200606594F85C10042088403042B0
S3150800D52008D021680968890704D5A860606D40F0AD
S3150800D5300400606594F85C1010208840304218D0CA
S3150800D54021680968090714D5A86020680168490395
S3150800D55004D50068000308D5A16C07E00168C90571
S3150800D56003D4016821F008010160216C09B1204645
S3150800D570884794F85C1020208840304231D02168D2
S3150800D5800968C9062DD5A86094F8350005282068CD
S3150800D590016806D0490347D5006800031DD4616CAD
S3150800D5A01CE021F0160101602068416921F0800124
S3150800D5B04161206C08B9A06C20B12068016821F08F
S3150800D5C00801016094F85C103F208840A86084F840
S3150800D5D0358084F83490216D1FE0E16B09B120464F
S3150800D5E08847606D00282BD0606DC00714D00520D1
S3150800D5F084F835002068016821F00101016000986F
S3150800D600401C0090B84203D820680068C007F6D1CD
S3150800D61084F8358084F83490E16C002910D001B084
S3150800D6202046BDE8F04308470168C905D5D4016816
S3150800D63021F01001016084F8358084F83490CCE735
S3150800D640BDE8F883000000202DE9F041044600F00B
S3150800D6504FFA06465CB1022084F83500002584F8A6
S3150800D66034502068016821F0010101600DE00120B5
S3150800D670BDE8F08100F03CFA801B052805D920207A
S3150800D6806065032084F83500F2E720680068C00763
S3150800D690F0D12268116820480140D4E901031843F3
S3150800D6A0D4E903363343184363691843A369184317
S3150800D6B0E3691843236A18430843616A042903D1B6
S3150800D6C0D4E90B1319430843106020684069666A59
S3150800D6D020F0070130460E43012704280CD1A06A22
S3150800D6E00643E06A40B12046FFF7D6FA20B140204B
S3150800D6F0606584F83570BAE7206846612046FFF70A
S3150800D700B7FA94F85C203F2191408160656584F8FA
S3150800D71035700020ACE700003F8010F070B5044675
S3150800D72000F0E6F90546601C02D004480078044477
S3150800D73000F0DEF9401BA042FAD370BD04000020B9
S3150800D7402DE9F047044622480F46017E01290AD0F2
S3150800D7500121804601764CF250394846FFF7B6FC5F
S3150800D760020003D02FE00220BDE8F0874FF0FF301B
S3150800D77038602068174D012801D0A6681CE0207C77
S3150800D7806168FFF711FC4846FFF7A0FC02462868C7
S3150800D79020F00400286014E0217C3046FFF7B2FB35
S3150800D7A04846FFF793FC0200286820F07A002860B4
S3150800D7B001D03E6005E0761CD4E902100844B04268
S3150800D7C0EAD8FFF7C7FB002188F818101046CBE700
S3150800D7D010000020103C02400348016841F0004157
S3150800D7E00160002070470000103C02402DE9F04718
S3150800D7F01B4E05461446307E1F468946012808D02A
S3150800D800012030764CF250384046FFF75FFC18B1DD
S3150800D81014E00220BDE8F0879DB1012D16D0022D37
S3150800D82019D022463B464846FFF7E2FB4046FFF73B
S3150800D8304DFC0C490A6822F001020A600021317683
S3150800D840E8E7E1B24846FFF7C3FBEFE7A1B248466F
S3150800D850FFF7E4FBEAE721464846FFF7F1FBE5E771
S3150800D86010000020103C0240074900200A68002AE0
S3150800D87009DA054A054B0C3A1360054B136009682B
S3150800D880002900DA01207047103C02402301674551
S3150800D890AB89EFCD0A494FF6FF72082808D0102841
S3150800D8A005D14888904202D24888401C4880704773
S3150800D8B008889042FBD20888401C08807047000000
S3150800D8C044000020044910B50A68024202D00860E4
S3150800D8D0FFF7E0FF10BD0000143C01402DE9F84FAA
S3150800D8E0DFF8BCA10022012503264FF00F090AF133
S3150800D8F0040BAAF1040E00BF0B6805FA02F42340D4
S3150800D900A34270D10F7907F00307012F01D0022F28
S3150800D91016D187684FEA420806FA08FC27EA0C0778
S3150800D920D1F80CC00CFA08FC4CEA070CC0F808C081
S3150800D9304768A7430C79C4F3001494403C434460F9
S3150800D9400C79E443A4070AD0C4684FEA420C06FAE5
S3150800D9500CF7BC438F6807FA0CF72743C7600C79A6
S3150800D96004F00304022C12D1D40800EB840CDCF872
S3150800D97020405707FF0E09FA07F824EA0804D1F8E9
S3150800D980108008FA07F848EA0408CCF820800468EA
S3150800D9904FEA420C06FA0CF7BC430F7907F0030767
S3150800D9A007FA0CF7274307604C6814F4403F70D019
S3150800D9B03C4C276847F480472760246822F0030711
S3150800D9C004F480440094384C07EB040CDCF808484F
S3150800D9D097074FEA177809FA08F7BC43334FB84256
S3150800D9E002D1002724E054E0314FB84201D1012783
S3150800D9F01EE0304FB84201D1022719E02E4FB84237
S3150800DA0001D1032714E02D4FB84201D104270FE0B6
S3150800DA102B4FB84201D105270AE02A4FB84201D157
S3150800DA20062705E0284FB84201D1072700E0082756
S3150800DA3007FA08F72743CCF80878DAF8004057467B
S3150800DA40D1F804C09C435FEACC2C00D51C433C604B
S3150800DA50DBF800405F46D1F804C09C435FEA8C2C93
S3150800DA6000D51C433C60DEF800407746D1F804C078
S3150800DA709C435FEA8C3C00D51C433C60084F083F3A
S3150800DA803C68D1F804C09C435FEACC3C00D51C43F3
S3150800DA903C60521C102AFFF42FAFBDE8F88F000037
S3150800DAA0083C014044380240003001400000024072
S3150800DAB00004024000080240000C02400010024028
S3150800DAC00014024000180240001C02400069084089
S3150800DAD000D001207047426921EA02030A4043EA5E
S3150800DAE00241816170470AB1816170470904FBE709
S3150800DAF001488068704700000400002070B50400E3
S3150800DB0013D021684CF6CC400860216845F2555080
S3150800DB100860D4E9000141602168A0688860FFF7C1
S3150800DB20E7FF054641F601060DE0012070BD00BF7E
S3150800DB30FFF7DEFF401BB04205D92068C0688007A2
S3150800DB4001D0032070BD2068C0688007F0D1216825
S3150800DB504AF6AA200860002070BD00684AF6AA2185
S3150800DB60016000207047000002488168027811446D
S3150800DB7081607047040000200B4810B5016841F425
S3150800DB8000710160016841F480610160016841F437
S3150800DB9080710160032000F06FF80F2000F006F88E
S3150800DBA000F024F8002010BD003C024070B50D4D71
S3150800DBB004464FF47A712878B1FBF0F00A490968EF
S3150800DBC0B1FBF0F000F01AFB48B9102C07D200227E
S3150800DBD02146501E00F030F800206C6070BD012010
S3150800DBE070BD000004000020000000200A4808B5A7
S3150800DBF0016841F480410160006800F480400090AB
S3150800DC000548001F016841F080510160006800F076
S3150800DC108050009008BD000044380240002809DB07
S3150800DC2000F01F02012191404009800000F1E02028
S3150800DC30C0F8001170470000F0B40E4B1B680C4684
S3150800DC40C3F30223C3F10705042D00D90425191DC2
S3150800DC50072901D2002300E0DB1E012606FA05F19A
S3150800DC60491E214099409E40761E16403143F0BC1D
S3150800DC7003F051B80CED00E0064900F00702086809
S3150800DC804FF6FF03184040EA0220034A1043086093
S3150800DC90704700000CED00E00000FA05034908B5DE
S3150800DCA00120086202480068009008BD00000E4284
S3150800DCB0007000402DE9F0470E46050065D0DFF8F4
S3150800DCC01481D8F80000F7B200F00700B04207D276
S3150800DCD088F80070D8F8000000F00700B04254D168
S3150800DCE028683D4C810712D5400703D5206840F4C3
S3150800DCF0E05020602878000703D5206840F460408B
S3150800DD0020602068A96820F0F00008432060287881
S3150800DD10C0072DD0304968680839012812D0022872
S3150800DD2013D0032811D00968890700292DDA21683C
S3150800DD3021F0030101432160FFF7DAFE814641F233
S3150800DD40883A0EE009688903EFE709688901ECE774
S3150800DD50FFF7CEFEA0EB0901514502D90320BDE825
S3150800DD60F0872068696800F00C00B0EB810FEFD1EE
S3150800DD70D8F80010404601F00701B14207D90770EC
S3150800DD80006800F00700B04201D00120E7E72878D4
S3150800DD90400705D52068E96820F4E050084320606C
S3150800DDA02878000706D52068296920F4604040EAEB
S3150800DDB0C100206000F038F82168084AC1F3031151
S3150800DDC0515CC8400649086006480068FFF7EEFE41
S3150800DDD00020C4E7003C0240083802406C0D0108E8
S3150800DDE0000000200800002004480549006809686A
S3150800DDF0044AC1F38221515CC840704700000020E4
S3150800DE00083802407C0D010804480549006809687D
S3150800DE10044AC1F34231515CC840704700000020F3
S3150800DE20083802407C0D0108154810B5006810F046
S3150800DE300C02144813D01449042A0FD0082A0ED10C
S3150800DE400F4C241F2268236802F03F025B0207D5A5
S3150800DE502068C0F38810A0FB010106E0084610BD43
S3150800DE602168C1F38811A1FB00010023FEF7FCF924
S3150800DE702168C1F30141491C4900B0FBF1F010BD0E
S3150800DE80083802400024F40040787D012DE9F84F57
S3150800DE90040070D02078DFF85093C007A9F1040574
S3150800DEA04CD009F104000168C1F38101012908D0A9
S3150800DEB00068C0F3810002280AD1D9F800004002A0
S3150800DEC006D52868800339D560680028E1D035E092
S3150800DED06068B0F5803F12D0B0F5A02F286812D040
S3150800DEE020F480302860286820F480202860606844
S3150800DEF04FF4FA67A8B1FFF7FBFD06460DE0286860
S3150800DF0040F48030F2E740F480202860F7E700BF4D
S3150800DF10FFF7EEFD801BB84273D828688003F7D553
S3150800DF200CE0FFF7E5FD064605E000BFFFF7E0FD5C
S3150800DF30801BB842F0D828688003F7D42078DFF829
S3150800DF40AC8280074FF0000A3ED5A748001D01683D
S3150800DF5011F00C0F08D00068C0F3810002280BD11D
S3150800DF60D9F80000400207D42868800716D5E0686B
S3150800DF70012800D112E033E1E068B8B10120C8F801
S3150800DF800000FFF7B5FD064605E000BFFFF7B0FD48
S3150800DF90801B0228C0D828688007F7D52868216919
S3150800DFA020F0F80040EAC10028600DE0C8F800A09B
S3150800DFB0FFF79EFD064604E0FFF79AFD801B022840
S3150800DFC01FD828688007F7D42078000722D5864E00
S3150800DFD087486169703671B101210160FFF788FDD4
S3150800DFE0074604E0FFF784FDC01B022809D83068FD
S3150800DFF08007F7D50EE0C0F800A0FFF779FD0746C1
S3150800E00005E082E0FFF774FDC01B02287DD8306862
S3150800E0108007F7D42078400768D5DFF8CCB1002709
S3150800E0200BF13C0BDBF80000C0000BD4DBF800104A
S3150800E03041F08051CBF80010DBF80000012700F012
S3150800E040805000906B4E3068C00510D4306840F49C
S3150800E05080703060FFF74CFD009005E0FFF748FD43
S3150800E0600099401A022850D83068C005F6D55E4E89
S3150800E070A0686C3601280FD00528306810D020F02B
S3150800E08001003060306820F004003060A068B8B144
S3150800E090FFF72EFD00900FE0306840F00100F4E72E
S3150800E0A040F004003060F7E7FFF722FD0099411AB7
S3150800E0B041F28830814266D830688007F4D50EE090
S3150800E0C0FFF716FD009007E0FFF712FD0099411AC9
S3150800E0D041F28830814256D830688007F4D42FB18F
S3150800E0E0DBF8001021F08051CBF80010A069C8B306
S3150800E0F03D49091D0968C1F3810102294AD0022850
S3150800E100504607D0C8F8600000E03CE0FFF7F0FC96
S3150800E11004463BE04746C8F86000FFF7E9FC0646B8
S3150800E12005E000BFFFF7E4FC801B02282BD828680F
S3150800E1308001F7D4D4E907010843A16A2E4A4908A1
S3150800E14002EB0141626A41EA8211084394F82C10F5
S3150800E15040EA0161C9F8001001203866FFF7C8FCDB
S3150800E160044606E03EE000BFFFF7C2FC001B02289B
S3150800E17009D828688001F7D534E000BFFFF7B8FC56
S3150800E180001B022802D90320BDE8F88F2868800101
S3150800E190F4D427E00128F7D0D9F80000E26900F4A2
S3150800E1A0800191421CD1226A00F03F01914217D1A9
S3150800E1B047F6C071626A0140B1EB821F10D1A26AAC
S3150800E1C04FF0FF3300F4403103EB5202B1EB024F3C
S3150800E1D006D194F82C1000F07060B0EB016F01D0F6
S3150800E1E00120D1E70020CFE704380240000047426B
S3150800E1F0800E4742007000400000FFFF10B5401E29
S3150800E200B0F1807F01D3012010BD4FF0E02460619A
S3150800E2100F21601702F07FFD0020A0610720206112
S3150800E220002010BD7047704710B590F83C20012AB1
S3150800E23022D0012280F83C20CA688C6822F44072F9
S3150800E24022434C6822F4806222430C6822F400625E
S3150800E25022430C6922F4805222434C6922F400526C
S3150800E2602243C969002322F480420A4301684A64AA
S3150800E27080F83C30002010BD022010BD70B590F823
S3150800E2803C20012A32D0012480F83C40022280F842
S3150800E2903D2003685A689D6822F070060A68324372
S3150800E2A05A60134B02689A4214D0B2F1804F11D0CB
S3150800E2B0104B9A420ED0104B9A420BD00F4B9A42F3
S3150800E2C008D00F4B9A4205D00E4B9A4202D00E4BFD
S3150800E2D09A4204D1496825F080031943916080F871
S3150800E2E03D40002180F83C10084670BD022070BDF4
S3150800E2F0000001400004004000080040000C0040F7
S3150800E30000040140004001400018004010B5040018
S3150800E31003D094F83D0010B107E0012010BD00209D
S3150800E32084F83C00204600F01FF8022084F83D00DF
S3150800E330211D206802F0A4F8012084F8460084F81C
S3150800E3403E0084F83F0084F8400084F8410084F8D1
S3150800E350420084F8430084F8440084F8450084F8B1
S3150800E3603D00002010BD000038B505463A4903684F
S3150800E37000203A4A8B4205D1106840F0010010602F
S3150800E380106838E03549091FB3F1804F2ED0344C58
S3150800E390A34234D10A6842F002020A600968324C84
S3150800E3A001F0020100912F4921604FF02061616060
S3150800E3B04021C4E90210090121614900616189000F
S3150800E3C0C4E90610206260622046FFF73DF908B1ED
S3150800E3D0FEF784FDAC62002211461D20A563FFF7F7
S3150800E3E02BFCBDE838401D20FFF718BC086840F034
S3150800E3F001000860086800F00100009038BD1B485D
S3150800E400834207D1086840F008000860086800F0F1
S3150800E4100800F2E71648834207D1086840F0200052
S3150800E4200860086800F02000E7E71248834207D131
S3150800E430106840F480301060106800F48030DCE723
S3150800E4400D488342DAD1106840F400301060106835
S3150800E45000F40030D1E700000000014044380240D3
S3150800E460000400408860024074020020000C00404E
S3150800E47000140040004001400044014070B50446C5
S3150800E48090F83C000025012817D0012684F83C6046
S3150800E490022084F83D002068826822F0770222F480
S3150800E4A07F4282600868502838D00DDC20284FD07B
S3150800E4B005DC90B3102811D14AE0022070BD30283F
S3150800E4C046D040280AD13BE060282FD070280DD0CE
S3150800E4D0B0F5805F03D0B0F5005F12D0012584F84F
S3150800E4E03D60002084F83C00284670BDCB68D1E921
S3150800E4F00121206802F039F82068816841F0770127
S3150800E50009E0CB68D1E90121206802F02EF82068DD
S3150800E510816841F480418160E1E719E0CA68496889
S3150800E520206802F0F7F85021206806E0CA684968B2
S3150800E530206802F000F96021206802F020F8CEE792
S3150800E540CA684968206802F0E5F840212068F4E7BF
S3150800E550226801461046F0E770472DE9F041044667
S3150800E5600068C66805694FF00007A90713D5B10703
S3150800E57011D5F91E0161012020772068806980077E
S3150800E580204602D0FFF7E8FF04E000F013F9204622
S3150800E59000F0A5F92777680716D5700714D52168FE
S3150800E5A06FF004000861022020772068806910F463
S3150800E5B0407F204602D0FFF7CFFF04E000F0FAF8CC
S3150800E5C0204600F08CF92777280715D5300713D58C
S3150800E5D021686FF008000861042020772068C06968
S3150800E5E08007204602D0FFF7B7FF04E000F0E2F804
S3150800E5F0204600F074F92777E80616D5F00614D5F4
S3150800E60021686FF010000861082020772068C0692B
S3150800E61010F4407F204602D0FFF79EFF04E000F08A
S3150800E620C9F8204600F05BF92777E80708D0F00715
S3150800E63006D021686FF001000861204600F01AFA3A
S3150800E640280608D5300606D521686FF080000861CF
S3150800E6502046FFF7E7FD680608D5700606D5216847
S3150800E6606FF040000861204600F005FAA8060AD5B2
S3150800E670B00608D521686FF0200008612046BDE87D
S3150800E680F041FFF7D0BDBDE8F0810000F0B587B0D6
S3150800E690044614216846FDF701FF24683B48002319
S3150800E6A03B49022201253B4E844210D1086840F0BE
S3150800E6B0100008600868694600F0100005904FF4DD
S3150800E6C0D4408DE80D00CDE90335304624E03248C4
S3150800E6D0B4F1804F12D0314F0325BC4220D10868CF
S3150800E6E040F0040008600868694600F004000590D8
S3150800E6F080208DE82D002A4804920DE00C6844F02D
S3150800E70001040C6009680095CDE9012301F00101B7
S3150800E710CDE90451039313E0FFF7E0F807B0F0BD25
S3150800E720204FBC420ED10C6844F001040C60096805
S3150800E73001F0010105910E218DE80E000392049265
S3150800E7406946E9E7184884420DD1086840F0100088
S3150800E75008600868694600F01000059060208DE89A
S3150800E7600D0030460FE011488442D7D1086840F0C2
S3150800E770020008600868694600F002000590A015C6
S3150800E7808DE80D000A48CDE90325C5E700000140DC
S3150800E79030380240001002400000024000040040E9
S3150800E7A000080240000C00400040014000440140BF
S3150800E7B000040240704770B5044690F83C000026F5
S3150800E7C00D4601280FD0012084F83C006AB1042ABE
S3150800E7D01DD0082A2FD00C2A3FD00126002084F805
S3150800E7E03C00304670BD022070BD206801F0D0FEA6
S3150800E7F02068816941F0080181612068816921F0FA
S3150800E80004018161206881692A69114311E0206841
S3150800E81001F0EEFE2068816941F40061816120689B
S3150800E820816921F480618161206881692A6941EAE8
S3150800E83002218161D2E7206801F010FF2068C169D2
S3150800E84041F00801C1612068C16921F00401C16174
S3150800E8502068C1692A69114311E0206801F032FF76
S3150800E8602068C16941F40061C1612068C16921F469
S3150800E8708061C1612068C1692A6941EA0221C161D2
S3150800E880ACE710B5040003D094F83D0010B107E0DA
S3150800E890012010BD002084F83C00204600F01EF838
S3150800E8A0022084F83D00211D206801F0E9FD0120C1
S3150800E8B084F8460084F83E0084F83F0084F8400057
S3150800E8C084F8410084F8420084F8430084F8440040
S3150800E8D084F8450084F83D00002010BD7047704755
S3150800E8E010B50446022249B104290ED0082913D0CE
S3150800E8F094F84100012816D0012010BD94F83E0076
S3150800E9000128F9D184F83E200FE094F83F00012849
S3150800E910F2D184F83F2008E094F840000128EBD1B2
S3150800E92084F8402001E084F841200122206801F0A3
S3150800E9300FFE16492068164A884201D0904203D134
S3150800E940436C43F4004343642068884213D0B0F113
S3150800E950804F10D00F4988420DD00F4988420AD0FF
S3150800E9600E49884207D0904205D00D49884202D008
S3150800E9700C49884204D1816801F00701062903D0B1
S3150800E980016841F001010160002010BD000001404E
S3150800E990000401400004004000080040000C00404C
S3150800E9A0004001400018004070B50D0004464FF0C5
S3150800E9B0000607D0042D0CD0082D11D00C2D16D02A
S3150800E9C0012648E02068C16821F40071C160606AC8
S3150800E9D013E02068C16821F48061C160A06A0CE078
S3150800E9E02068C16821F40061C160E06A05E020681A
S3150800E9F0C16821F48051C160206BFEF742FD0022F8
S3150800EA002946206801F0A4FD184B41F2111120682F
S3150800EA108A10984202D0164B984209D1036A0B42D3
S3150800EA2006D1036A134203D1436C23F400434364BB
S3150800EA302068036A0B4206D1016A114203D10168B4
S3150800EA4021F00101016001203DB1042D08D0082DF7
S3150800EA5009D084F84100304670BD84F83E00FAE7D4
S3150800EA6084F83F00F7E784F84000F4E70000014027
S3150800EA70000401407047704770477047F8B5016851
S3150800EA8004460868CA684B6910F00F0F4FF0000576
S3150800EA905AD003F0010602F49077374365D0C107D0
S3150800EAA005D0D10503D5616C41F0010161644107C8
S3150800EAB005D5D90703D0616C41F00201616481076D
S3150800EAC005D5D90703D0616C41F0040161640107DB
S3150800EAD007D502F02001314303D0616C41F00801EB
S3150800EAE06164616C00293BD0800604D5900602D586
S3150800EAF0204601F060FE20684069616CC0F3801012
S3150800EB0001F00801014320462BD001F02DFE2068B4
S3150800EB104069400621D52068143050E8001F21F0CE
S3150800EB20400140E80012002AF5D1E06BA8B172490D
S3150800EB300165E06BFEF7A5FC002811D0E06B016DBE
S3150800EB4001B0BDE8F040084783060ED593060CD5FC
S3150800EB502046BDE8F84001F02EBE2046FFF78DFF9F
S3150800EB60F8BDFFF78AFF6564F8BD266B2023012EE2
S3150800EB707ED1C6067CD5D6067AD508684868009040
S3150800EB8048694FF0020640064DD5E26B10684068AA
S3150800EB904FF480770004000C3AD0A18D814237D912
S3150800EBA0E085D069B8422DD020680C3050E8001FA7
S3150800EBB021F4807140E80012002AF5D1206814304B
S3150800EBC050E8001F21F0010140E80012002AF5D1A3
S3150800EBD02068143050E8001F21F0400140E8001278
S3150800EBE0002AF5D184F84230256320680C3050E8B5
S3150800EBF0001F21F0100140E80012002AF5D1E06B51
S3150800EC00FEF7F6FB6663A08DE18D401A81B206E039
S3150800EC10A18D8142A8D1D069B842A5D166632046A4
S3150800EC20FFF72AFFF8BDA08DE18D401A81B2E08D6D
S3150800EC300028F7D00029F5D020680C3050E8002FBE
S3150800EC4022F4907240E80027002FF5D1206814308E
S3150800EC5050E8002F22F0010240E80027002FF5D1E6
S3150800EC6084F84230256320680C3050E8002F00E015
S3150800EC7006E022F0100240E80023002BF3D1CDE78E
S3150800EC8005062BD5150629D594F841002128C9D1A2
S3150800EC90A068B0F5805F01D12069B0B1206A411C37
S3150800ECA02162216800784860E08C401E0004000C50
S3150800ECB0E084B7D12068C16821F08001C16020686E
S3150800ECC0C16841F04001C160F8BD206A0088C0F300
S3150800ECD008004860206A801C2062E5E74006F3D5F4
S3150800ECE05006F1D5CA68204622F04002CA6084F868
S3150800ECF0413000F01BF9F8BD5B07010870B5040048
S3150800ED0004D094F84100002510B106E0012070BD3A
S3150800ED1084F84050204600F023F8242084F8410067
S3150800ED202068C16821F40051C160204601F0A4FDA5
S3150800ED302068016921F4904101612068416921F048
S3150800ED402A0141612068C16841F40051C1606564C7
S3150800ED50202084F8410084F842006563002070BDD5
S3150800ED6070B586B0044614216846FDF797FB2B4E0E
S3150800ED70226800212A48022303240725B24222D109
S3150800ED80274A1432166846F010061660126802F012
S3150800ED9010020592026842F001020260006802AAA7
S3150800EDA000F00100059082E832006002CDE9000318
S3150800EDB069461C48FEF792FD002211462520FEF7FB
S3150800EDC03BFF252025E0184EB24224D1144A1032C2
S3150800EDD0166846F480261660126802F480220592A8
S3150800EDE0026842F002020260006802AA00F002000D
S3150800EDF0059082E832004FF44060CDE90003694689
S3150800EE000A48FEF76BFD002211462720FEF714FF7D
S3150800EE102720FEF703FF06B070BD00000010014072
S3150800EE20303802400000024000480040000402401A
S3150800EE3090F84230202B01D00220704721B11AB138
S3150800EE400023036301F09EBD0120704710B50D4AEB
S3150800EE5004469068A0420DD192F83C100948126AFF
S3150800EE600C309047074920460122BDE810403C3146
S3150800EE70FFF7DEBF0448844203D1BDE81040FDF722
S3150800EE806BBC10BD001D00201C0300202DE9F843B3
S3150800EE90044690F84100984616460D46202802D0AA
S3150800EEA00220BDE8F88385B17EB100206064212088
S3150800EEB084F84100FEF71CFEA6848146E684A06815
S3150800EEC02027B0F5805F02D003E00120E9E720693A
S3150800EED010B12E4600250EE000260CE080212046C3
S3150800EEE001F06BFDA8B9C6B116F8010B2168486098
S3150800EEF0E08C401EE084E08C4B464FF00002CDF8D3
S3150800EF0000800028EAD14FF04001204601F055FD67
S3150800EF1040B184F841700320C3E735F8020BC0F30B
S3150800EF200800E3E784F841700020BAE77047FEE777
S3150800EF3010B500210C46EFF3108272B61648038806
S3150800EF401BB10188491E0180012143881BB14388F2
S3150800EF505B1E4380012402B962B661B10F48FDF712
S3150800EF60FEFA00F043FF01210D48FDF7C7FF4021D7
S3150800EF700B48FDF7C3FF002C0CD00A48FDF7EFFA43
S3150800EF8004210748FDF7BAFFBDE8104040210448B0
S3150800EF90FDF7B4BF10BD000044000020701D00201E
S3150800EFA06C000020A01D00202DE9F04F87B000243A
S3150800EFB0314DCDE90354059401264FF00F084FF45F
S3150800EFC04877CDF800800694DFF8B0A0CDE9017641
S3150800EFD0B303524621462A4800F05AF828497303D3
S3150800EFE001F1B409A9F17800C9F80010CDE9035474
S3150800EFF00594CDF800800694CDE9017652460121A4
S3150800F000834600F045F8C9F804B0CDE903540594E1
S3150800F010CDF800800694CDE90176A9F13C003303CA
S3150800F02052460221054600F033F8C9F8085009F19E
S3150800F0300C051449F0032960A8800227AC71FEF775
S3150800F04057FDC5E90207104D2C706C70AC70EE7058
S3150800F0502C71FF206871FEF74BFD6861AC710122C7
S3150800F06005F10D010948FFF7E3FE07B03E20BDE8AC
S3150800F070F04FFDF7B9BB0000B9CE0008000C0240FE
S3150800F080101E002000100240480000201C0300202B
S3150800F0902DE9F0470400DDE90DA5DDE90B96DDE96C
S3150800F0A009C7DDF820801BD0218062602381CDB19D
S3150800F0B00020A072E072C4E9038CFEF719FD6061B6
S3150800F0C0FEF716FDA0610020E06184F82000FEF737
S3150800F0D00FFD2434A4E8810264E80C6A84F83850E9
S3150800F0E0BDE8F0870120E4E72DE9F0410F46050069
S3150800F0F078D00024A04694E055F82400002872D061
S3150800F10001894068FEF7E2FC55F82410C872FEF73C
S3150800F110EFFC064655F82400C27A90F838108A4261
S3150800F12004D1837A8B4201D0466174E08A423CD08E
S3150800F130837A8B4239D1866155F82410486986420C
S3150800F14001D3301A02E0C043401C3044C86155F868
S3150800F1502400C268C169914224D390F8201011B1E5
S3150800F16002290ED057E0012180F8201055F8240016
S3150800F170C16A09B10088884755F8241081F82080AB
S3150800F18007E080F8208055F82400416B09B1008813
S3150800F190884755F824008169416155F8240081693A
S3150800F1A0416238E08169416135E08A4231D141697D
S3150800F1B0711AC16155F82400026991422BD390F85F
S3150800F1C0201011B102290FD025E0022180F8201065
S3150800F1D055F82400016B09B10088884755F82400C2
S3150800F1E0466218E020E01AE0816A79B14FF47A7233
S3150800F1F0B2FBF1F1426AB21A91420CD8466255F84E
S3150800F2002400016B39B10088884704E04FF0FF31CC
S3150800F210F0E780F8208055F82400C17A8172641CD2
S3150800F220A4B2BC42FFF468AFBDE8F08110B5032173
S3150800F2300548FFF759FF04480C3000F0DDFCBDE82F
S3150800F2401040FDF7E5BA0000C41E0020F0B50346DD
S3150800F2500D46408919891446884201D30220F0BD1B
S3150800F2602946184600F062F808B10120F0BD0020D2
S3150800F270024605211E8908E000EB400C1F6801EBD9
S3150800F2808C0C17F80C7027B1401C8642F4DC03205E
S3150800F290F0BD00EB40001F6801EB800101267E549B
S3150800F2A0196811EB8000F2D0057104608260596814
S3150800F2B011B9586004E011468A68002AFBD18860B3
S3150800F2C05889401C58810020F0BD0160002141602A
S3150800F2D002814181704710B54489426800230CBBFE
S3150800F2E0022010BD14798C421AD19168B3B1996085
S3150800F2F00368D11A0C2291FBF2F1002909DB028975
S3150800F3008A4206DD002201EB4101052404EB810156
S3150800F3105A544189491E4181002010BD4160E7E7E2
S3150800F32013469268002ADDD1012010BD406805E029
S3150800F33002798A4201D10120704780680028F7D1F6
S3150800F340704700002DE9F04F87B014216846FDF795
S3150800F350A5F86C480024016841F0100101600168B5
S3150800F36001F010010591016841F00401016001688E
S3150800F37001F004010591016841F08001016001680E
S3150800F38001F080010591016841F001010160016801
S3150800F39001F001010591016841F00201016001686F
S3150800F3A001F002010591016841F008010160006859
S3150800F3B0DFF8548100F00800012205905103404609
S3150800F3C0FEF791FB00224FF448414046FEF78BFBBF
S3150800F3D0DFF838B1002210215846FEF784FB0122D7
S3150800F3E0D60331465846FEF77EFBDFF8249140F2F5
S3150800F3F00247002239464846FEF775FBDFF814A196
S3150800F4000022F1105046FEF76EFB0122910350468A
S3150800F410FEF769FB4FF4684000900125CDE90154D9
S3150800F420694640460394FEF759FA40F20130CDE9A1
S3150800F4300004694640460294FEF750FACDE9006496
S3150800F440694648460294FEF749FA182000904FF498
S3150800F4508810CDE90104304E69463046FEF73EFA7B
S3150800F46048F210000090CDE90154694658460394C5
S3150800F470FEF734FA7E20CDE9000469465046029428
S3150800F480FEF72CFA4FF4C070CDE9000469464846E9
S3150800F4900294FEF723FA0097CDE9015469464846D7
S3150800F4A00394FEF71BFA4FF4A0400090CDE90154EF
S3150800F4B0694650460394FEF711FA47F6E770CDE918
S3150800F4C00004694630460294FEF708FA2802CDE998
S3150800F4D00004694658460294FEF700FA0022022103
S3150800F4E00920FEF7A9FB0920FEF798FB0022022156
S3150800F4F00A20FEF7A1FB0A20FEF790FB07B0BDE83D
S3150800F500F08F000030380240000802400000024038
S3150800F5100010024000040240000C0240094810B5E1
S3150800F520074901600521416040F6B8318160FEF760
S3150800F530E5FA002803D0BDE81040FDF7CFBC10BDA2
S3150800F540003000407000002010B596B000240F94DB
S3150800F55010941194129413941C2168461494FCF781
S3150800F5609DFF202107A8FCF799FF34483249C0E9D6
S3150800F57000144FF6FF71C0E9024180210461C0E919
S3150800F5800541FEF7C3FE08B1FDF7A8FC4FF480500D
S3150800F5900F900FA92948FEF771FF08B1FDF79EFCE9
S3150800F5A02648FFF76EF908B1FDF798FC139413A9DE
S3150800F5B022481494FEF762FE08B1FDF78FFC60201E
S3150800F5C0CDE9000402940394049405940022694644
S3150800F5D01A480694FFF7EFF808B1FDF77FFC0422F6
S3150800F5E069461648FFF7E7F808B1FDF777FC0822E1
S3150800F5F069461248FFF7DFF808B1FDF76FFC0C22E1
S3150800F60069460E48FFF7D7F808B1FDF767FC079477
S3150800F610089409944FF400500A94CDE90B4007A9C1
S3150800F62006480E94FEF700FE08B1FDF757FC03489E
S3150800F630FFF72CF816B010BD000001407C00002032
S3150800F6400C4810B50A4901604FF4E13141600021C8
S3150800F65081600C22C160C0E904128161C161FFF7B3
S3150800F6604DFB002803D0BDE81040FDF737BC10BDA0
S3150800F67000100140D40200200E4810B50C49016064
S3150800F6804FF4165141604FF48051816000214FF4C8
S3150800F6908062C0E903120C22C0E90521C161FFF7A7
S3150800F6A02DFB002803D0BDE81040FDF717BC10BDA0
S3150800F6B0004800401C03002010B5FDF713FA1C484B
S3150800F6C0FEF74BFAFFF7B2FD1948FEF746FAFFF7C1
S3150800F6D02FFC1748FEF741FAFDF720FD1448FEF700
S3150800F6E03CFA00F06BFCFDF71BFA1148FEF735FAF9
S3150800F6F0FDF714FD0E48FEF730FA00F083F80C48C3
S3150800F700FEF72BFAFEF7F4F90A4C2168401AB0F511
S3150800F710FA7F07D94FF400510748FEF7DCF9FEF7E0
S3150800F720E7F92060BDE810400148FEF716BA000068
S3150800F73070000020640000200008024010B513483D
S3150800F740FDF7D9FB1248FDF7D6FBFDF735FDFDF7AA
S3150800F750CFFAFDF751F9FFF727FC00F005FB00F09B
S3150800F760E7FB00F0E9FA60B100F0E6FA40F6B831D6
S3150800F770884209D84FF40041BDE810400348FDF718
S3150800F780BDBB4FF48031F7E710BD00006C000020C8
S3150800F790680000200A480078A0F140010F2902D825
S3150800F7A0491CC9B200E00021064A1278120642EA4C
S3150800F7B0004040EA012004490978084370470000E0
S3150800F7C0520000205400002053000020FEE70000ED
S3150800F7D02DE9F0410A484468FEF78AF9064641F2DF
S3150800F7E0883709E02068A568301AB84203D9217914
S3150800F7F00348FFF770FD2C46002CF3D1BDE8F081D5
S3150800F800700300202DE9FC410121AF48FDF768FB94
S3150800F810002450B101231A460021AC480094FDF794
S3150800F82096F80121A848FDF762FB0421A648FDF7D2
S3150800F83057FB50B1012303220021A4480094FDF789
S3150800F84086F80421A048FDF752FB02219E48FDF7E1
S3150800F85047FB50B10123022200219C480094FDF782
S3150800F86076F802219848FDF742FB08219648FDF7ED
S3150800F87037FB974E974D70B1FFF78CFF03463078EC
S3150800F880CDE90005042200219048FDF785F80821F6
S3150800F8908D48FDF72CFB4FF4007739468A48FDF76B
S3150800F8A01FFB68B1FFF776FF0346307800901222F7
S3150800F8B000218648FDF74BF839468348FDF717FBC4
S3150800F8C04FF4806739468048FDF70AFB50B100942B
S3150800F8D03378132200217D48FDF739F839467A48EE
S3150800F8E0FDF705FB4FF4006739467748FDF7F8FA48
S3150800F8F078B100F033FA064600F018FA03462022DB
S3150800F900002172480096FDF722F839466E48FDF741
S3150800F910EEFA4FF4805631466B48FDF7E1FA60B1CE
S3150800F92000F00AFA03462122002168480094FDF7F0
S3150800F9300EF831466448FDF7DAFA4FF400563146B8
S3150800F9406148FDF7CDFA60B100F002FA03462222BB
S3150800F95000215E480094FCF7FAFF31465A48FDF745
S3150800F960C6FA4FF4804631465748FDF7B9FA60B1F2
S3150800F97000F0E8F903462322002154480094FCF7D6
S3150800F980E6FF31465048FDF7B2FA4FF400463146D5
S3150800F9904D48FDF7A5FA68B100F0CEF903462422D2
S3150800F9A000214A48CDE90045FCF7F6FF31464648AE
S3150800F9B0FDF79DFA4FF4803631464348FDF790FA35
S3150800F9C068B100F0C5F90346252200213F48CDE974
S3150800F9D00045FCF7E1FF31463B48FDF788FA4FF44E
S3150800F9E0003631463848FDF77BFA68B100F0A4F9CD
S3150800F9F00346262200213548CDE90045FCF7CCFF11
S3150800FA0031463148FDF773FA40212F48FDF768FA69
S3150800FA10314E324F68B130883988052240EA0143B1
S3150800FA2000212A480094FCF792FF40212648FDF75A
S3150800FA305EFA10212448FDF753FA58B1CDE900457E
S3150800FA403B88072200212148FCF7A6FF10211E4803
S3150800FA50FDF74DFA20211C48FDF742FA58B1CDE9C9
S3150800FA6000453388082200211848FCF795FF202115
S3150800FA701548FDF73CFA80211348FDF731FA50B1D5
S3150800FA8000230D22194611480094FCF760FF8021D7
S3150800FA900D48FDF72CFA4FF4807631460A48FDF7F3
S3150800FAA01FFA58B100220E4B11460848CDE9004509
S3150800FAB0FCF772FF31460448FDF719FA00F0D4FA4C
S3150800FAC0BDE8FC41FFF784BE6C000020EC1C00205A
S3150800FAD05400002064030020A01D0020701D002093
S3150800FAE00001010110B50468002061B104290CD099
S3150800FAF008290CD0206463B1042B0DD01168082B9B
S3150800FB000DD0086410BD6063F5E7A063F3E7E06312
S3150800FB10F1E71168486310BD1168886310BDC863B2
S3150800FB2010BDF0B5C568DDE9057C64267D43B5FBE7
S3150800FB30F6F500240068BCF1000FADB20DD041B354
S3150800FB40042928D0082928D0046443B3042B29D0D3
S3150800FB501068082B29D00564F0BD61B104290CD0C2
S3150800FB6008290CD0056463B1042B0DD01068082B46
S3150800FB700DD00464F0BD4563F5E78563F3E7C56317
S3150800FB80F1E710684463F0BD10688463F0BDC46390
S3150800FB90F0BD4463D9E78463D7E7C463D5E7106843
S3150800FBA04563F0BD10688563F0BDC563F0BD10B54B
S3150800FBB0C468006869B104290DD008290DD0046409
S3150800FBC06BB1042B0FD01168D068082B0FD00864CE
S3150800FBD010BD4463F4E78463F2E7C463F0E7116891
S3150800FBE0D068486310BD1168D068886310BDC863C3
S3150800FBF010BDFEE77047000070B5044681880068AE
S3150800FC00FDF764FF0546FDF773FFA27942B10026AA
S3150800FC100221012A09D0022A11D0032A0DD114E0A3
S3150800FC20002D09D1A06001200DE0012D05D0A268A4
S3150800FC30801A0A2800D3A17170BDA67170BD012D66
S3150800FC40FCD1A0600320A07170BD002DF3D0A1687F
S3150800FC50401A0A28F8D30548E168FDF74FF9E06825
S3150800FC600228EAD100F01FF8E7E700006C00002040
S3150800FC704038062816D2DFE800F00305080B0E11F7
S3150800FC8064200DE04FF4FA700AE04FF47A7007E04A
S3150800FC904FF4FA6004E041F2883001E042F2107055
S3150800FCA000F004B870476420AFF3008010B5002850
S3150800FCB01CD00F49CA68002A18D08A69D3438342E0
S3150800FCC002D24FF0FF3000E01044886100F014F8CB
S3150800FCD0FDF70CFB4FF400510648FDF70FF9BDE898
S3150800FCE010404FF480410348FDF708B910BD0000E5
S3150800FCF0F01D00206C0000200B4810B5C268002AD1
S3150800FD0010D08369B3FBF2F1B3FBF2F402FB1432B1
S3150800FD1082614269D3438B4202D24FF0FF3100E041
S3150800FD201144416110BD0000F01D00200148C06863
S3150800FD3070470000F01D0020014800697047000068
S3150800FD40F01D00200148806970470000F01D002062
S3150800FD500148406970470000F01D00200148C0783E
S3150800FD6070470000340000202DE9F0411C4C1D4D61
S3150800FD7040F6B831207F00F00100287020698842DB
S3150800FD8001D8012000E00020A87000206870E87003
S3150800FD90D4E90576FFF7B0FF6069B84202D1A069D9
S3150800FDA0B0420BD0FDF7A2FA4FF400510E48FDF70A
S3150800FDB0A5F84FF480410C48FDF7A0F8287820B143
S3150800FDC0BDE8F0410020FCF7FBBC6069002804D0C0
S3150800FDD001206870FDF78CFE6860BDE8F0810000C0
S3150800FDE0F01D0020340000206C00002010B5134CD4
S3150800FDF0206908B1401E2061606908B1401E606133
S3150800FE00FDF774FA4FF480510D48FDF777F84FF473
S3150800FE1000510B48FDF772F80A48817800290CD181
S3150800FE20216940F6B832914207D801218170BDE8B0
S3150800FE301040C9030248FDF761B810BDF01D002047
S3150800FE406C00002034000020144810B501881448BE
S3150800FE504269914200D9416100210161C26942F0BB
S3150800FE600102C2610F480122027041708270FDF7DB
S3150800FE703DFA0020FCF7A4FC4FF480310A48FDF750
S3150800FE803DF84FF480510848FDF738F8BDE81040B2
S3150800FE904FF400510448FDF731B80000701D0020EA
S3150800FEA0F01D0020340000206C000020054810B525
S3150800FEB04069002805D0044C01206070FDF718FE43
S3150800FEC0606010BDF01D00203400002070B5154D8F
S3150800FED042F21070144C2861E869002620F00100EF
S3150800FEE0E8612670A6700120FCF76AFC686928B1EB
S3150800FEF001206070FDF7FCFD606000E06670FDF7AC
S3150800FF00F5F94FF400310948FCF7F8FF4FF4805132
S3150800FF100648FCF7F3FFBDE870404FF4005103486C
S3150800FF20FCF7ECBFF01D0020340000206C00002018
S3150800FF3010B54FF400610A48FCF7E0FF4FF4805112
S3150800FF400748FCF7DBFF4FF400510548FCF7D6FFDE
S3150800FF50BDE810404FF480410148FCF7CFBF0000D0
S3150800FF606C00002010B5411E42F21073104A4FF47F
S3150800FF700064994203D30120D070214612E00D494E
S3150800FF80C8600020D070FFF7B7FEFDF7AFF921462D
S3150800FF900948FCF7B3FF4FF400510748FCF7AEFFDA
S3150800FFA04FF48041BDE810400348FCF7A7BF0000A6
S3150800FFB034000020F01D00206C00002010B50A4C0B
S3150800FFC0207800280FD1607848B1FDF791FD616867
S3150800FFD0401A42F21071884205D300206070BDE8CD
S3150800FFE0104000F003B810BD34000020124810B5C8
S3150800FFF00178407801431DD110484069002819D07E
S315080100000F49CA7E002A15D1098821B1BDE81040D9
S315080100100B48FCF7D2BAB0F5803F01D34FF6FF7013
S3150801002081B20748FCF7B0FABDE8104040210548FF
S31508010030FCF764BF10BD000034000020F01D00204D
S31508010040701D00206C00002010B504460868006881
S31508010050C00608D4D4E90001FEF7A6FCE069BDE8AC
S31508010060104000F09EB910BD2DE9F04113484468CF
S31508010070FDF73EFD05464FF47A77DFF8448019E02F
S315080100802068A668281AB84213D92079C0EBC0019E
S3150801009008EB41010B4800F0C1FD25602179C1EB50
S315080100A0C10208EB42004078032802D30348FFF750
S315080100B012F93446002CE3D1BDE8F081640300202F
S315080100C0DC0C0020EC1C002007480521016041607A
S315080100D081606421C16042F21071016100214161B0
S315080100E08161C16170470000F01D0020002803D01E
S315080100F00021C18001814181704700280AD0018908
S31508010100C2889142018901D282881144C288891A1A
S3150801011041814089704781884089081A80B27047B1
S31508010120002817D0016082800021C18001810A4A16
S31508010130C2600A4A02610A4A42610A4A82610A4A55
S31508010140C2610A4A02620A4A42620A4A82620A4A41
S31508010150C2624181704700007D0101088B010108D7
S31508010160B502010809020108490201089D010108B1
S3150801017017010108FB000108ED00010818B14089C3
S3150801018008B1002070470120704718B1418980885D
S31508010190814201D101207047002070472DE9F041C5
S315080101A0154688460446FFF7A8FF854200D9054645
S315080101B0A088E188401A86B2E1882068AE420144E7
S315080101C00BD32A464046FCF7F2F8E088A188284472
S315080101D0B0FBF1F201FB12000FE032464046FCF794
S315080101E0E6F8AA1B174608EB06002168FCF7DFF8B4
S315080101F0A08897FBF0F100FB1170E0806089401B35
S3150801020060812846BDE8F08110B5C0B1B9B1EFF3F8
S31508010210108272B64389A3B1C48803681B5D0B704B
S31508010220C1888388491CB1FBF3F403FB1411C1800F
S315080102304189491E418182F31088012010BD0020A1
S3150801024010BD82F31088FAE72DE9F0411546884674
S315080102500446FFF760FF854200D90546A088218933
S31508010260401A86B221892068AE4208440BD32A4631
S315080102704146FCF79CF82089A1882844B0FBF1F295
S3150801028001FB12000FE032464146FCF790F8AA1B23
S31508010290174608EB06012068FCF789F8A08897FB42
S315080102A0F0F100FB1170208160892844608128469D
S315080102B0BDE8F08170B50D46040002D0FFF765FF71
S315080102C008B1002070BD2189206845542089A1887C
S315080102D0401CB0FBF1F201FB120020816089401C31
S315080102E06081012070BD2DE9F04116460F460400D4
S315080102F054D0002F52D0002E50D094F8600000251B
S31508010300B0424BD304F10C08A1694046884700283E
S3150801031044D1626A211D404690470028F4D02078CE
S3150801032068B10128F0D194F86100B04203D294F87B
S31508010330601088420DD3257084F86150E4E720796E
S3150801034061788842E0D104F14001685401202070A7
S3150801035021E004F140012279425494F86100721EA9
S31508010360904217D1257084F861502079A27890427D
S31508010370CAD132463846FCF71AF8A26E22B1394676
S31508010380204690470028BFD0E16E0029BCD03846E8
S315080103908847B9E7401C84F86100B5E7BDE8F081F4
S315080103A070470188012903D0012101800846704759
S315080103B000207047FDF797BBFDF7D6BB30B593B064
S315080103C030216846FCF76AF814210CA8FCF766F890
S315080103D01F480025016841F080510160006800F05E
S315080103E0805011901B48016841F480410160006802
S315080103F0022400F480401190092000904FF48030C7
S3150801040001900120CDE9050480050790192008907F
S315080104104FF4A870CDE9090404200B906846FDF74E
S3150801042035FD08B172B6FEE70CA90F2081E8310047
S315080104304FF4A0500F904FF48050109005210CA84E
S31508010440FDF738FC002801D072B6FEE713B030BDBF
S3150801045040380240007000400448016841F47001C8
S3150801046001600249024880390860704788ED00E05A
S3150801047000C000080148FEF770B800000C01002012
S31508010480F0B50268274B284D284E294F294C4FF0C5
S31508010490804C984209D0604507D0A84205D0B042A1
S315080104A003D0B84201D0A04204D122F0700E4A68A6
S315080104B042EA0E0298421BD0604519D0A84217D0CD
S315080104C0B04215D0B84213D0A04211D01A4DA84255
S315080104D00ED01A4DA8420BD0194DA84208D0194D75
S315080104E0A84205D0184DA84202D0184DA84203D1FA
S315080104F022F44075CA682A434D6922F080022A43CC
S315080105008D68C5620D688562984201D0A04201D105
S3150801051009690163016841F0040101600121416132
S315080105200260F0BD000001400004004000080040E0
S31508010530000C004000040140004001400044014015
S315080105400048014000180040001C004000200040FF
S3150801055010B501F01F030121046A99408C43046216
S31508010560016A9A401143016210BD10B5846842EAD6
S31508010570032224F47F440A432243826010BD826821
S3150801058022F070020A4342F00701816070470000B9
S31508010590F0B5036A026A22F00102026242688469BE
S315080105A0124E24F073050C682C4323F002058B6860
S315080105B02B430D4DA84201D0B04205D123F00807BF
S315080105C0CB683B4323F00403A84201D0B04205D1CE
S315080105D04D6922F4407215438A692A43426084614F
S315080105E0496841630362F0BD00000140000401400F
S315080105F0F0B5026A036A23F010030362436884694B
S315080106000D6824F4E64444EA05248D6822F02002A4
S3150801061042EA05120F4D104EA84201D0B04206D14A
S31508010620CF6822F0800242EA071222F04002A8426D
S3150801063001D0B04207D14D6923F4406343EA8503EB
S315080106408D6943EA8503436084614968816302626F
S31508010650F0BD00000000014000040140F0B5026A47
S31508010660036A23F4807303624368C46922F400723F
S3150801067024F073050C68124E2C438D6842EA052254
S315080106800E4DA84201D0B04206D1CF6822F40062CD
S3150801069042EA072222F48062A84201D0B04207D179
S315080106A04D6923F4405343EA05138D6943EA05135B
S315080106B04360C4614968C1630262F0BD000001403C
S315080106C00004014030B5046A026A22F480520262CB
S315080106D04268C3690D6823F4E64343EA05238D6836
S315080106E024F4005444EA0534084DA84202D0084DC2
S315080106F0A84204D14D6922F4804242EA8512426039
S31508010700C36149680164046230BD0000000001400C
S315080107100004014010B5036A046A24F00104046266
S31508010720846924F0F00444EA021423F00A020A4315
S315080107308461026210BD10B5036A046A24F01004CC
S315080107400462846923F0A00324F4704444EA023263
S3150801075043EA01118261016210BD10B5806B002167
S31508010760C185FEF78AF910BD01680C3151E8002FE1
S3150801077022F4907241E80023002BF5D10168143167
S3150801078051E8002F22F0010241E80023002BF5D1A0
S31508010790016B012909D101680C3151E8002F22F0BA
S315080107A0100241E80023002BF5D1202180F84210E0
S315080107B000210163704708B590F84210222901D03B
S315080107C0022008BD82684FF480539A4201D101691B
S315080107D021B1816A9A421BD04AB10AE00268816A4C
S315080107E05268C2F308020A80816A891C08E0026914
S315080107F072B10268526802F07F020A70816A491C66
S315080108008162C18D491E0904090CC18503D01BE00B
S3150801081002685268F1E70168CA6822F02002CA60D4
S315080108200168CA6822F48072CA6001684A6922F0BE
S3150801083001024A61202180F8421000214163026BBE
S31508010840012A03D0FEF702FB002008BD01630168F7
S315080108500C3151E8002F22F0100241E80023002B49
S31508010860F5D101680A68D20602D50A684968009175
S31508010870818DFEF701F9E7E770B50446006801695D
S31508010880E26821F44051114301612169A068E269D6
S3150801089008436169114308432168CA6849F20C6330
S315080108A09A430243CA6020684169A26921F44071EA
S315080108B01143416131492068884202D03049884252
S315080108C002D1FDF7A1FA01E0FDF78EFAE2690023EC
S315080108D0192164253226B2F5004F626828D0A0FB9B
S315080108E00101930F9200FBF7BFFC0146B0FBF5F03F
S315080108F06FF01802504301EB800006EB0010B0FBC5
S31508010900F5F000F0F002B1FBF5F002EB0012B1FBD5
S31508010910F5F06FF01803584301EB800006EB001061
S31508010920B0FBF5F000F00F0021681044886070BD37
S31508010930A0FB010192185B41FBF796FC0146B0FB4F
S31508010940F5F00201B1FBF5F06FF01803584301EB1E
S31508010950800006EBC000B0FBF5F000F0F80002EBF2
S315080109604002B1FBF5F0584301EB800006EBC000ED
S31508010970B0FBF5F000F00700D6E7000000100140D3
S315080109800014014081628285C285002141642221C9
S3150801099080F84210016921B10168CA6842F480727F
S315080109A0CA6001684A6942F001024A610068C16881
S315080109B041F02001C160002070472DE9F8439846AF
S315080109C017460D460446089E24E0701C22D0FDF702
S315080109D08FF8A0EB0800B0421AD8CEB12068C168DA
S315080109E0490717D5802D15D0402D13D00168C94365
S315080109F009070FD401680025406800902046FFF7D3
S31508010A00B3FE0820606484F840500120BDE8F883ED
S31508010A100320FBE72068006835EA000004D00020BF
S31508010A20B842D2D00020F1E70120F9E77FB50446A4
S31508010A30C078012808D000286FD1A17804B064488D
S31508010A40BDE87040FEF747BCAA208DF80000607823
S31508010A508DF80100A0788DF80200E0788DF8030082
S31508010A6020798DF8040060798DF80500A0798DF854
S31508010A700600E0798DF80700207A8DF80800607A7B
S31508010A808DF80900A07A8DF80A00524D0B216846A7
S31508010A90FBF743FF010A8DF80C0055208DF80B1062
S31508010AA08DF80D002B690E22694628469847484855
S31508010AB0A1780C30FEF73AFC00282ED120791B28A4
S31508010AC049D00FDC4FF4803510282ED005DCB0B1A3
S31508010AD0012817D002286FD122E019282AD01A280E
S31508010AE06AD12BE0212841D004DC1C2835D02028E6
S31508010AF062D135E0F0283CD0FF285DD156E04FF4AD
S31508010B00807124E0FFF718F940B1B4F8070041BA3B
S31508010B10314800BFFBF738FD4CE058E0294616E09E
S31508010B20B4F8070041BA2D48F4E72D4901200873A6
S31508010B3080210CE0207AFBF735FE3DE0FFF7FCF853
S31508010B400028EBD05FF00100FBF73AFE34E02548B8
S31508010B50FCF7D4F930E00020F6E7FBF7EDFD2BE0D2
S31508010B60204600F053F8FFF7FDF925E0FFF7E0F915
S31508010B7022E0204600F04AF81B49884200D00021AD
S31508010B800846FBF78BFEB8B1FCF734F96420FCF78D
S31508010B90C5FDBFF34F8F15480168154A01F4E06199
S31508010BA011430160BFF34F8F00BFFDE7FCF722F940
S31508010BB0FFF77CF94021CAE7FCF79AFFA17804B050
S31508010BC00246BDE8704002480C30FEF73FBB7FBDC8
S31508010BD064030020EC1C0020701D0020A01D0020CD
S31508010BE0D01D00206C00002041544F420CED00E05E
S31508010BF00400FA050148FDF741BF0000D4020020B0
S31508010C000148FDF73BBF00001C030020D0F8051082
S31508010C10007A09BA21F0FF01084370471FB5044657
S31508010C204878401CC0B24870032802D9012004B094
S31508010C3010BDAA208DF8000048788DF80100887843
S31508010C408DF80200C8788DF8030008798DF804003C
S31508010C5048798DF8050088798DF80600C8798DF8E8
S31508010C600700087A8DF80800487A8DF80900887A0D
S31508010C708DF80A000B216846FBF74FFE010A8DF82D
S31508010C800C0055208DF80B108DF80D0023690E22E6
S31508010C906946204698470020C9E710B50C460B213E
S31508010CA04030FBF73AFEB4F80B1049BA884201D135
S31508010CB0012010BD002010BD7FB5144C05460E4617
S31508010CC020780021401CC0B220707170B0701049A4
S31508010CD0C0EBC00001EB40000E223146FBF767FB73
S31508010CE00E2231466846FBF762FB0B216846FBF785
S31508010CF014FE010A8DF80B108DF80C002B690E22D3
S31508010D00694628469847207804B070BD300000200F
S31508010D10DC0C0020FEE70907090E002804DB00F1B8
S31508010D20E02080F80014704700F00F0000F1E02081
S31508010D3080F8141D7047000062B6FCF71DFFFFF727
S31508010D403DFBFEF7FFFAFEF7FFFBFEF779FCFEF720
S31508010D5093FCFEF7E3FBFEF7F1FC00BFFEF7ACFCE4
S31508010D60FCE74FF04070E1EE100A70470000000002
S31508010D70000000000102030406070809000000003C
S31508010D80010203040006101600061016AC0D010830
S31508010D900000002070000000C4C100081C0E0108F4
S31508010DA070000020A8510000E0C100080024F400EA
S31508010DB00100000010000000000000000000000013
S31508010DC00000000000000000000000000100000013
S31508010DD00000000000000000000000000000000004
S31508010DE0000000000000000000800008000000006C
S31508010DF0000000000000000100FF000000000000E4
S31508010E0000000000000000000000000000000000D3
S31108010E10000000000000000000000000C7
S7050800C189A8
