:020000040800F2
:10C00000B851002029C200080BF200086BE70008B5
:10C0100009EF0008A5C70008E5FE000800000000C1
:10C02000000000000000000000000000B5F500085E
:10C0300069CB0008000000000DF20008CDF50008F3
:10C0400043C2000843C2000843C2000843C20008BC
:10C0500043C2000843C2000843C2000829CD0008BB
:10C060002FCD000843C2000843C2000843C20008A5
:10C0700043C2000843C2000843C2000843C200088C
:10C08000D1CA000843C2000843C2000843C20008E6
:10C0900043C2000843C2000843C2000843C200086C
:10C0A00043C2000843C2000843C2000843C200085C
:10C0B00043C2000889F6000843C2000843C20008D2
:10C0C00043C2000843C2000843C2000843C200083C
:10C0D00043C20008D5FD000843C20008E1FD000886
:10C0E00043C2000843C2000843C2000843C200081C
:10C0F00043C2000843C2000843C2000843C200080C
:10C1000043C2000843C2000843C2000843C20008FB
:10C1100043C2000843C2000843C2000843C20008EB
:10C1200043C2000843C2000843C2000843C20008DB
:10C1300043C2000843C2000843C2000843C20008CB
:10C1400043C2000843C2000843C2000843C20008BB
:10C1500043C2000843C2000843C2000843C20008AB
:10C1600043C2000843C2000843C2000843C200089B
:10C1700043C2000843C2000843C200080000000098
:10C1800043C2000843C2000800F002F800F03CF887
:10C190000AA090E8000C82448344AAF10107DA4522
:10C1A00001D100F031F8AFF2090EBAE80F0013F038
:10C1B000010F18BFFB1A43F001031847A03D000010
:10C1C000C03D0000103A24BF78C878C1FAD85207A1
:10C1D00024BF30C830C144BF04680C607047000001
:10C1E0000023002400250026103A28BF78C1FBD880
:10C1F000520728BF30C148BF0B6070471FB503F01E
:10C2000098FE1FBD10B510BD00F046F91146FFF7AE
:10C21000F5FF03F079FE00F064F903B4FFF7F2FFD5
:10C2200003BC00F069F9000009488047094800474D
:10C23000FEE7FEE7FEE7FEE7FEE7FEE7FEE7FEE7D6
:10C24000FEE7FEE704480549054A064B7047000033
:10C250006DF6000889C10008B8270020B8510020F9
:10C26000B83C0020B83C002053EA020C00F0698082
:10C270002DE9F04B4FF00006002B1FBFB3FA83F5FA
:10C2800003FA05F424FA05F65E4012BF1643B2FA2B
:10C2900082F502FA05F4C5F120051EBF22FA05FC5D
:10C2A00044EA0C04203556EA044C4FEA144418BF03
:10C2B000641C4FF000084FF00009904271EB030C32
:10C2C00039D3002919BFB1FA81F701FA07F6B0FA9C
:10C2D00080F700FA07F6C7F120071EBF20FA07FC17
:10C2E00046EA0C062037B6FBF4FCA7EB0507103F27
:10C2F00007F01F0BCBF120060CFA0BFB2CFA06F60D
:10C3000044BFB3460026202FA4BF5E464FF0000B6B
:10C310005BEA060C08BF4FF0010B19EB0B09ABFBF6
:10C32000027C48EB0608C01B06FB02CC0BFB03CCCF
:10C3300071EB0C01C1E70B46024641464846BDE899
:10C34000F08B13B54FF000004FF00001AFF3008009
:10C35000BDE81C407047032A40F2308010F0030C07
:10C3600000F0158011F8013BBCF1020F624498BF48
:10C3700011F801CB00F8013B38BF11F8013BA2F1E5
:10C38000040298BF00F801CB38BF00F8013B11F060
:10C39000030300F02580083AC0F0088051F8043B00
:10C3A000083A51F804CBA0E80810F5E7121D5CBF6D
:10C3B00051F8043B40F8043BAFF30080D20724BFA0
:10C3C00011F8013B11F801CB48BF11F8012B24BF34
:10C3D00000F8013B00F801CB48BF00F8012B704783
:10C3E00010B5203AC0F00B80B1E81850203AA0E810
:10C3F0001850B1E81850A0E81850BFF4F5AF5FEA44
:10C40000027C24BFB1E81850A0E8185044BF18C9F6
:10C4100018C0BDE810405FEA827C24BF51F8043B9D
:10C4200040F8043B08BF7047D20728BF31F8023BF1
:10C4300048BF11F8012B28BF20F8023B48BF00F885
:10C44000012B70474FF0000200B513469446964604
:10C45000203922BFA0E80C50A0E80C50B1F1200117
:10C46000BFF4F7AF090728BFA0E80C5048BF0CC0C5
:10C470005DF804EB890028BF40F8042B08BF704723
:10C4800048BF20F8022B11F0804F18BF00F8012B95
:10C490007047704770477047754600F029F8AE4600
:10C4A00005006946534620F00700854618B020B5C0
:10C4B000FFF7C8FEBDE820404FF000064FF0000730
:10C4C0004FF000084FF0000B21F00701AC46ACE83C
:10C4D000C009ACE8C009ACE8C009ACE8C0098D46A9
:10C4E00070470446AFF300802046FFF796FE000039
:10C4F000004870475827002001491820ABBEFEE7CE
:10C5000026000200704710B50446816A001D884766
:10C510000020A070208820B1401E0004000C208064
:10C5200004D1E07E002801D00320E07610BD10B5D4
:10C530000446008808440004000C208006D0002037
:10C54000A070A16A201D88470120E07610BD000080
:10C5500070B5214C0025E17811B1E5708F2810D01D
:10C560002279012192B18F280AD03F2803D0A0F16F
:10C5700040020F2A0AD8A070022000F083F825712B
:10C5800070BDBDE87040022000F07CB8102819D0C2
:10C5900011280FD0802811D0812811D0A0F12001BE
:10C5A0000F2907D93E2805D05E2803D0712801D075
:10C5B000A128E5D1BDE8704000F034B8E17070BD4D
:10C5C000217170BDA078E07110202072BDE870402C
:10C5D0000821024800F0CABB1400002030000020EF
:10C5E00010B50E4C002020706070A070E0702071BB
:10C5F00001206071FF20A07100F098FEE06000F063
:10C6000095FE2061012204F10A01054802F02EF88E
:10C61000BDE810403E2000F035B8000014000020B6
:10C62000E0020020054908728A79904205D088719D
:10C630004FF40071024800F099BB704714000020CD
:10C6400030000020302000F01DB800000A4830B44F
:10C6500001784278491C01F01F01914204D0827A8E
:10C66000064B04781A5501700349012230BC0A3187
:10C67000034801F0FBBF000014000020841E0020CE
:10C68000E002002001B5142301226946014802F0AE
:10C690001BF808BDE00200200449012800D000205A
:10C6A00048724FF48061024800F060BB1400002023
:10C6B000300000200349487108B13E2000E05E20B0
:10C6C000FFF7E0BF1400002070B500F02FFE144EFD
:10C6D000144C054620786178884212D1607938B1CF
:10C6E000E068281A962803D30C20FFF7CBFFE560FB
:10C6F0002069281AB0F57A7F11D3607958B13E20AD
:10C700000AE060786178305C491C01F01F016170BB
:10C71000FFF71EFFDEE75E20FFF7B4FF256170BD67
:10C72000841E00201400002038B51949044608680A
:10C7300040F080500860086800F08050BFF34F8FD1
:10C740000090086800F0C8FE1249134800E0491E36
:10C750000268D20502D40029F9D117E0B1B10F491E
:10C7600001200860BFF34F8F0948303000680C4843
:10C7700000210460BFF34F8FBFF36F8F0268A242A6
:10C7800001D1012038BD491C0329F2D3002038BD56
:10C7900040380240A0860100007000403C0E474235
:10C7A00050280040FEE730B503464FF6FF7091B1C8
:10C7B0004AF20104491E89B20ED313F8012B5040EE
:10C7C0000022C5074FEA500000D06040521CD2B290
:10C7D000082AF6D3EEE7002030BD7FB50024009490
:10C7E000AA268DF8006001948DF803108DF80420BE
:10C7F000190E8DF80510190C8DF80610089D190AF0
:10C8000002948DF8071003948DF8083055218DF8A7
:10C8100009408DF80D108DF80A50694603F034FB7D
:10C8200004B070BD7FB50026DDE90845019602968B
:10C8300000960396AA268DF800608DF803108DF8F7
:10C840000420190E8DF80510190C8DF80610190A20
:10C850008DF807108DF8083001218DF80910552149
:10C860008DF80D108DF80A40694603F00DFB044663
:10C8700000F05CFD02462146284602F0B1F804B003
:10C88000204670BD2DE9FF411A496422A1F118002C
:10C8900002F0E5F818496422A1F2BC4002F0DFF88A
:10C8A0004FF4007060F30F073B46AA2060F3174374
:10C8B000552060F31F630E2060F3070511480DF14A
:10C8C0000408114FDFF844C0009588E881100B4C34
:10C8D0000B4A214602F5097000F01CF8002262F3B1
:10C8E0000F06214613460A48009600F049F8BDE8B5
:10C8F000FF81000040030020F00700209802002084
:10C90000A01A0020FBF400086BFE000841FC0008A0
:10C91000B01C00202DE9F047044609A8089F90E8C4
:10C920004003A16098B2114602461D4604F10C0076
:10C9300002F000FD002020712070202084F86000AB
:10C94000280C6070280EA070E7705EB1C4F86460B7
:10C95000C4E91A8904F13C01A068BDE8F04701224E
:10C9600001F084BE01486066F2E70000FBF40008B5
:10C9700002480E22A0F12401436E1847C41C002077
:10C9800010B5029C80E80E008481034A02612020D9
:10C9900081F8410010BD00009DC900080068002812
:10C9A00006D0002904D0002A02D0642301F08CBEF6
:10C9B00070470000FEB54FF49674102003250094D4
:10C9C000CDE9015040F6B8363346012255211648CC
:10C9D00000F02CF820200094CDE901501248334695
:10C9E00001225521303000F021F80F4C4FF44876E9
:10C9F0006034207B01280AD003280ED0022805D1FC
:10CA0000E16920468847B04200D92573FEBD2169FF
:10CA10002046884702202073F2E761692046884754
:10CA200000202073FEBD0000341D00202DE9F05FC2
:10CA30000446DDE90A98C07EDDF830A01E461746A0
:10CA40008B46012805D00025032807D004280CD0E8
:10CA500020E0E369201D9847022011E0216A201D93
:10CA60008847E5762580BDE8F09FE16A201D88476C
:10CA700048450FD9A078404504D2401CA070012041
:10CA8000E0760CE0216A201D8847E57651460F4884
:10CA900000F06CF9E07E0028E5D00428E3D0E16ADC
:10CAA000201D8847B042DED90420E076616A201D4F
:10CAB0008847012000F0F4FA37B100225946201DC2
:10CAC000E369BDE8F05F18470122F7E73000002076
:10CAD00010B5044800F0AAF9BDE810400149024829
:10CAE00002F0CCBB38020020542600200168182335
:10CAF000CAB2103AB2FBF3F2054B6FF30901032AF5
:10CB00009B5CC36500D9091D81650846704700001C
:10CB10003CFF000810B5014600208B698A6A4FF07F
:10CB2000C07453B1B3F5005F15D072B1012A0CD0B7
:10CB3000022A0AD0032A09D104E01AB1012A06D038
:10CB4000022A03D1C96AC90100D5012010BDC96AF2
:10CB5000A142FAD010BD002AF7D0012AF2D0022A51
:10CB6000F3D0032AF3D010BD7047000038B504207D
:10CB70000F4B104C009000221946201D00F026F8A3
:10CB80000C200B4B04F13005009008221946281D9B
:10CB900000F01CF80123DA03074904F1600000F0FB
:10CBA00087F800202080A0702880A87038BD000081
:10CBB00040000020341D00200008024010B504464B
:10CBC00000F0B4FB2169401A10BD000070B50D469D
:10CBD000044604992846C4E90221C4E9005300210F
:10CBE000E1750123A375A18221610B49A1610B4964
:10CBF000E1610B4921620B4961620B49A162114657
:10CC000001F08CFAE168606801F088FA2046BDE81E
:10CC1000704000F00BB8000045CC000863CC000861
:10CC20002DCC000839CC0008BDCB0008D0E901218B
:10CC3000C368006802F062BA10B5044600F076FBE3
:10CC4000206110BD1CB58275CDE900120446D4E9FF
:10CC50000002D4E9021302F070FA00F067FB2061D1
:10CC60001CBDD0E90121C368006802F0ACBA000025
:10CC700070B50A4D281D696A88470024EC762C801F
:10CC8000AC703035281D696A8847EC762C80AC7012
:10CC900030352846696988472C7370BD341D0020E3
:10CCA00010B5044600F042FBA168401A10BD000018
:10CCB00030B401600C468280114643730022027337
:10CCC0008260084A0261084A4261084A8261084A51
:10CCD000C26123B10022204630BC00F022BB0122F9
:10CCE000F9E7000007CD0008F5CC00081DCD0008CD
:10CCF000A1CC0008417B21B100228188006802F0AC
:10CD000063BC0122F9E710B50446427B81880068C4
:10CD100002F05AFC00F00AFBA06010BD10B50446FA
:10CD200000F004FBA06010BD022000F0E9B904206F
:10CD300000F0E6B908B50021431C0F22024800911B
:10CD4000FFF74BFD08BD0000B01C002072B6FEE7E7
:10CD50000068814301D000207047012070470268BD
:10CD60008A430260704700210160704702680A43ED
:10CD7000026070472DE9F0410446876D00F0D6FA55
:10CD8000064694F835000025022806D0802060650C
:10CD900084F834500120BDE8F0812068016821F05A
:10CDA000160101602068416921F080014161206C19
:10CDB00008B9A06C20B12068016821F00801016069
:10CDC0002068016821F0010101600CE000F0AEFA7A
:10CDD000801B052807D920206065032084F83500D2
:10CDE00084F83450D7E720680068C007EED194F883
:10CDF0005C103F208840B860012084F8350084F83A
:10CE000034500020C7E790F83510022903D0802164
:10CE1000416501207047052180F8351000680168E0
:10CE200021F0010101600020704700002DE9F84366
:10CE300004464FF00009CDF8009063484FF41651B6
:10CE4000A56D0068B0FBF1F72E6894F85C1008201F
:10CE500000FA01F131420FD021680A6852070BD560
:10CE60000A6822F004020A6094F85C108840A86006
:10CE7000606D40F00100606594F85C104FF00108AF
:10CE800008FA01F0304208D021684969090604D542
:10CE9000A860606D40F00200606594F85C100420AA
:10CEA0008840304208D021680968890704D5A86005
:10CEB000606D40F00400606594F85C1010208840BC
:10CEC000304218D021680968090714D5A860206885
:10CED0000168490304D50068000308D5A16C07E088
:10CEE0000168C90503D4016821F008010160216CC3
:10CEF00009B12046884794F85C10202088403042D1
:10CF000031D021680968C9062DD5A86094F835008C
:10CF100005282068016806D0490347D5006800034A
:10CF20001DD4616C1CE021F016010160206841698C
:10CF300021F080014161206C08B9A06C20B120680B
:10CF4000016821F00801016094F85C103F208840DE
:10CF5000A86084F8358084F83490216D1FE0E16B7F
:10CF600009B120468847606D00282BD0606DC0074E
:10CF700014D0052084F835002068016821F00101F3
:10CF800001600098401C0090B84203D820680068F7
:10CF9000C007F6D184F8358084F83490E16C00291C
:10CFA00010D001B02046BDE8F04308470168C9052C
:10CFB000D5D4016821F01001016084F8358084F82F
:10CFC0003490CCE7BDE8F8830C0000202DE9F04157
:10CFD000044600F0ABF906465CB1022084F8350047
:10CFE000002584F834502068016821F001010160B7
:10CFF0000DE00120BDE8F08100F098F9801B0528C4
:10D0000005D920206065032084F83500F2E7206808
:10D010000068C007F0D12268116820480140D4E9B7
:10D0200001031843D4E903363343184363691843B3
:10D03000A3691843E3691843236A18430843616AE4
:10D04000042903D1D4E90B13194308431060206865
:10D050004069666A20F0070130460E430127042824
:10D060000CD1A06A0643E06A40B12046FFF752FDAA
:10D0700020B14020606584F83570BAE720684661C9
:10D080002046FFF733FD94F85C203F2191408160FA
:10D09000656584F835700020ACE700003F8010F033
:10D0A00070B5044600F042F90546601C02D0044801
:10D0B0000078044400F03AF9401BA042FAD370BD56
:10D0C0000000002010B502280ED0042811D1094814
:10D0D000FFF719FA04210848FFF748FEBDE81040A1
:10D0E00040210548FFF742BE0448FFF70CFA012132
:10D0F000F1E710BD641D002030000020341D002029
:10D10000044910B50A68024202D00860FFF7DAFF4E
:10D1100010BD0000143C01402DE9F84FDFF8BCA120
:10D120000022012503264FF00F090AF1040BAAF192
:10D13000040E00BF0B6805FA02F42340A34270D12D
:10D140000F7907F00307012F01D0022F16D187684E
:10D150004FEA420806FA08FC27EA0C07D1F80CC08F
:10D160000CFA08FC4CEA070CC0F808C04768A74353
:10D170000C79C4F3001494403C4344600C79E443BC
:10D18000A4070AD0C4684FEA420C06FA0CF7BC4365
:10D190008F6807FA0CF72743C7600C7904F0030483
:10D1A000022C12D1D40800EB840CDCF82040570785
:10D1B000FF0E09FA07F824EA0804D1F8108008FAEB
:10D1C00007F848EA0408CCF8208004684FEA420CCB
:10D1D00006FA0CF7BC430F7907F0030707FA0CF7C0
:10D1E000274307604C6814F4403F70D03C4C2768DC
:10D1F00047F480472760246822F0030704F4804442
:10D200000094384C07EB040CDCF8084897074FEA09
:10D21000177809FA08F7BC43334FB84202D1002708
:10D2200024E054E0314FB84201D101271EE0304FD5
:10D23000B84201D1022719E02E4FB84201D103278D
:10D2400014E02D4FB84201D104270FE02B4FB84214
:10D2500001D105270AE02A4FB84201D1062705E08F
:10D26000284FB84201D1072700E0082707FA08F73E
:10D270002743CCF80878DAF800405746D1F804C0C4
:10D280009C435FEACC2C00D51C433C60DBF800409B
:10D290005F46D1F804C09C435FEA8C2C00D51C4348
:10D2A0003C60DEF800407746D1F804C09C435FEA5A
:10D2B0008C3C00D51C433C60084F083F3C68D1F8CB
:10D2C00004C09C435FEACC3C00D51C433C60521C2C
:10D2D000102AFFF42FAFBDE8F88F0000083C014092
:10D2E0004438024000300140000002400004024087
:10D2F00000080240000C02400010024000140240EE
:10D3000000180240001C02400069084000D00120C3
:10D310007047426921EA02030A4043EA02418161FF
:10D3200070470AB1816170470904FBE701488068D2
:10D33000704700000000002070B5040013D0216881
:10D340004CF6CC400860216845F255500860D4E99D
:10D35000000141602168A0688860FFF7E7FF05468B
:10D3600041F601060DE0012070BD00BFFFF7DEFFB2
:10D37000401BB04205D92068C068800701D0032057
:10D3800070BD2068C0688007F0D121684AF6AA20E5
:10D390000860002070BD00684AF6AA2101600020E4
:10D3A000704700000248816802781144816070472C
:10D3B000000000200B4810B5016841F400710160C5
:10D3C000016841F480610160016841F4807101608D
:10D3D000032000F06FF80F2000F006F800F024F8AA
:10D3E000002010BD003C024070B50D4D04464FF4C6
:10D3F0007A712878B1FBF0F00A490968B1FBF0F0C6
:10D4000000F01AFB48B9102C07D200222146501E0A
:10D4100000F030F800206C6070BD012070BD00008D
:10D42000000000200C0000200A4808B5016841F403
:10D4300080410160006800F4804000900548001FB2
:10D44000016841F080510160006800F08050009058
:10D4500008BD000044380240002809DB00F01F022C
:10D46000012191404009800000F1E020C0F8001146
:10D4700070470000F0B40E4B1B680C46C3F3022348
:10D48000C3F10705042D00D90425191D072901D270
:10D49000002300E0DB1E012606FA05F1491E2140AB
:10D4A00099409E40761E16403143F0BC02F01BBDF1
:10D4B0000CED00E0064900F0070208684FF6FF0394
:10D4C000184040EA0220034A1043086070470000F9
:10D4D0000CED00E00000FA05034908B501200862E0
:10D4E00002480068009008BD00000E420070004035
:10D4F0002DE9F0470E46050065D0DFF81481D8F815
:10D500000000F7B200F00700B04207D288F80070C0
:10D51000D8F8000000F00700B04254D128683D4C14
:10D52000810712D5400703D5206840F4E050206001
:10D530002878000703D5206840F460402060206808
:10D54000A96820F0F000084320602878C0072DD09B
:10D55000304968680839012812D0022813D00328FE
:10D5600011D00968890700292DDA216821F003010B
:10D5700001432160FFF7DAFE814641F2883A0EE06E
:10D5800009688903EFE709688901ECE7FFF7CEFE38
:10D59000A0EB0901514502D90320BDE8F0872068BE
:10D5A000696800F00C00B0EB810FEFD1D8F80010E3
:10D5B000404601F00701B14207D90770006800F04A
:10D5C0000700B04201D00120E7E72878400705D5E1
:10D5D0002068E96820F4E0500843206028780007BC
:10D5E00006D52068296920F4604040EAC100206027
:10D5F00000F038F82168084AC1F30311515CC840B3
:10D600000649086006480068FFF7EEFE0020C4E700
:10D61000003C02400838024044FF00080C00002093
:10D62000040000200448054900680968044AC1F361
:10D630008221515CC84070470C000020083802402D
:10D6400054FF00080448054900680968044AC1F30A
:10D650004231515CC84070470C000020083802403D
:10D6600054FF0008154810B5006810F00C0214486B
:10D6700013D01449042A0FD0082A0ED10F4C241FAE
:10D680002268236802F03F025B0207D52068C0F3DE
:10D690008810A0FB010106E0084610BD2168C1F317
:10D6A0008811A1FB00010023FEF7DEFD2168C1F314
:10D6B0000141491C4900B0FBF1F010BD083802409F
:10D6C0000024F40040787D012DE9F84F040070D06B
:10D6D0002078DFF85093C007A9F104054CD009F178
:10D6E00004000168C1F38101012908D00068C0F37A
:10D6F000810002280AD1D9F80000400206D5286826
:10D70000800339D560680028E1D035E06068B0F565
:10D71000803F12D0B0F5A02F286812D020F48030BE
:10D720002860286820F48020286060684FF4FA6739
:10D73000A8B1FFF7FBFD06460DE0286840F48030F5
:10D74000F2E740F480202860F7E700BFFFF7EEFD26
:10D75000801BB84273D828688003F7D50CE0FFF728
:10D76000E5FD064605E000BFFFF7E0FD801BB8427F
:10D77000F0D828688003F7D42078DFF8AC828007DF
:10D780004FF0000A3ED5A748001D016811F00C0FAC
:10D7900008D00068C0F3810002280BD1D9F800003E
:10D7A000400207D42868800716D5E068012800D118
:10D7B00012E033E1E068B8B10120C8F80000FFF7DB
:10D7C000B5FD064605E000BFFFF7B0FD801B02284F
:10D7D000C0D828688007F7D52868216920F0F800AC
:10D7E00040EAC10028600DE0C8F800A0FFF79EFDE8
:10D7F000064604E0FFF79AFD801B02281FD8286820
:10D800008007F7D42078000722D5864E87486169C3
:10D81000703671B101210160FFF788FD074604E011
:10D82000FFF784FDC01B022809D830688007F7D5B0
:10D830000EE0C0F800A0FFF779FD074605E082E0A2
:10D84000FFF774FDC01B02287DD830688007F7D42D
:10D850002078400768D5DFF8CCB100270BF13C0BEE
:10D86000DBF80000C0000BD4DBF8001041F0805161
:10D87000CBF80010DBF80000012700F0805000908A
:10D880006B4E3068C00510D4306840F48070306052
:10D89000FFF74CFD009005E0FFF748FD0099401AA6
:10D8A000022850D83068C005F6D55E4EA0686C36A8
:10D8B00001280FD00528306810D020F0010030601A
:10D8C000306820F004003060A068B8B1FFF72EFD8A
:10D8D00000900FE0306840F00100F4E740F00400F1
:10D8E0003060F7E7FFF722FD0099411A41F28830D6
:10D8F000814266D830688007F4D50EE0FFF716FD48
:10D90000009007E0FFF712FD0099411A41F28830BC
:10D91000814256D830688007F4D42FB1DBF800106C
:10D9200021F08051CBF80010A069C8B33D49091D12
:10D930000968C1F3810102294AD00228504607D064
:10D94000C8F8600000E03CE0FFF7F0FC04463BE074
:10D950004746C8F86000FFF7E9FC064605E000BF4F
:10D96000FFF7E4FC801B02282BD828688001F7D43D
:10D97000D4E907010843A16A2E4A490802EB014194
:10D98000626A41EA8211084394F82C1040EA01616E
:10D99000C9F8001001203866FFF7C8FC044606E00D
:10D9A0003EE000BFFFF7C2FC001B022809D8286830
:10D9B0008001F7D534E000BFFFF7B8FC001B022858
:10D9C00002D90320BDE8F88F28688001F4D427E04D
:10D9D0000128F7D0D9F80000E26900F480019142F3
:10D9E0001CD1226A00F03F01914217D147F6C07165
:10D9F000626A0140B1EB821F10D1A26A4FF0FF337F
:10DA000000F4403103EB5202B1EB024F06D194F81F
:10DA10002C1000F07060B0EB016F01D00120D1E755
:10DA20000020CFE70438024000004742800E474202
:10DA3000007000400000FFFF10B5401EB0F1807F75
:10DA400001D3012010BD4FF0E02460610F21601769
:10DA500002F049FA0020A06107202061002010BDDB
:10DA60007047704710B590F83C20012A22D001225F
:10DA700080F83C20CA688C6822F4407222434C68CB
:10DA800022F4806222430C6822F4006222430C6973
:10DA900022F4805222434C6922F400522243C96985
:10DAA000002322F480420A4301684A6480F83C3033
:10DAB000002010BD022010BD70B590F83C20012A56
:10DAC00032D0012480F83C40022280F83D200368D7
:10DAD0005A689D6822F070060A6832435A60134BF8
:10DAE00002689A4214D0B2F1804F11D0104B9A4282
:10DAF0000ED0104B9A420BD00F4B9A4208D00F4BCE
:10DB00009A4205D00E4B9A4202D00E4B9A4204D153
:10DB1000496825F080031943916080F83D40002159
:10DB200080F83C10084670BD022070BD0000014026
:10DB30000004004000080040000C004000040140C8
:10DB4000004001400018004010B5040003D094F8D4
:10DB50003D0010B107E0012010BD002084F83C001A
:10DB6000204600F01FF8022084F83D00211D2068A7
:10DB700001F090FD012084F8460084F83E0084F80E
:10DB80003F0084F8400084F8410084F8420084F8A3
:10DB9000430084F8440084F8450084F83D000020E8
:10DBA00010BD000038B505463A49036800203A4ADE
:10DBB0008B4205D1106840F001001060106838E019
:10DBC0003549091FB3F1804F2ED0344CA34234D1D4
:10DBD0000A6842F002020A600968324C01F0020150
:10DBE00000912F4921604FF0206161604021C4E91C
:10DBF000021009012161490061618900C4E9061030
:10DC0000206260622046FFF7E1F908B1FFF79EF855
:10DC1000AC62002211461D20A563FFF72BFCBDE876
:10DC200038401D20FFF718BC086840F0010008606C
:10DC3000086800F00100009038BD1B48834207D1FE
:10DC4000086840F008000860086800F00800F2E783
:10DC50001648834207D1086840F020000860086831
:10DC600000F02000E7E71248834207D1106840F433
:10DC700080301060106800F48030DCE70D4883428B
:10DC8000DAD1106840F400301060106800F4003001
:10DC9000D1E7000000000140443802400004004089
:10DCA0008860024038020020000C00400014004050
:10DCB000004001400044014070B5044690F83C002B
:10DCC0000025012817D0012684F83C60022084F842
:10DCD0003D002068826822F0770222F47F42826051
:10DCE0000868502838D00DDC20284FD005DC90B3D0
:10DCF000102811D14AE0022070BD302846D04028BB
:10DD00000AD13BE060282FD070280DD0B0F5805F9D
:10DD100003D0B0F5005F12D0012584F83D600020EB
:10DD200084F83C00284670BDCB68D1E90121206809
:10DD300001F025FD2068816841F0770109E0CB689A
:10DD4000D1E90121206801F01AFD2068816841F4C1
:10DD500080418160E1E719E0CA684968206801F004
:10DD6000E3FD5021206806E0CA684968206801F098
:10DD7000ECFD6021206801F00CFDCEE7CA6849681F
:10DD8000206801F0D1FD40212068F4E722680146B7
:10DD90001046F0E770472DE9F04104460068C66878
:10DDA00005694FF00007A90713D5B10711D5F91E72
:10DDB000016101202077206880698007204602D019
:10DDC000FFF7E8FF04E000F013F9204600F0A5F9A2
:10DDD0002777680716D5700714D521686FF00400FF
:10DDE0000861022020772068806910F4407F204677
:10DDF00002D0FFF7CFFF04E000F0FAF8204600F071
:10DE00008CF92777280715D5300713D521686FF0CF
:10DE100008000861042020772068C0698007204638
:10DE200002D0FFF7B7FF04E000F0E2F8204600F070
:10DE300074F92777E80616D5F00614D521686FF037
:10DE400010000861082020772068C06910F4407F26
:10DE5000204602D0FFF79EFF04E000F0C9F82046FC
:10DE600000F05BF92777E80708D0F00706D02168B3
:10DE70006FF001000861204600F01AFA280608D564
:10DE8000300606D521686FF0800008612046FFF754
:10DE9000E7FD680608D5700606D521686FF04000DA
:10DEA0000861204600F005FAA8060AD5B00608D594
:10DEB00021686FF0200008612046BDE8F041FFF7BF
:10DEC000D0BDBDE8F0810000F0B587B00446142154
:10DED0006846FEF7B7FA24683B4800233B49022214
:10DEE00001253B4E844210D1086840F010000860C4
:10DEF0000868694600F0100005904FF4D4408DE8A2
:10DF00000D00CDE90335304624E03248B4F1804FAE
:10DF100012D0314F0325BC4220D1086840F00400E4
:10DF200008600868694600F00400059080208DE8CC
:10DF30002D002A4804920DE00C6844F001040C60A6
:10DF400009680095CDE9012301F00101CDE90451F3
:10DF5000039313E0FFF7E0F807B0F0BD204FBC4299
:10DF60000ED10C6844F001040C60096801F0010155
:10DF700005910E218DE80E00039204926946E9E7AF
:10DF8000184884420DD1086840F010000860086805
:10DF9000694600F01000059060208DE80D003046C5
:10DFA0000FE011488442D7D1086840F002000860B1
:10DFB0000868694600F002000590A0158DE80D0084
:10DFC0000A48CDE90325C5E700000140303802408A
:10DFD000001002400000024000040040000802401F
:10DFE000000C004000400140004401400004024099
:10DFF000704770B5044690F83C0000260D46012895
:10E000000FD0012084F83C006AB1042A1DD0082AF0
:10E010002FD00C2A3FD00126002084F83C00304647
:10E0200070BD022070BD206801F0BCFB20688169D2
:10E0300041F0080181612068816921F0040181615A
:10E04000206881692A69114311E0206801F0DAFB38
:10E050002068816941F4006181612068816921F44F
:10E0600080618161206881692A6941EA02218161B8
:10E07000D2E7206801F0FCFB2068C16941F008018B
:10E08000C1612068C16921F00401C1612068C169D2
:10E090002A69114311E0206801F01EFC2068C16963
:10E0A00041F40061C1612068C16921F48061C161EE
:10E0B0002068C1692A6941EA0221C161ACE710B553
:10E0C000040003D094F83D0010B107E0012010BD1A
:10E0D000002084F83C00204600F01EF8022084F85E
:10E0E0003D00211D206801F0D5FA012084F846008A
:10E0F00084F83E0084F83F0084F8400084F8410032
:10E1000084F8420084F8430084F8440084F8450011
:10E1100084F83D00002010BD7047704710B50446DC
:10E12000022249B104290ED0082913D094F84100E5
:10E13000012816D0012010BD94F83E000128F9D125
:10E1400084F83E200FE094F83F000128F2D184F8D3
:10E150003F2008E094F840000128EBD184F84020EB
:10E1600001E084F841200122206801F0FBFA164901
:10E170002068164A884201D0904203D1436C43F490
:10E18000004343642068884213D0B0F1804F10D020
:10E190000F4988420DD00F4988420AD00E49884263
:10E1A00007D0904205D00D49884202D00C498842E0
:10E1B00004D1816801F00701062903D0016841F00C
:10E1C00001010160002010BD000001400004014079
:10E1D0000004004000080040000C004000400140E6
:10E1E0000018004070B50D0004464FF0000607D03F
:10E1F000042D0CD0082D11D00C2D16D0012648E08E
:10E200002068C16821F40071C160606A13E0206871
:10E21000C16821F48061C160A06A0CE02068C16817
:10E2200021F40061C160E06A05E02068C16821F462
:10E230008051C160206BFEF7E6FD00222946206870
:10E2400001F090FA184B41F2111120688A1098429F
:10E2500002D0164B984209D1036A0B4206D1036AD9
:10E26000134203D1436C23F4004343642068036AE0
:10E270000B4206D1016A114203D1016821F001016C
:10E28000016001203DB1042D08D0082D09D084F88B
:10E290004100304670BD84F83E00FAE784F83F0044
:10E2A000F7E784F84000F4E7000001400004014073
:10E2B0007047704770477047F8B5016804460868B2
:10E2C000CA684B6910F00F0F4FF000055AD003F0E9
:10E2D000010602F49077374365D0C10705D0D10518
:10E2E00003D5616C41F001016164410705D5D9078F
:10E2F00003D0616C41F002016164810705D5D90743
:10E3000003D0616C41F004016164010707D502F09C
:10E310002001314303D0616C41F008016164616CFC
:10E3200000293BD0800604D5900602D5204601F096
:10E330004CFB20684069616CC0F3801001F008015B
:10E34000014320462BD001F019FB206840694006AC
:10E3500021D52068143050E8001F21F0400140E82A
:10E360000012002AF5D1E06BA8B172490165E06B9B
:10E37000FEF749FD002811D0E06B016D01B0BDE84A
:10E38000F040084783060ED593060CD52046BDE81D
:10E39000F84001F01ABB2046FFF78DFFF8BDFFF7EC
:10E3A0008AFF6564F8BD266B2023012E7ED1C60648
:10E3B0007CD5D6067AD508684868009048694FF041
:10E3C000020640064DD5E26B106840684FF4807736
:10E3D0000004000C3AD0A18D814237D9E085D06984
:10E3E000B8422DD020680C3050E8001F21F4807115
:10E3F00040E80012002AF5D12068143050E8001FD0
:10E4000021F0010140E80012002AF5D12068143003
:10E4100050E8001F21F0400140E80012002AF5D129
:10E4200084F84230256320680C3050E8001F21F04A
:10E43000100140E80012002AF5D1E06BFEF79AFCCB
:10E440006663A08DE18D401A81B206E0A18D814204
:10E45000A8D1D069B842A5D166632046FFF72AFF4C
:10E46000F8BDA08DE18D401A81B2E08D0028F7D073
:10E470000029F5D020680C3050E8002F22F490726B
:10E4800040E80027002FF5D12068143050E8002F15
:10E4900022F0010240E80027002FF5D184F8423035
:10E4A000256320680C3050E8002F00E006E022F0E1
:10E4B000100240E80023002BF3D1CDE705062BD551
:10E4C000150629D594F841002128C9D1A068B0F5D6
:10E4D000805F01D12069B0B1206A411C21622168AE
:10E4E00000784860E08C401E0004000CE084B7D146
:10E4F0002068C16821F08001C1602068C16841F0D6
:10E500004001C160F8BD206A0088C0F3080048607F
:10E51000206A801C2062E5E74006F3D55006F1D55D
:10E52000CA68204622F04002CA6084F8413000F0F8
:10E530001BF9F8BD6FF9000870B5040004D094F819
:10E540004100002510B106E0012070BD84F8405064
:10E55000204600F023F8242084F841002068C16898
:10E5600021F40051C160204601F090FA2068016951
:10E5700021F4904101612068416921F02A01416143
:10E580002068C16841F40051C1606564202084F8AE
:10E59000410084F842006563002070BD70B586B00C
:10E5A000044614216846FDF74DFF2B4E22680021DA
:10E5B0002A48022303240725B24222D1274A1432D3
:10E5C000166846F010061660126802F010020592F6
:10E5D000026842F001020260006802AA00F0010035
:10E5E000059082E832006002CDE9000369461C48CC
:10E5F000FEF792FD002211462520FEF73BFF252065
:10E6000025E0184EB24224D1144A1032166846F45E
:10E6100080261660126802F480220592026842F099
:10E6200002020260006802AA00F00200059082E87F
:10E6300032004FF44060CDE9000369460A48FEF716
:10E640006BFD002211462720FEF714FF2720FEF75E
:10E6500003FF06B070BD00000010014030380240DA
:10E6600000000240004800400004024090F84230A0
:10E67000202B01D00220704721B11AB1002303637F
:10E6800001F08ABA0120704710B50D4A044690681F
:10E69000A0420DD192F83C100948126A0C30904704
:10E6A000074920460122BDE810403C31FFF7DEBF9C
:10E6B0000448844203D1BDE81040FDF7C7BF10BD38
:10E6C000C41C0020E00200202DE9F843044690F825
:10E6D0004100984616460D46202802D00220BDE88B
:10E6E000F88385B17EB100206064212084F8410068
:10E6F000FEF71CFEA6848146E684A0682027B0F5BC
:10E70000805F02D003E00120E9E7206910B12E46C6
:10E7100000250EE000260CE08021204601F057FA8B
:10E72000A8B9C6B116F8010B21684860E08C401EFC
:10E73000E084E08C4B464FF00002CDF800800028CA
:10E74000EAD14FF04001204601F041FA40B184F88F
:10E7500041700320C3E735F8020BC0F30800E3E77C
:10E7600084F841700020BAE77047FEE72DE9F04FCA
:10E7700087B00024274DCDE90354059401264FF0BE
:10E780000F084FF44877CDF800800694DFF888A092
:10E79000CDE90176B30352462146204800F042F805
:10E7A0001E49730301F1B409A9F17800C9F80010FA
:10E7B000CDE903540594CDF800800694CDE90176A7
:10E7C00052460121834600F02DF8C9F804B0CDE986
:10E7D00003540594CDF800800694CDE90176A9F1A3
:10E7E0003C00330352460221054600F01BF8C9F8ED
:10E7F000085009F10C050A4908202960A880022662
:10E80000AC71FEF793FDC5E9020607B0BDE8F04F15
:10E81000FDF7E6BE35CD0008000C0240B41D002017
:10E82000000802402DE9F0470400DDE90DA5DDE90F
:10E830000B96DDE909C7DDF820801BD021806260DE
:10E840002381CDB10020A072E072C4E9038CFEF7F1
:10E850006DFD6061FEF76AFDA0610020E06184F853
:10E860002000FEF763FD2434A4E8810264E80C6A0A
:10E8700084F83850BDE8F0870120E4E72DE9F04145
:10E880000F46050078D00024A04694E055F82400F7
:10E89000002872D001894068FEF736FD55F8241033
:10E8A000C872FEF743FD064655F82400C27A90F878
:10E8B00038108A4204D1837A8B4201D0466174E0D9
:10E8C0008A423CD0837A8B4239D1866155F8241034
:10E8D0004869864201D3301A02E0C043401C3044EC
:10E8E000C86155F82400C268C169914224D390F8E8
:10E8F000201011B102290ED057E0012180F820101C
:10E9000055F82400C16A09B10088884755F82410D9
:10E9100081F8208007E080F8208055F82400416BC2
:10E9200009B10088884755F824008169416155F88C
:10E9300024008169416238E08169416135E08A42A1
:10E9400031D14169711AC16155F8240002699142BF
:10E950002BD390F8201011B102290FD025E002210D
:10E9600080F8201055F82400016B09B10088884711
:10E9700055F82400466218E020E01AE0816A79B177
:10E980004FF47A72B2FBF1F1426AB21A91420CD89A
:10E99000466255F82400016B39B10088884704E0CD
:10E9A0004FF0FF31F0E780F8208055F82400C17A5D
:10E9B0008172641CA4B2BC42FFF468AFBDE8F08170
:10E9C00010B503210548FFF759FF04480C3000F04B
:10E9D0001FFCBDE81040FDF777BE0000681E002058
:10E9E000F0B503460D46408919891446884201D383
:10E9F0000220F0BD2946184600F062F808B1012057
:10EA0000F0BD0020024605211E8908E000EB400C05
:10EA10001F6801EB8C0C17F80C7027B1401C864264
:10EA2000F4DC0320F0BD00EB40001F6801EB800127
:10EA300001267E54196811EB8000F2D00571046044
:10EA40008260596811B9586004E011468A68002A4A
:10EA5000FBD188605889401C58810020F0BD0160BE
:10EA60000021416002814181704710B544894268AC
:10EA700000230CBB022010BD14798C421AD191687E
:10EA8000B3B199600368D11A0C2291FBF2F100290D
:10EA900009DB02898A4206DD002201EB41010524DF
:10EAA00004EB81015A544189491E4181002010BD67
:10EAB0004160E7E713469268002ADDD1012010BDCE
:10EAC000406805E002798A4201D1012070478068E0
:10EAD0000028F7D1704700002DE9F04786B01421D7
:10EAE0006846FDF7AFFC6B480024016841F0100157
:10EAF0000160016801F010010591016841F0040115
:10EB00000160016801F004010591016841F0800194
:10EB10000160016801F080010591016841F0010187
:10EB20000160016801F001010591016841F00201F5
:10EB30000160016801F002010591016841F00801DE
:10EB400001600068544F00F0080001220590510355
:10EB50003846FEF7E6FB00224FF448413846FEF700
:10EB6000E0FBDFF838A1002210215046FEF7D9FB68
:10EB70000122D1035046FEF7D4FBDFF8248140F296
:10EB80000246002231464046FEF7CBFBDFF81491E7
:10EB90000022B9144846FEF7C4FB012291034846FF
:10EBA000FEF7BFFB4FF4684000900125CDE901540A
:10EBB000694638460394FEF7AFFA40F20930CDE9D2
:10EBC0000004694638460294FEF7A6FA0620009033
:10EBD0004FF48810CDE9010469463846FEF79CFAE7
:10EBE00048F210000090CDE9015469465046039464
:10EBF000FEF792FA0220CDE90004694650460294DD
:10EC0000FEF78AFA7E20CDE9000469464846029460
:10EC1000FEF782FA4FF4C070CDE900046946404621
:10EC20000294FEF779FA0096CDE901546946404610
:10EC30000394FEF771FA4FF4A0400090CDE901541F
:10EC4000694648460394FEF767FA47F6FF70CDE938
:10EC50000004694614480294FEF75EFA2802CDE9E2
:10EC60000004694650460294FEF756FA002202213B
:10EC70000720FEF7FFFB0720FEF7EEFB0022114600
:10EC80000820FEF7F7FB0820FEF7E6FB06B0BDE81C
:10EC9000F0870000303802400008024000000240C7
:10ECA0000010024000040240000C0240094810B568
:10ECB000074901600521416040F6B8318160FEF7E7
:10ECC0003BFB002803D0BDE81040FEF73FB810BD65
:10ECD000003000403400002010B596B000240F949E
:10ECE00010941194129413941C2168461494FDF707
:10ECF000A9FB202107A8FDF7A5FB34483249C0E94C
:10ED000000144FF6FF71C0E9024180210461C0E99F
:10ED10000541FEF719FF08B1FEF718F84FF48050CF
:10ED20000F900FA92948FEF7C7FF08B1FEF70EF8AC
:10ED30002648FFF7C4F908B1FEF708F8139413A9A1
:10ED400022481494FEF7B8FE08B1FDF7FFFF6020DB
:10ED5000CDE90004029403940494059400226946CA
:10ED60001A480694FFF745F908B1FDF7EFFF0422B2
:10ED700069461648FFF73DF908B1FDF7E7FF08229D
:10ED800069461248FFF735F908B1FDF7DFFF0C229D
:10ED900069460E48FFF72DF908B1FDF7D7FF079434
:10EDA000089409944FF400500A94CDE90B4007A948
:10EDB00006480E94FEF756FE08B1FDF7C7FF03485C
:10EDC000FFF782F816B010BD00000140400000209F
:10EDD0000C4810B50A4901604FF4E131416000214F
:10EDE00081600C22C160C0E904128161C161FFF73A
:10EDF000A3FB002803D0BDE81040FDF7A7BF10BD5E
:10EE000000100140980200200E4810B50C49016026
:10EE10004FF4165141604FF48051816000214FF44E
:10EE20008062C0E903120C22C0E90521C161FFF72D
:10EE300083FB002803D0BDE81040FDF787BF10BD5D
:10EE400000480040E002002010B5FDF791FD134896
:10EE5000FEF7A1FAFFF7B4FD1048FEF79CFAFDF7A4
:10EE6000A9FD0E48FEF797FA00F06CF80B48FEF784
:10EE700092FAFEF75BFA0A4C2168401AB0F5FA7F65
:10EE800007D94FF400510748FEF743FAFEF74EFA50
:10EE90002060BDE810400148FEF77DBA3400002034
:10EEA000280000200008024010B50748FDF75BFF6E
:10EEB0000648FDF758FFFDF759FEFFF757FCBDE880
:10EEC0001040FDF7DFBC0000300000202C000020C7
:10EED0000A480078A0F140010F2902D8491CC9B2A4
:10EEE00000E00021064A1278120642EA004040EA99
:10EEF0000120044909780843704700001B000020E6
:10EF00001D0000201C000020FEE700002DE9F0415C
:10EF10000B4F7D68FEF70AFA064600240AE02868CF
:10EF2000301AFA2803D929790548FFF79EFDAD6804
:10EF3000641CE4B27889A042F1D8BDE8F0810000F9
:10EF4000340300202DE9FC4101216648FDF700FF54
:10EF5000002450B101231A46002163480094FDF7B4
:10EF60003CFC01215F48FDF7FAFE04215D48FDF7F6
:10EF7000EFFE50B10123032200215B480094FDF70E
:10EF80002CFC04215748FDF7EAFE02215548FDF705
:10EF9000DFFE50B101230222002153480094FDF707
:10EFA0001CFC02214F48FDF7DAFE08214D48FDF711
:10EFB000CFFE4E4E4E4D70B1FFF78AFF03463078BC
:10EFC000CDE90005042200214748FDF72BFC08216C
:10EFD0004448FDF7C4FE4FF4007739464148FDF739
:10EFE000B7FE68B1FFF774FF034630780090122235
:10EFF00000213D48FDF7F1FB39463A48FDF7AFFEE9
:10F000004FF4806739463748FDF7A2FE50B1337898
:10F010001322002134480093FDF7DFFB39463148C5
:10F02000FDF79DFE40212F48FDF792FE314E324FF5
:10F0300068B130883988052240EA014300212A4816
:10F040000094FDF7CAFB40212648FDF788FE1021F9
:10F050002448FDF77DFE58B1CDE900453B880722E5
:10F0600000212148FDF7DEFB10211E48FDF777FE49
:10F0700020211C48FDF76CFE58B1CDE900453388CE
:10F08000082200211848FDF7CDFB20211548FDF787
:10F0900066FE80211348FDF75BFE50B100230D2270
:10F0A000194611480094FDF798FB80210D48FDF7A3
:10F0B00056FE4FF4807631460A48FDF749FE58B1B6
:10F0C0000022330411460848CDE90045FDF7AAFBAC
:10F0D00031460448FDF743FE00F0E0F8BDE8FC418E
:10F0E000FFF714BF30000020B01C00201D000020DE
:10F0F00028030020641D0020341D002010B5046882
:10F10000002061B104290CD008290CD0206463B11F
:10F11000042B0DD01168082B0DD0086410BD60635E
:10F12000F5E7A063F3E7E063F1E71168486310BD1A
:10F130001168886310BDC86310BDF0B5C568DDE90E
:10F14000057C64267D43B5FBF6F500240068BCF120
:10F15000000FADB20DD041B3042928D0082928D022
:10F16000046443B3042B29D01068082B29D005640C
:10F17000F0BD61B104290CD008290CD0056463B13D
:10F18000042B0DD01068082B0DD00464F0BD45632E
:10F19000F5E78563F3E7C563F1E710684463F0BD05
:10F1A00010688463F0BDC463F0BD4463D9E7846331
:10F1B000D7E7C463D5E710684563F0BD1068856381
:10F1C000F0BDC563F0BD10B5C468006869B104291D
:10F1D0000DD008290DD004646BB1042B0FD0116839
:10F1E000D068082B0FD0086410BD4463F4E7846333
:10F1F000F2E7C463F0E71168D068486310BD116896
:10F20000D068886310BDC86310BDFEE7704700007A
:10F2100070B5044681880068FEF776F80546FEF76B
:10F2200085F8A27942B100260221012A09D0022ADA
:10F2300011D0032A0DD114E0002D09D1A0600120C6
:10F240000DE0012D05D0A268801A0A2800D3A17113
:10F2500070BDA67170BD012DFCD1A0600320A0710E
:10F2600070BD002DF3D0A168401A0A28F8D30248D7
:10F27000E168FDF77BFDECE73000002010B50446A7
:10F2800008680068C00608D4D4E90001FEF7AAFFA8
:10F29000E069BDE8104000F08EB910BD2DE9F047DF
:10F2A000154F7C68FEF742F8064600254FF47A7841
:10F2B00007F678191AE02068301A404513D92079EA
:10F2C000C0EBC00109EB41010C4800F08FFD266046
:10F2D0002179C1EBC10209EB42004078032802D337
:10F2E0000548FFF7C2FBA4686D1CEDB27889A842FF
:10F2F000E1D8BDE8F087000028030020B01C002002
:10F30000002803D00021C18001814181704700287D
:10F310000AD00189C2889142018901D282881144B0
:10F32000C288891A41814089704781884089081ABA
:10F3300080B27047002817D0016082800021C18010
:10F3400001810A4AC2600A4A02610A4A42610A4AC3
:10F3500082610A4AC2610A4A02620A4A42620A4A4F
:10F3600082620A4AC26241817047000091F300083C
:10F370009FF30008C9F400081DF400085DF40008BC
:10F38000B1F300082BF300080FF3000801F30008A5
:10F3900018B1408908B1002070470120704718B1AA
:10F3A00041898088814201D1012070470020704747
:10F3B0002DE9F041154688460446FFF7A8FF85422F
:10F3C00000D90546A088E188401A86B2E188206805
:10F3D000AE4201440BD32A464046FCF7BCFFE0880E
:10F3E000A1882844B0FBF1F201FB12000FE0324685
:10F3F0004046FCF7B0FFAA1B174608EB0600216841
:10F40000FCF7A9FFA08897FBF0F100FB1170E080EA
:10F410006089401B60812846BDE8F08110B5C0B10D
:10F42000B9B1EFF3108272B64389A3B1C4880368FF
:10F430001B5D0B70C1888388491CB1FBF3F403FB8F
:10F440001411C1804189491E418182F31088012035
:10F4500010BD002010BD82F31088FAE72DE9F041BD
:10F46000154688460446FFF760FF854200D90546E9
:10F47000A0882189401A86B221892068AE420844BA
:10F480000BD32A464146FCF766FF2089A188284411
:10F49000B0FBF1F201FB12000FE032464146FCF7EF
:10F4A0005AFFAA1B174608EB06012068FCF753FF1A
:10F4B000A08897FBF0F100FB11702081608928443F
:10F4C00060812846BDE8F08170B50D46040002D089
:10F4D000FFF765FF08B1002070BD21892068455401
:10F4E0002089A188401CB0FBF1F201FB12002081B1
:10F4F0006089401C6081012070BD2DE9F0411646F5
:10F500000F46040054D0002F52D0002E50D094F853
:10F5100060000025B0424BD304F10C08A1694046BD
:10F520008847002844D1626A211D40469047002840
:10F53000F4D0207868B10128F0D194F86100B0428D
:10F5400003D294F8601088420DD3257084F861507E
:10F55000E4E7207961788842E0D104F14001685401
:10F560000120207021E004F140012279425494F8F6
:10F570006100721E904217D1257084F86150207985
:10F58000A2789042CAD132463846FCF7E4FEA26E19
:10F5900022B13946204690470028BFD0E16E0029AD
:10F5A000BCD038468847B9E7401C84F86100B5E70D
:10F5B000BDE8F08170470188012903D00121018055
:10F5C0000846704700207047FDF7ABBEFDF7EABE66
:10F5D00030B593B030216846FCF734FF14210CA8F5
:10F5E000FCF730FF1F480025016841F080510160A1
:10F5F000006800F0805011901B48016841F4804180
:10F6000001600068022400F48040119009200090FD
:10F610004FF4803001900120CDE90504800507906A
:10F62000192008904FF4A870CDE9090404200B902C
:10F630006846FEF749F808B172B6FEE70CA90F203C
:10F6400081E831004FF4A0500F904FF4805010909B
:10F6500005210CA8FDF74CFF002801D072B6FEE78B
:10F6600013B030BD403802400070004004480168CB
:10F6700041F4700101600249024880390860704716
:10F6800088ED00E000C000080148FEF784BB0000E0
:10F69000D0000020F0B50268274B284D284E294F96
:10F6A000294C4FF0804C984209D0604507D0A842C1
:10F6B00005D0B04203D0B84201D0A04204D122F01C
:10F6C000700E4A6842EA0E0298421BD0604519D07B
:10F6D000A84217D0B04215D0B84213D0A04211D0E2
:10F6E0001A4DA8420ED01A4DA8420BD0194DA8426F
:10F6F00008D0194DA84205D0184DA84202D0184D87
:10F70000A84203D122F44075CA682A434D6922F009
:10F7100080022A438D68C5620D688562984201D0D7
:10F72000A04201D109690163016841F0040101604F
:10F73000012141610260F0BD000001400004004071
:10F7400000080040000C004000040140004001405F
:10F75000004401400048014000180040001C0040E7
:10F760000020004010B501F01F030121046A9940F8
:10F770008C430462016A9A401143016210BD10B5C6
:10F78000846842EA032224F47F440A4322438260CD
:10F7900010BD826822F070020A4342F007018160C6
:10F7A00070470000F0B5036A026A22F001020262AB
:10F7B00042688469124E24F073050C682C4323F0D0
:10F7C00002058B682B430D4DA84201D0B04205D1F4
:10F7D00023F00807CB683B4323F00403A84201D081
:10F7E000B04205D14D6922F4407215438A692A431B
:10F7F00042608461496841630362F0BD00000140DA
:10F8000000040140F0B5026A036A23F010030362AA
:10F81000436884690D6824F4E64444EA05248D684D
:10F8200022F0200242EA05120F4D104EA84201D0EC
:10F83000B04206D1CF6822F0800242EA071222F0DD
:10F840004002A84201D0B04207D14D6923F4406381
:10F8500043EA85038D6943EA85034360846149680F
:10F8600081630262F0BD000000000140000401401D
:10F87000F0B5026A036A23F4807303624368C469C3
:10F8800022F4007224F073050C68124E2C438D682C
:10F8900042EA05220E4DA84201D0B04206D1CF68FF
:10F8A00022F4006242EA072222F48062A84201D0D8
:10F8B000B04207D14D6923F4405343EA05138D69E3
:10F8C00043EA05134360C4614968C1630262F0BD45
:10F8D000000001400004014030B5046A026A22F4CD
:10F8E000805202624268C3690D6823F4E64343EA2A
:10F8F00005238D6824F4005444EA0534084DA842D9
:10F9000002D0084DA84204D14D6922F4804242EA57
:10F9100085124260C36149680164046230BD000021
:10F92000000001400004014010B5036A046A24F09D
:10F9300001040462846924F0F00444EA021423F010
:10F940000A020A438461026210BD10B5036A046AA8
:10F9500024F010040462846923F0A00324F47044AA
:10F9600044EA023243EA01118261016210BD10B51E
:10F97000806B0021C185FEF79EFC10BD01680C3133
:10F9800051E8002F22F4907241E80023002BF5D1BA
:10F990000168143151E8002F22F0010241E80023F0
:10F9A000002BF5D1016B012909D101680C3151E817
:10F9B000002F22F0100241E80023002BF5D1202176
:10F9C00080F8421000210163704708B590F842109A
:10F9D000222901D0022008BD82684FF480539A4248
:10F9E00001D1016921B1816A9A421BD04AB10AE072
:10F9F0000268816A5268C2F308020A80816A891C1F
:10FA000008E0026972B10268526802F07F020A706F
:10FA1000816A491C8162C18D491E0904090CC18596
:10FA200003D01BE002685268F1E70168CA6822F05F
:10FA30002002CA600168CA6822F48072CA60016844
:10FA40004A6922F001024A61202180F84210002117
:10FA50004163026B012A03D0FEF716FE002008BDA9
:10FA6000016301680C3151E8002F22F0100241E8D7
:10FA70000023002BF5D101680A68D20602D50A6876
:10FA800049680091818DFEF715FCE7E770B50446E3
:10FA900000680169E26821F4405111430161216964
:10FAA000A068E26908436169114308432168CA6894
:10FAB00049F20C639A430243CA6020684169A26913
:10FAC00021F440711143416131492068884202D0DC
:10FAD0003049884202D1FDF7B5FD01E0FDF7A2FDF6
:10FAE000E2690023192164253226B2F5004F6268CD
:10FAF00028D0A0FB0101930F9200FCF7B5FB014653
:10FB0000B0FBF5F06FF01802504301EB800006EBFC
:10FB10000010B0FBF5F000F0F002B1FBF5F002EBE5
:10FB20000012B1FBF5F06FF01803584301EB8000B1
:10FB300006EB0010B0FBF5F000F00F002168104458
:10FB4000886070BDA0FB010192185B41FCF78CFB43
:10FB50000146B0FBF5F00201B1FBF5F06FF01803C0
:10FB6000584301EB800006EBC000B0FBF5F000F05D
:10FB7000F80002EB4002B1FBF5F0584301EB8000C6
:10FB800006EBC000B0FBF5F000F00700D6E7000080
:10FB9000001001400014014081628285C28500216D
:10FBA0004164222180F84210016921B10168CA68CC
:10FBB00042F48072CA6001684A6942F001024A61F7
:10FBC0000068C16841F02001C160002070472DE944
:10FBD000F843984617460D460446089E24E0701CDC
:10FBE00022D0FDF7A3FBA0EB0800B0421AD8CEB19B
:10FBF0002068C168490717D5802D15D0402D13D036
:10FC00000168C94309070FD40168002540680090C6
:10FC10002046FFF7B3FE0820606484F840500120BE
:10FC2000BDE8F8830320FBE72068006835EA0000A0
:10FC300004D00020B842D2D00020F1E70120F9E73B
:10FC40007FB50446C078012808D0002871D1A1787A
:10FC500004B05748BDE87040FEF707BFAA208DF8F2
:10FC6000000060788DF80100A0788DF80200E0783F
:10FC70008DF8030020798DF8040060798DF8050077
:10FC8000A0798DF80600E0798DF80700207A8DF8CC
:10FC90000800607A8DF80900A07A8DF80A00454DB9
:10FCA0000B216846FCF77FFD010A8DF80C005520FA
:10FCB0008DF80B108DF80D002B690E226946284631
:10FCC00098473B48A1780C30FEF7FAFE00286DD12A
:10FCD00020791A2832D00BDC02281ED003DC80B138
:10FCE000012858D110E010281ED0192853D121E046
:10FCF0001B2825D01C2827D0F02828D0FF284AD13F
:10FD000045E04FF4807104E0B4F8070041BA2A4896
:10FD100007E02A48FDF72AF83DE0B4F8070041BAA9
:10FD20002748FCF704FC34E02649012008738021B1
:10FD3000EFE73BE0207AFCF7AFFC2CE0012000E08D
:10FD40000020FCF7B7FC26E0FCF77CFC23E0D4F8AD
:10FD5000050000BA20F0FF01207A01431A488142D1
:10FD600000D00020FCF7E0FCA8B1FCF781FF642084
:10FD7000FDF796F9BFF34F8F14480168144A01F458
:10FD8000E06111430160BFF34F8F00BFFDE7FCF757
:10FD90006FFF4021BDE7FDF7C9FAA17804B0024624
:10FDA000BDE8704002480C30FEF71ABE7FBD00006F
:10FDB00028030020B01C0020341D0020300000204B
:10FDC000641D0020941D002041544F420CED00E0C2
:10FDD0000400FA050148FEF76FBA000098020020FF
:10FDE0000148FEF769BA0000E00200201FB5044692
:10FDF0004878401CC0B24870032802D9012004B0E2
:10FE000010BDAA208DF8000048788DF80100887890
:10FE10008DF80200C8788DF8030008798DF8040089
:10FE200048798DF8050088798DF80600C8798DF835
:10FE30000700087A8DF80800487A8DF80900887A5A
:10FE40008DF80A000B216846FCF7ADFC010A8DF81D
:10FE50000C0055208DF80B108DF80D0023690E2233
:10FE60006946204698470020C9E710B50C460B218B
:10FE70004030FCF798FCB4F80B1049BA884201D125
:10FE8000012010BD002010BD7FB5144C05460E4664
:10FE900020780021401CC0B220707170B0701049F1
:10FEA000C0EBC00001EB40000E223146FCF753FAD4
:10FEB0000E2231466846FCF74EFA0B216846FCF7E5
:10FEC00072FC010A8DF80B108DF80C002B690E22C4
:10FED000694628469847207804B070BD100000207D
:10FEE000A00C0020FEE70907090E002804DB00F142
:10FEF000E02080F80014704700F00F0000F1E020CF
:10FF000080F8141D7047000062B6FDF753FAFFF742
:10FF10005FFBFEF7E1FDFEF7DFFEFEF759FFFEF7A0
:10FF200073FFFEF7C3FEFEF7BFFF00BFFEF78CFFB7
:10FF3000FCE74FF04070E1EE100A70470006101623
:10FF4000000610160000000000000000010203047B
:10FF50000607080900000000010203047CFF0008F6
:10FF60000000002034000000C4C10008B0FF0008F9
:10FF70003400002084510000E0C1000801000000AE
:10FF800010000000000000000024F4000000000049
:10FF9000000000000001FF00000000000000000061
:10FFA0000000000000000000000000000000000051
:040000050800C189A5
:00000001FF
